{
  "contractName": "Convert",
  "abi": [
    {
      "constant": true,
      "inputs": [
        {
          "name": "incomingAsset",
          "type": "address"
        },
        {
          "name": "outgoingAsset",
          "type": "address"
        }
      ],
      "name": "getConversionRate",
      "outputs": [
        {
          "name": "",
          "type": "uint256"
        }
      ],
      "payable": false,
      "stateMutability": "view",
      "type": "function"
    },
    {
      "constant": false,
      "inputs": [
        {
          "name": "expectedAmount",
          "type": "uint256"
        },
        {
          "name": "actualAmount",
          "type": "uint256"
        },
        {
          "name": "originalAssetContractAddr",
          "type": "address"
        },
        {
          "name": "convertedAssetContractAddr",
          "type": "address"
        }
      ],
      "name": "convertAsset",
      "outputs": [
        {
          "name": "",
          "type": "bool"
        }
      ],
      "payable": false,
      "stateMutability": "nonpayable",
      "type": "function"
    },
    {
      "constant": true,
      "inputs": [],
      "name": "getRatesLength",
      "outputs": [
        {
          "name": "",
          "type": "uint256"
        }
      ],
      "payable": false,
      "stateMutability": "view",
      "type": "function"
    },
    {
      "constant": false,
      "inputs": [
        {
          "name": "incomingAsset",
          "type": "address"
        },
        {
          "name": "outgoingAsset",
          "type": "address"
        },
        {
          "name": "rate",
          "type": "uint256"
        }
      ],
      "name": "setConversionRate",
      "outputs": [],
      "payable": false,
      "stateMutability": "nonpayable",
      "type": "function"
    }
  ],
  "bytecode": "0x6060604052341561000f57600080fd5b61052c8061001e6000396000f300606060405260043610610062576000357c0100000000000000000000000000000000000000000000000000000000900463ffffffff16806319048880146100675780632589430e146100d3578063381c5cb51461015557806351152e2b1461017e575b600080fd5b341561007257600080fd5b6100bd600480803573ffffffffffffffffffffffffffffffffffffffff1690602001909190803573ffffffffffffffffffffffffffffffffffffffff169060200190919050506101df565b6040518082815260200191505060405180910390f35b34156100de57600080fd5b61013b600480803590602001909190803590602001909190803573ffffffffffffffffffffffffffffffffffffffff1690602001909190803573ffffffffffffffffffffffffffffffffffffffff16906020019091905050610265565b604051808215151515815260200191505060405180910390f35b341561016057600080fd5b6101686103db565b6040518082815260200191505060405180910390f35b341561018957600080fd5b6101dd600480803573ffffffffffffffffffffffffffffffffffffffff1690602001909190803573ffffffffffffffffffffffffffffffffffffffff169060200190919080359060200190919050506103e8565b005b60008060008473ffffffffffffffffffffffffffffffffffffffff1673ffffffffffffffffffffffffffffffffffffffff16815260200190815260200160002060008373ffffffffffffffffffffffffffffffffffffffff1673ffffffffffffffffffffffffffffffffffffffff16815260200190815260200160002054905092915050565b600080600080859250849150610284878961049690919063ffffffff16565b90508273ffffffffffffffffffffffffffffffffffffffff166342966c68826040518263ffffffff167c010000000000000000000000000000000000000000000000000000000002815260040180828152602001915050600060405180830381600087803b15156102f457600080fd5b6102c65a03f1151561030557600080fd5b5050508173ffffffffffffffffffffffffffffffffffffffff166340c10f1933896000604051602001526040518363ffffffff167c0100000000000000000000000000000000000000000000000000000000028152600401808373ffffffffffffffffffffffffffffffffffffffff1673ffffffffffffffffffffffffffffffffffffffff16815260200182815260200192505050602060405180830381600087803b15156103b357600080fd5b6102c65a03f115156103c457600080fd5b505050604051805190509350505050949350505050565b6000600180549050905090565b806000808573ffffffffffffffffffffffffffffffffffffffff1673ffffffffffffffffffffffffffffffffffffffff16815260200190815260200160002060008473ffffffffffffffffffffffffffffffffffffffff1673ffffffffffffffffffffffffffffffffffffffff168152602001908152602001600020819055506001805480600101828161047c91906104af565b916000526020600020900160008390919091505550505050565b60008282111515156104a457fe5b818303905092915050565b8154818355818115116104d6578183600052602060002091820191016104d591906104db565b5b505050565b6104fd91905b808211156104f95760008160009055506001016104e1565b5090565b905600a165627a7a72305820b263255373aea159a590d6e3fae5b9edee0287944e4d3a555f368be36198db670029",
  "source": "pragma solidity ^0.4.18;\n\nimport './token/StandardToken.sol';\nimport './token/BurnableToken.sol';\nimport './token/MintableToken.sol';\nimport './math/SafeMath.sol';\n\n/**\n  * An ERC20 compliant token generator Contract with all the basic functionality of\n  * Transfer, TransferFrom, GetBalance\n  * Basic ERC20 functionality extended to included token burnability and token mintability\n**/\n\ncontract TokenizedAsset is StandardToken, BurnableToken, MintableToken {\n\n    string  public name;\n    string  public symbol;\n    uint8   public constant DECIMALS = 18;\n\n    /**\n     * Asset/Token constructor\n     *\n     * @param _name    The name of the token to be created\n     * @param _name    The symbol of the token to be created\n     */\n    function TokenizedAsset (string _name, string _symbol) public payable {\n        name = _name;\n        symbol = _symbol;\n    }\n\n    // /**\n    //  * Overrides the burn function\n    //  *\n    //  * @param _value    The amount of tokens to burn\n    //  */\n    // function burn(uint256 _value) public {\n    //     super.burn(_value);\n    //     Transfer(msg.sender, address(0x0), _value);\n    // }\n\n    // /**\n    //  * Overrides the mint function\n    //  *\n    //  * @param _to       The beneficiary of the mint\n    //  * @param _value    The amount to be minted\n    //  */\n    // function mint(address _to, uint256 _value) public returns (bool) {\n    //     return super.mint(_to, _value);\n    // }\n\n    // /**\n    //  * Overrides the transferFrom function\n    //  *\n    //  * @param _from    The account to transfer from\n    //  * @param _to    The account to transfer to\n    //  * @param _amount    The amount to transfer\n    //  */\n    // function transferFrom(address _from, address _to, uint _amount) public returns (bool) {\n    //     return super.transferFrom(_from, _to, _amount);\n    // }\n}\n\n/**\n  * A Contract to convert one asset/token to another\n  * by burning a specific amount of the original asset/token\n  * and minting a rate calculated amount of the converted asset/tokens\n  * Contract also affords for any loss/wastage\n**/\ncontract Convert {\n    using SafeMath for uint;\n\n    mapping (address => mapping (address => uint)) ConversionRate;\n    uint256[] rates;\n\n    /**\n     * Method to set an arbitrary conversion rate between a pair of asset/token\n     *\n     * @param incomingAsset The original asset/token contract address\n     * @param incomingAsset The converted asset/token contract address\n     * @param rate The conversion rate\n     */\n    function setConversionRate(address incomingAsset, address outgoingAsset, uint rate) public {\n        ConversionRate[incomingAsset][outgoingAsset] = rate;\n        rates.push(rate);\n    }\n\n    function getRatesLength() public constant returns (uint256) {\n        return rates.length;\n    }\n\n    /**\n     * Method to get the conversion rate between a pair of asset/token\n     *\n     * @param incomingAsset The original asset/token contract address\n     * @param incomingAsset The converted asset/token contract address\n     */\n    function getConversionRate(address incomingAsset, address outgoingAsset) public constant returns (uint) {\n        return ConversionRate[incomingAsset][outgoingAsset];\n    }\n\n    /**\n     * Method to perform the conversion by burning original asset/token standard\n     * minting converted asset/token\n     *\n     * @param expectedAmount The converted amount expected as per rate\n     * @param actualAmount The actual amount owing to wastage\n     * @param originalAssetContractAddr The original asset/token contract address\n     * @param convertedAssetContractAddr The converted asset/token contract address\n     */\n    function convertAsset(uint expectedAmount, uint actualAmount, address originalAssetContractAddr, address convertedAssetContractAddr) public returns (bool) {\n        TokenizedAsset originalAsset = TokenizedAsset(originalAssetContractAddr);\n        TokenizedAsset convertedAsset = TokenizedAsset(convertedAssetContractAddr);\n\n        uint diffAmount = expectedAmount.sub(actualAmount);\n\n        originalAsset.burn(diffAmount);\n        return convertedAsset.mint(msg.sender, actualAmount);\n    }\n}\n",
  "sourcePath": "/Users/mayurrelekar/dev/pista/contracts/Convert.sol",
  "compiler": {
    "name": "solc",
    "version": "0.4.18+commit.9cf6e910.Emscripten.clang"
  },
  "schemaVersion": "1.0.1",
  "updatedAt": "2018-02-09T10:59:43.616Z"
}