{
  "contractName": "Convert",
  "abi": [
    {
      "constant": true,
      "inputs": [
        {
          "name": "incomingAsset",
          "type": "address"
        },
        {
          "name": "outgoingAsset",
          "type": "address"
        }
      ],
      "name": "getConversionRate",
      "outputs": [
        {
          "name": "",
          "type": "uint8"
        }
      ],
      "payable": false,
      "stateMutability": "view",
      "type": "function"
    },
    {
      "constant": false,
      "inputs": [
        {
          "name": "incomingAsset",
          "type": "address"
        },
        {
          "name": "outgoingAsset",
          "type": "address"
        },
        {
          "name": "rate",
          "type": "uint8"
        }
      ],
      "name": "setConversionRate",
      "outputs": [],
      "payable": false,
      "stateMutability": "nonpayable",
      "type": "function"
    }
  ],
  "bytecode": "0x6060604052341561000f57600080fd5b61027f8061001e6000396000f30060606040526004361061004c576000357c0100000000000000000000000000000000000000000000000000000000900463ffffffff168063190488801461005157806368488a91146100c3575b600080fd5b341561005c57600080fd5b6100a7600480803573ffffffffffffffffffffffffffffffffffffffff1690602001909190803573ffffffffffffffffffffffffffffffffffffffff16906020019091905050610127565b604051808260ff1660ff16815260200191505060405180910390f35b34156100ce57600080fd5b610125600480803573ffffffffffffffffffffffffffffffffffffffff1690602001909190803573ffffffffffffffffffffffffffffffffffffffff1690602001909190803560ff169060200190919050506101ba565b005b60008060008473ffffffffffffffffffffffffffffffffffffffff1673ffffffffffffffffffffffffffffffffffffffff16815260200190815260200160002060008373ffffffffffffffffffffffffffffffffffffffff1673ffffffffffffffffffffffffffffffffffffffff16815260200190815260200160002060009054906101000a900460ff16905092915050565b806000808573ffffffffffffffffffffffffffffffffffffffff1673ffffffffffffffffffffffffffffffffffffffff16815260200190815260200160002060008473ffffffffffffffffffffffffffffffffffffffff1673ffffffffffffffffffffffffffffffffffffffff16815260200190815260200160002060006101000a81548160ff021916908360ff1602179055505050505600a165627a7a7230582096328ad3fe70ece0558d5ba92be8912da5f90ffbee9b8def63038cb135b89b7e0029",
  "source": "pragma solidity ^0.4.18;\n\ncontract Convert {\n    mapping (address => mapping (address => uint8)) ConversionRate;\n\n    function setConversionRate(address incomingAsset, address outgoingAsset, uint8 rate) {\n        ConversionRate[incomingAsset][outgoingAsset] = rate;\n    }\n\n    function getConversionRate(address incomingAsset, address outgoingAsset) constant returns (uint8) {\n        return ConversionRate[incomingAsset][outgoingAsset];\n    }\n}\n",
  "sourcePath": "/Users/mayurrelekar/dev/pista/contracts/Convert.sol",
  "compiler": {
    "name": "solc",
    "version": "0.4.18+commit.9cf6e910.Emscripten.clang"
  },
  "schemaVersion": "1.0.1",
  "updatedAt": "2018-01-21T07:32:23.192Z"
}