{
  "contractName": "Departments",
  "abi": [
    {
      "constant": false,
      "inputs": [
        {
          "name": "_name",
          "type": "string"
        },
        {
          "name": "_email",
          "type": "string"
        },
        {
          "name": "_incomingAsset",
          "type": "address"
        },
        {
          "name": "_outgoingAsset",
          "type": "address"
        }
      ],
      "name": "createTempDepartment",
      "outputs": [],
      "payable": false,
      "stateMutability": "nonpayable",
      "type": "function"
    },
    {
      "constant": true,
      "inputs": [],
      "name": "getDepartmentsSize",
      "outputs": [
        {
          "name": "",
          "type": "uint256"
        }
      ],
      "payable": false,
      "stateMutability": "view",
      "type": "function"
    },
    {
      "constant": true,
      "inputs": [],
      "name": "getTempDepartmentsSize",
      "outputs": [
        {
          "name": "",
          "type": "uint256"
        }
      ],
      "payable": false,
      "stateMutability": "view",
      "type": "function"
    },
    {
      "constant": false,
      "inputs": [
        {
          "name": "from",
          "type": "address"
        },
        {
          "name": "to",
          "type": "address"
        },
        {
          "name": "amount",
          "type": "uint256"
        },
        {
          "name": "assetContractAddr",
          "type": "address"
        }
      ],
      "name": "transferAsset",
      "outputs": [
        {
          "name": "",
          "type": "bool"
        }
      ],
      "payable": false,
      "stateMutability": "nonpayable",
      "type": "function"
    },
    {
      "constant": true,
      "inputs": [
        {
          "name": "index",
          "type": "uint256"
        }
      ],
      "name": "getDepartmentAccAddr",
      "outputs": [
        {
          "name": "",
          "type": "address"
        }
      ],
      "payable": false,
      "stateMutability": "view",
      "type": "function"
    },
    {
      "constant": false,
      "inputs": [
        {
          "name": "_email",
          "type": "string"
        },
        {
          "name": "_accAddr",
          "type": "address"
        }
      ],
      "name": "createDepartment",
      "outputs": [],
      "payable": false,
      "stateMutability": "nonpayable",
      "type": "function"
    },
    {
      "constant": true,
      "inputs": [
        {
          "name": "email",
          "type": "string"
        }
      ],
      "name": "getAccWithEmail",
      "outputs": [
        {
          "name": "",
          "type": "address"
        }
      ],
      "payable": false,
      "stateMutability": "view",
      "type": "function"
    },
    {
      "constant": true,
      "inputs": [
        {
          "name": "_accAddr",
          "type": "address"
        }
      ],
      "name": "getDepartment",
      "outputs": [
        {
          "name": "",
          "type": "string"
        },
        {
          "name": "",
          "type": "string"
        },
        {
          "name": "",
          "type": "address"
        },
        {
          "name": "",
          "type": "address"
        }
      ],
      "payable": false,
      "stateMutability": "view",
      "type": "function"
    }
  ],
  "bytecode": "0x6060604052341561000f57600080fd5b6113f38061001e6000396000f30060606040526004361061008e576000357c0100000000000000000000000000000000000000000000000000000000900463ffffffff1680631838370914610093578063265e5bab146101715780632e0ab58f1461019a578063920138d6146101c3578063b3b8bcee1461025b578063ecb10ba7146102be578063f1cb14151461033a578063f922e6ad146103d7575b600080fd5b341561009e57600080fd5b61016f600480803590602001908201803590602001908080601f0160208091040260200160405190810160405280939291908181526020018383808284378201915050505050509190803590602001908201803590602001908080601f0160208091040260200160405190810160405280939291908181526020018383808284378201915050505050509190803573ffffffffffffffffffffffffffffffffffffffff1690602001909190803573ffffffffffffffffffffffffffffffffffffffff1690602001909190505061055b565b005b341561017c57600080fd5b61018461072d565b6040518082815260200191505060405180910390f35b34156101a557600080fd5b6101ad610739565b6040518082815260200191505060405180910390f35b34156101ce57600080fd5b610241600480803573ffffffffffffffffffffffffffffffffffffffff1690602001909190803573ffffffffffffffffffffffffffffffffffffffff1690602001909190803590602001909190803573ffffffffffffffffffffffffffffffffffffffff16906020019091905050610746565b604051808215151515815260200191505060405180910390f35b341561026657600080fd5b61027c6004808035906020019091905050610851565b604051808273ffffffffffffffffffffffffffffffffffffffff1673ffffffffffffffffffffffffffffffffffffffff16815260200191505060405180910390f35b34156102c957600080fd5b610338600480803590602001908201803590602001908080601f0160208091040260200160405190810160405280939291908181526020018383808284378201915050505050509190803573ffffffffffffffffffffffffffffffffffffffff16906020019091905050610894565b005b341561034557600080fd5b610395600480803590602001908201803590602001908080601f01602080910402602001604051908101604052809392919081815260200183838082843782019150505050505091905050610dfe565b604051808273ffffffffffffffffffffffffffffffffffffffff1673ffffffffffffffffffffffffffffffffffffffff16815260200191505060405180910390f35b34156103e257600080fd5b61040e600480803573ffffffffffffffffffffffffffffffffffffffff16906020019091905050610e93565b6040518080602001806020018573ffffffffffffffffffffffffffffffffffffffff1673ffffffffffffffffffffffffffffffffffffffff1681526020018473ffffffffffffffffffffffffffffffffffffffff1673ffffffffffffffffffffffffffffffffffffffff168152602001838103835287818151815260200191508051906020019080838360005b838110156104b657808201518184015260208101905061049b565b50505050905090810190601f1680156104e35780820380516001836020036101000a031916815260200191505b50838103825286818151815260200191508051906020019080838360005b8381101561051c578082015181840152602081019050610501565b50505050905090810190601f1680156105495780820380516001836020036101000a031916815260200191505b50965050505050505060405180910390f35b61056361114d565b6001805480600101828161057791906111ae565b91600052602060002090016000869091909150908051906020019061059d9291906111da565b50506080604051908101604052808681526020018581526020018473ffffffffffffffffffffffffffffffffffffffff1681526020018373ffffffffffffffffffffffffffffffffffffffff168152509050806002856040518082805190602001908083835b6020831015156106285780518252602082019150602081019050602083039250610603565b6001836020036101000a0380198251168184511680821785525050505050509050019150509081526020016040518091039020600082015181600001908051906020019061067792919061125a565b50602082015181600101908051906020019061069492919061125a565b5060408201518160020160006101000a81548173ffffffffffffffffffffffffffffffffffffffff021916908373ffffffffffffffffffffffffffffffffffffffff16021790555060608201518160030160006101000a81548173ffffffffffffffffffffffffffffffffffffffff021916908373ffffffffffffffffffffffffffffffffffffffff1602179055509050505050505050565b60008080549050905090565b6000600180549050905090565b6000808290508073ffffffffffffffffffffffffffffffffffffffff166323b872dd8787876000604051602001526040518463ffffffff167c0100000000000000000000000000000000000000000000000000000000028152600401808473ffffffffffffffffffffffffffffffffffffffff1673ffffffffffffffffffffffffffffffffffffffff1681526020018373ffffffffffffffffffffffffffffffffffffffff1673ffffffffffffffffffffffffffffffffffffffff1681526020018281526020019350505050602060405180830381600087803b151561082b57600080fd5b6102c65a03f1151561083c57600080fd5b50505060405180519050915050949350505050565b6000808281548110151561086157fe5b906000526020600020900160009054906101000a900473ffffffffffffffffffffffffffffffffffffffff169050919050565b61089c61114d565b600080548060010182816108b091906112da565b9160005260206000209001600084909190916101000a81548173ffffffffffffffffffffffffffffffffffffffff021916908373ffffffffffffffffffffffffffffffffffffffff160217905550506002836040518082805190602001908083835b6020831015156109375780518252602082019150602081019050602083039250610912565b6001836020036101000a038019825116818451168082178552505050505050905001915050908152602001604051809103902060806040519081016040529081600082018054600181600116156101000203166002900480601f016020809104026020016040519081016040528092919081815260200182805460018160011615610100020316600290048015610a0f5780601f106109e457610100808354040283529160200191610a0f565b820191906000526020600020905b8154815290600101906020018083116109f257829003601f168201915b50505050508152602001600182018054600181600116156101000203166002900480601f016020809104026020016040519081016040528092919081815260200182805460018160011615610100020316600290048015610ab15780601f10610a8657610100808354040283529160200191610ab1565b820191906000526020600020905b815481529060010190602001808311610a9457829003601f168201915b505050505081526020016002820160009054906101000a900473ffffffffffffffffffffffffffffffffffffffff1673ffffffffffffffffffffffffffffffffffffffff1673ffffffffffffffffffffffffffffffffffffffff1681526020016003820160009054906101000a900473ffffffffffffffffffffffffffffffffffffffff1673ffffffffffffffffffffffffffffffffffffffff1673ffffffffffffffffffffffffffffffffffffffff1681525050905080600360008473ffffffffffffffffffffffffffffffffffffffff1673ffffffffffffffffffffffffffffffffffffffff1681526020019081526020016000206000820151816000019080519060200190610bc492919061125a565b506020820151816001019080519060200190610be192919061125a565b5060408201518160020160006101000a81548173ffffffffffffffffffffffffffffffffffffffff021916908373ffffffffffffffffffffffffffffffffffffffff16021790555060608201518160030160006101000a81548173ffffffffffffffffffffffffffffffffffffffff021916908373ffffffffffffffffffffffffffffffffffffffff1602179055509050506002836040518082805190602001908083835b602083101515610cab5780518252602082019150602081019050602083039250610c86565b6001836020036101000a038019825116818451168082178552505050505050905001915050908152602001604051809103902060008082016000610cef9190611306565b600182016000610cff9190611306565b6002820160006101000a81549073ffffffffffffffffffffffffffffffffffffffff02191690556003820160006101000a81549073ffffffffffffffffffffffffffffffffffffffff02191690555050816004846040518082805190602001908083835b602083101515610d885780518252602082019150602081019050602083039250610d63565b6001836020036101000a038019825116818451168082178552505050505050905001915050908152602001604051809103902060006101000a81548173ffffffffffffffffffffffffffffffffffffffff021916908373ffffffffffffffffffffffffffffffffffffffff160217905550505050565b60006004826040518082805190602001908083835b602083101515610e385780518252602082019150602081019050602083039250610e13565b6001836020036101000a038019825116818451168082178552505050505050905001915050908152602001604051809103902060009054906101000a900473ffffffffffffffffffffffffffffffffffffffff169050919050565b610e9b61134e565b610ea361134e565b600080600080600080600360008a73ffffffffffffffffffffffffffffffffffffffff1673ffffffffffffffffffffffffffffffffffffffff1681526020019081526020016000206000019350600360008a73ffffffffffffffffffffffffffffffffffffffff1673ffffffffffffffffffffffffffffffffffffffff1681526020019081526020016000206001019250600360008a73ffffffffffffffffffffffffffffffffffffffff1673ffffffffffffffffffffffffffffffffffffffff16815260200190815260200160002060020160009054906101000a900473ffffffffffffffffffffffffffffffffffffffff169150600360008a73ffffffffffffffffffffffffffffffffffffffff1673ffffffffffffffffffffffffffffffffffffffff16815260200190815260200160002060030160009054906101000a900473ffffffffffffffffffffffffffffffffffffffff16905083838383838054600181600116156101000203166002900480601f0160208091040260200160405190810160405280929190818152602001828054600181600116156101000203166002900480156110975780601f1061106c57610100808354040283529160200191611097565b820191906000526020600020905b81548152906001019060200180831161107a57829003601f168201915b50505050509350828054600181600116156101000203166002900480601f0160208091040260200160405190810160405280929190818152602001828054600181600116156101000203166002900480156111335780601f1061110857610100808354040283529160200191611133565b820191906000526020600020905b81548152906001019060200180831161111657829003601f168201915b505050505092509750975097509750505050509193509193565b608060405190810160405280611161611362565b815260200161116e611362565b8152602001600073ffffffffffffffffffffffffffffffffffffffff168152602001600073ffffffffffffffffffffffffffffffffffffffff1681525090565b8154818355818115116111d5578183600052602060002091820191016111d49190611376565b5b505050565b828054600181600116156101000203166002900490600052602060002090601f016020900481019282601f1061121b57805160ff1916838001178555611249565b82800160010185558215611249579182015b8281111561124857825182559160200191906001019061122d565b5b50905061125691906113a2565b5090565b828054600181600116156101000203166002900490600052602060002090601f016020900481019282601f1061129b57805160ff19168380011785556112c9565b828001600101855582156112c9579182015b828111156112c85782518255916020019190600101906112ad565b5b5090506112d691906113a2565b5090565b8154818355818115116113015781836000526020600020918201910161130091906113a2565b5b505050565b50805460018160011615610100020316600290046000825580601f1061132c575061134b565b601f01602090049060005260206000209081019061134a91906113a2565b5b50565b602060405190810160405280600081525090565b602060405190810160405280600081525090565b61139f91905b8082111561139b57600081816113929190611306565b5060010161137c565b5090565b90565b6113c491905b808211156113c05760008160009055506001016113a8565b5090565b905600a165627a7a723058204ddcfc1df0cb181e9a3a2ca45649acc81e5dbbf12d5ab57a3d0856a6e147e5ec0029",
  "source": "pragma solidity ^0.4.18;\n\nimport './token/StandardToken.sol';\nimport './token/BurnableToken.sol';\nimport './token/MintableToken.sol';\nimport './math/SafeMath.sol';\n\n/**\n  * An ERC20 compliant token generator Contract with all the basic functionality of\n  * Transfer, TransferFrom, GetBalance\n  * Basic ERC20 functionality extended to included token burnability and token mintability\n**/\n\ncontract TokenizedAsset is StandardToken, BurnableToken, MintableToken {\n\n    string  public name;\n    string  public symbol;\n    uint8   public constant DECIMALS = 18;\n\n    /**\n     * Asset/Token constructor\n     *\n     * @param _name    The name of the token to be created\n     * @param _name    The symbol of the token to be created\n     */\n    function TokenizedAsset (string _name, string _symbol) payable {\n        name = _name;\n        symbol = _symbol;\n    }\n\n    /**\n     * Overrides the burn function\n     *\n     * @param _value    The amount of tokens to burn\n     */\n    function burn(uint256 _value) public {\n        super.burn(_value);\n        Transfer(msg.sender, address(0x0), _value);\n    }\n\n    /**\n     * Overrides the mint function\n     *\n     * @param _to       The beneficiary of the mint\n     * @param _value    The amount to be minted\n     */\n    function mint(address _to, uint256 _value) public returns (bool) {\n        return super.mint(_to, _value);\n    }\n\n    /**\n     * Overrides the transferFrom function\n     *\n     * @param _from    The account to transfer from\n     * @param _to    The account to transfer to\n     * @param _amount    The amount to transfer\n     */\n    function transferFrom(address _from, address _to, uint _amount) public returns (bool) {\n        return super.transferFrom(_from, _to, _amount);\n    }\n}\n\n/**\n  * A Contract to create and manage Govt. Departments that are part of some arbitrary supply/value chain\n**/\ncontract Departments {\n\n    struct Department {\n      string name;\n      string email;\n      address incomingAsset;\n      address outgoingAsset;\n    }\n\n    address[] departmentAddrs;\n    string[] tempDepartmentEmails;\n\n    mapping (string => Department) TempDepartments;\n    mapping (address => Department) Departments;\n\n    mapping (string => address) emailAccDepartment;\n\n    /**\n     * Method to create a Temp Department till an Admin consolidates it with a wallet address.\n     * Department also associated with an incoming asset/token and an outgoing asset/token which can be the same asset/token\n     *\n     * @param _name    The name of the department\n     * @param _email    The email of the department's admin\n     * @param _incomingAsset    The address of the asset/token Contract address that the department can receive from a source/department in the value chain\n     * @param _outgoingAsset    The address of the asset/token Contract address that the department can transfer out to another department in the value chain\n     */\n    function createTempDepartment(string _name, string _email, address _incomingAsset, address _outgoingAsset) public {\n        tempDepartmentEmails.push(_email);\n        Department memory d = Department(_name, _email, _incomingAsset, _outgoingAsset);\n        TempDepartments[_email] = d;\n    }\n\n    /**\n     * Method to consolidate a Department with an associated admin's wallet address.\n     * Department also associated with an incoming asset/token and an outgoing asset/token which can be the same asset/token\n     *\n     * @param _email    The email of the department's admin\n     * @param _accAddr    The wallet address the department\n     */\n    function createDepartment(string _email, address _accAddr) public {\n        departmentAddrs.push(_accAddr);\n        Department memory d = TempDepartments[_email];\n        Departments[_accAddr] = d;\n\n        delete TempDepartments[_email];\n        emailAccDepartment[_email] = _accAddr;\n    }\n\n    /**\n     * Method to get a Department using it's wallet address\n     *\n     * @param _accAddr    The wallet address the department\n     */\n    function getDepartment(address _accAddr) public constant returns(string, string, address, address) {\n        string name = Departments[_accAddr].name;\n        string email = Departments[_accAddr].email;\n        address incomingAsset = Departments[_accAddr].incomingAsset;\n        address outgoingAsset = Departments[_accAddr].outgoingAsset;\n        return(name, email, incomingAsset, outgoingAsset);\n    }\n\n    /**\n     * Method to get a Department's Wallet address from an arbitrary array\n     *\n     * @param index    The index to be fetched\n     */\n    function getDepartmentAccAddr(uint index) public constant returns (address) {\n        return departmentAddrs[index];\n    }\n\n    /**\n     * Method to get the size of the arbitrary temp department address array\n     *\n     */\n    function getTempDepartmentsSize() public constant returns (uint) {\n        return tempDepartmentEmails.length;\n    }\n\n    /**\n     * Method to get the size of the arbitrary department address array\n     *\n     */\n    function getDepartmentsSize() public constant returns (uint) {\n        return departmentAddrs.length;\n    }\n\n    /**\n     * Method to get a Department's address using the admin email\n     *\n     * @param email    The email of the admin of a specific department\n     */\n    function getAccWithEmail(string email) public constant returns (address) {\n        return emailAccDepartment[email];\n    }\n\n    /**\n     * Method to enable transfer of Asset from one source/department wallet to another department wallet\n     *\n     * @param from    The sender's wallet address\n     * @param to    The receiver's wallet address\n     * @param amount    The number of tokens to be transferred\n     * @param assetContractAddr    The asset/token contract address\n     */\n    function transferAsset(address from, address to, uint amount, address assetContractAddr) public returns (bool) {\n        TokenizedAsset asset = TokenizedAsset(assetContractAddr);\n        return asset.transferFrom(from, to, amount);\n    }\n}\n",
  "sourcePath": "/Users/mayurrelekar/dev/pista/contracts/Departments.sol",
  "compiler": {
    "name": "solc",
    "version": "0.4.18+commit.9cf6e910.Emscripten.clang"
  },
  "schemaVersion": "1.0.1",
  "updatedAt": "2018-02-01T14:58:51.464Z"
}