{
  "contractName": "Departments",
  "abi": [
    {
      "constant": false,
      "inputs": [],
      "name": "updateAssetSet",
      "outputs": [],
      "payable": false,
      "stateMutability": "nonpayable",
      "type": "function"
    },
    {
      "constant": false,
      "inputs": [],
      "name": "createDepartment",
      "outputs": [],
      "payable": false,
      "stateMutability": "nonpayable",
      "type": "function"
    }
  ],
  "bytecode": "0x6060604052341561000f57600080fd5b60a28061001d6000396000f3006060604052600436106049576000357c0100000000000000000000000000000000000000000000000000000000900463ffffffff16806328283b0c14604e578063cb30ef20146060575b600080fd5b3415605857600080fd5b605e6072565b005b3415606a57600080fd5b60706074565b005b565b5600a165627a7a7230582012b47fe3ff85c82b4e88eca62cd81a6ea982677140cc94e3382dcd19a44447030029",
  "source": "pragma solidity ^0.4.18;\n\ncontract Departments {\n\n    function createDepartment() {\n\n    }\n\n    function updateAssetSet() {\n\n    }\n}\n",
  "sourcePath": "/Users/mayurrelekar/dev/pista/contracts/Departments.sol",
  "compiler": {
    "name": "solc",
    "version": "0.4.18+commit.9cf6e910.Emscripten.clang"
  },
  "schemaVersion": "1.0.1",
  "updatedAt": "2018-01-20T14:55:31.899Z"
}