{
  "contractName": "Departments",
  "abi": [
    {
      "constant": false,
      "inputs": [
        {
          "name": "_name",
          "type": "string"
        },
        {
          "name": "_email",
          "type": "string"
        },
        {
          "name": "_incomingAsset",
          "type": "address"
        },
        {
          "name": "_outgoingAsset",
          "type": "address"
        }
      ],
      "name": "createTempDepartment",
      "outputs": [],
      "payable": false,
      "stateMutability": "nonpayable",
      "type": "function"
    },
    {
      "constant": true,
      "inputs": [],
      "name": "getDepartmentsSize",
      "outputs": [
        {
          "name": "",
          "type": "uint256"
        }
      ],
      "payable": false,
      "stateMutability": "view",
      "type": "function"
    },
    {
      "constant": true,
      "inputs": [],
      "name": "getTempDepartmentsSize",
      "outputs": [
        {
          "name": "",
          "type": "uint256"
        }
      ],
      "payable": false,
      "stateMutability": "view",
      "type": "function"
    },
    {
      "constant": false,
      "inputs": [
        {
          "name": "from",
          "type": "address"
        },
        {
          "name": "to",
          "type": "address"
        },
        {
          "name": "amount",
          "type": "uint256"
        },
        {
          "name": "assetContractAddr",
          "type": "address"
        }
      ],
      "name": "transferAsset",
      "outputs": [
        {
          "name": "",
          "type": "bool"
        }
      ],
      "payable": false,
      "stateMutability": "nonpayable",
      "type": "function"
    },
    {
      "constant": true,
      "inputs": [
        {
          "name": "index",
          "type": "uint256"
        }
      ],
      "name": "getTempDepartmentEmail",
      "outputs": [
        {
          "name": "",
          "type": "string"
        }
      ],
      "payable": false,
      "stateMutability": "view",
      "type": "function"
    },
    {
      "constant": true,
      "inputs": [
        {
          "name": "index",
          "type": "uint256"
        }
      ],
      "name": "getDepartmentAccAddr",
      "outputs": [
        {
          "name": "",
          "type": "address"
        }
      ],
      "payable": false,
      "stateMutability": "view",
      "type": "function"
    },
    {
      "constant": true,
      "inputs": [
        {
          "name": "_email",
          "type": "string"
        }
      ],
      "name": "getTempDepartment",
      "outputs": [
        {
          "name": "",
          "type": "string"
        },
        {
          "name": "",
          "type": "string"
        },
        {
          "name": "",
          "type": "address"
        },
        {
          "name": "",
          "type": "address"
        }
      ],
      "payable": false,
      "stateMutability": "view",
      "type": "function"
    },
    {
      "constant": false,
      "inputs": [
        {
          "name": "_email",
          "type": "string"
        },
        {
          "name": "_accAddr",
          "type": "address"
        }
      ],
      "name": "createDepartment",
      "outputs": [],
      "payable": false,
      "stateMutability": "nonpayable",
      "type": "function"
    },
    {
      "constant": true,
      "inputs": [
        {
          "name": "email",
          "type": "string"
        }
      ],
      "name": "getAccWithEmail",
      "outputs": [
        {
          "name": "",
          "type": "address"
        }
      ],
      "payable": false,
      "stateMutability": "view",
      "type": "function"
    },
    {
      "constant": true,
      "inputs": [
        {
          "name": "_accAddr",
          "type": "address"
        }
      ],
      "name": "getDepartment",
      "outputs": [
        {
          "name": "",
          "type": "string"
        },
        {
          "name": "",
          "type": "string"
        },
        {
          "name": "",
          "type": "address"
        },
        {
          "name": "",
          "type": "address"
        }
      ],
      "payable": false,
      "stateMutability": "view",
      "type": "function"
    }
  ],
  "bytecode": "0x6060604052341561000f57600080fd5b611a798061001e6000396000f3006060604052600436106100a4576000357c0100000000000000000000000000000000000000000000000000000000900463ffffffff16806318383709146100a9578063265e5bab146101875780632e0ab58f146101b0578063920138d6146101d9578063a93ae01914610271578063b3b8bcee1461030d578063d1beb9d314610370578063ecb10ba714610518578063f1cb141514610594578063f922e6ad14610631575b600080fd5b34156100b457600080fd5b610185600480803590602001908201803590602001908080601f0160208091040260200160405190810160405280939291908181526020018383808284378201915050505050509190803590602001908201803590602001908080601f0160208091040260200160405190810160405280939291908181526020018383808284378201915050505050509190803573ffffffffffffffffffffffffffffffffffffffff1690602001909190803573ffffffffffffffffffffffffffffffffffffffff169060200190919050506107b5565b005b341561019257600080fd5b61019a610987565b6040518082815260200191505060405180910390f35b34156101bb57600080fd5b6101c3610993565b6040518082815260200191505060405180910390f35b34156101e457600080fd5b610257600480803573ffffffffffffffffffffffffffffffffffffffff1690602001909190803573ffffffffffffffffffffffffffffffffffffffff1690602001909190803590602001909190803573ffffffffffffffffffffffffffffffffffffffff169060200190919050506109a0565b604051808215151515815260200191505060405180910390f35b341561027c57600080fd5b6102926004808035906020019091905050610aab565b6040518080602001828103825283818151815260200191508051906020019080838360005b838110156102d25780820151818401526020810190506102b7565b50505050905090810190601f1680156102ff5780820380516001836020036101000a031916815260200191505b509250505060405180910390f35b341561031857600080fd5b61032e6004808035906020019091905050610b6d565b604051808273ffffffffffffffffffffffffffffffffffffffff1673ffffffffffffffffffffffffffffffffffffffff16815260200191505060405180910390f35b341561037b57600080fd5b6103cb600480803590602001908201803590602001908080601f01602080910402602001604051908101604052809392919081815260200183838082843782019150505050505091905050610bb0565b6040518080602001806020018573ffffffffffffffffffffffffffffffffffffffff1673ffffffffffffffffffffffffffffffffffffffff1681526020018473ffffffffffffffffffffffffffffffffffffffff1673ffffffffffffffffffffffffffffffffffffffff168152602001838103835287818151815260200191508051906020019080838360005b83811015610473578082015181840152602081019050610458565b50505050905090810190601f1680156104a05780820380516001836020036101000a031916815260200191505b50838103825286818151815260200191508051906020019080838360005b838110156104d95780820151818401526020810190506104be565b50505050905090810190601f1680156105065780820380516001836020036101000a031916815260200191505b50965050505050505060405180910390f35b341561052357600080fd5b610592600480803590602001908201803590602001908080601f0160208091040260200160405190810160405280939291908181526020018383808284378201915050505050509190803573ffffffffffffffffffffffffffffffffffffffff16906020019091905050610f1a565b005b341561059f57600080fd5b6105ef600480803590602001908201803590602001908080601f01602080910402602001604051908101604052809392919081815260200183838082843782019150505050505091905050611484565b604051808273ffffffffffffffffffffffffffffffffffffffff1673ffffffffffffffffffffffffffffffffffffffff16815260200191505060405180910390f35b341561063c57600080fd5b610668600480803573ffffffffffffffffffffffffffffffffffffffff16906020019091905050611519565b6040518080602001806020018573ffffffffffffffffffffffffffffffffffffffff1673ffffffffffffffffffffffffffffffffffffffff1681526020018473ffffffffffffffffffffffffffffffffffffffff1673ffffffffffffffffffffffffffffffffffffffff168152602001838103835287818151815260200191508051906020019080838360005b838110156107105780820151818401526020810190506106f5565b50505050905090810190601f16801561073d5780820380516001836020036101000a031916815260200191505b50838103825286818151815260200191508051906020019080838360005b8381101561077657808201518184015260208101905061075b565b50505050905090810190601f1680156107a35780820380516001836020036101000a031916815260200191505b50965050505050505060405180910390f35b6107bd6117d3565b600180548060010182816107d19190611834565b9160005260206000209001600086909190915090805190602001906107f7929190611860565b50506080604051908101604052808681526020018581526020018473ffffffffffffffffffffffffffffffffffffffff1681526020018373ffffffffffffffffffffffffffffffffffffffff168152509050806002856040518082805190602001908083835b602083101515610882578051825260208201915060208101905060208303925061085d565b6001836020036101000a038019825116818451168082178552505050505050905001915050908152602001604051809103902060008201518160000190805190602001906108d19291906118e0565b5060208201518160010190805190602001906108ee9291906118e0565b5060408201518160020160006101000a81548173ffffffffffffffffffffffffffffffffffffffff021916908373ffffffffffffffffffffffffffffffffffffffff16021790555060608201518160030160006101000a81548173ffffffffffffffffffffffffffffffffffffffff021916908373ffffffffffffffffffffffffffffffffffffffff1602179055509050505050505050565b60008080549050905090565b6000600180549050905090565b6000808290508073ffffffffffffffffffffffffffffffffffffffff166323b872dd8787876000604051602001526040518463ffffffff167c0100000000000000000000000000000000000000000000000000000000028152600401808473ffffffffffffffffffffffffffffffffffffffff1673ffffffffffffffffffffffffffffffffffffffff1681526020018373ffffffffffffffffffffffffffffffffffffffff1673ffffffffffffffffffffffffffffffffffffffff1681526020018281526020019350505050602060405180830381600087803b1515610a8557600080fd5b6102c65a03f11515610a9657600080fd5b50505060405180519050915050949350505050565b610ab3611960565b600182815481101515610ac257fe5b90600052602060002090018054600181600116156101000203166002900480601f016020809104026020016040519081016040528092919081815260200182805460018160011615610100020316600290048015610b615780601f10610b3657610100808354040283529160200191610b61565b820191906000526020600020905b815481529060010190602001808311610b4457829003601f168201915b50505050509050919050565b60008082815481101515610b7d57fe5b906000526020600020900160009054906101000a900473ffffffffffffffffffffffffffffffffffffffff169050919050565b610bb8611960565b610bc0611960565b6000806000806000806002896040518082805190602001908083835b602083101515610c015780518252602082019150602081019050602083039250610bdc565b6001836020036101000a038019825116818451168082178552505050505050905001915050908152602001604051809103902060000193506002896040518082805190602001908083835b602083101515610c715780518252602082019150602081019050602083039250610c4c565b6001836020036101000a038019825116818451168082178552505050505050905001915050908152602001604051809103902060010192506002896040518082805190602001908083835b602083101515610ce15780518252602082019150602081019050602083039250610cbc565b6001836020036101000a038019825116818451168082178552505050505050905001915050908152602001604051809103902060020160009054906101000a900473ffffffffffffffffffffffffffffffffffffffff1691506002896040518082805190602001908083835b602083101515610d725780518252602082019150602081019050602083039250610d4d565b6001836020036101000a038019825116818451168082178552505050505050905001915050908152602001604051809103902060030160009054906101000a900473ffffffffffffffffffffffffffffffffffffffff16905083838383838054600181600116156101000203166002900480601f016020809104026020016040519081016040528092919081815260200182805460018160011615610100020316600290048015610e645780601f10610e3957610100808354040283529160200191610e64565b820191906000526020600020905b815481529060010190602001808311610e4757829003601f168201915b50505050509350828054600181600116156101000203166002900480601f016020809104026020016040519081016040528092919081815260200182805460018160011615610100020316600290048015610f005780601f10610ed557610100808354040283529160200191610f00565b820191906000526020600020905b815481529060010190602001808311610ee357829003601f168201915b505050505092509750975097509750505050509193509193565b610f226117d3565b60008054806001018281610f369190611974565b9160005260206000209001600084909190916101000a81548173ffffffffffffffffffffffffffffffffffffffff021916908373ffffffffffffffffffffffffffffffffffffffff160217905550506002836040518082805190602001908083835b602083101515610fbd5780518252602082019150602081019050602083039250610f98565b6001836020036101000a038019825116818451168082178552505050505050905001915050908152602001604051809103902060806040519081016040529081600082018054600181600116156101000203166002900480601f0160208091040260200160405190810160405280929190818152602001828054600181600116156101000203166002900480156110955780601f1061106a57610100808354040283529160200191611095565b820191906000526020600020905b81548152906001019060200180831161107857829003601f168201915b50505050508152602001600182018054600181600116156101000203166002900480601f0160208091040260200160405190810160405280929190818152602001828054600181600116156101000203166002900480156111375780601f1061110c57610100808354040283529160200191611137565b820191906000526020600020905b81548152906001019060200180831161111a57829003601f168201915b505050505081526020016002820160009054906101000a900473ffffffffffffffffffffffffffffffffffffffff1673ffffffffffffffffffffffffffffffffffffffff1673ffffffffffffffffffffffffffffffffffffffff1681526020016003820160009054906101000a900473ffffffffffffffffffffffffffffffffffffffff1673ffffffffffffffffffffffffffffffffffffffff1673ffffffffffffffffffffffffffffffffffffffff1681525050905080600360008473ffffffffffffffffffffffffffffffffffffffff1673ffffffffffffffffffffffffffffffffffffffff168152602001908152602001600020600082015181600001908051906020019061124a9291906118e0565b5060208201518160010190805190602001906112679291906118e0565b5060408201518160020160006101000a81548173ffffffffffffffffffffffffffffffffffffffff021916908373ffffffffffffffffffffffffffffffffffffffff16021790555060608201518160030160006101000a81548173ffffffffffffffffffffffffffffffffffffffff021916908373ffffffffffffffffffffffffffffffffffffffff1602179055509050506002836040518082805190602001908083835b602083101515611331578051825260208201915060208101905060208303925061130c565b6001836020036101000a03801982511681845116808217855250505050505090500191505090815260200160405180910390206000808201600061137591906119a0565b60018201600061138591906119a0565b6002820160006101000a81549073ffffffffffffffffffffffffffffffffffffffff02191690556003820160006101000a81549073ffffffffffffffffffffffffffffffffffffffff02191690555050816004846040518082805190602001908083835b60208310151561140e57805182526020820191506020810190506020830392506113e9565b6001836020036101000a038019825116818451168082178552505050505050905001915050908152602001604051809103902060006101000a81548173ffffffffffffffffffffffffffffffffffffffff021916908373ffffffffffffffffffffffffffffffffffffffff160217905550505050565b60006004826040518082805190602001908083835b6020831015156114be5780518252602082019150602081019050602083039250611499565b6001836020036101000a038019825116818451168082178552505050505050905001915050908152602001604051809103902060009054906101000a900473ffffffffffffffffffffffffffffffffffffffff169050919050565b611521611960565b611529611960565b600080600080600080600360008a73ffffffffffffffffffffffffffffffffffffffff1673ffffffffffffffffffffffffffffffffffffffff1681526020019081526020016000206000019350600360008a73ffffffffffffffffffffffffffffffffffffffff1673ffffffffffffffffffffffffffffffffffffffff1681526020019081526020016000206001019250600360008a73ffffffffffffffffffffffffffffffffffffffff1673ffffffffffffffffffffffffffffffffffffffff16815260200190815260200160002060020160009054906101000a900473ffffffffffffffffffffffffffffffffffffffff169150600360008a73ffffffffffffffffffffffffffffffffffffffff1673ffffffffffffffffffffffffffffffffffffffff16815260200190815260200160002060030160009054906101000a900473ffffffffffffffffffffffffffffffffffffffff16905083838383838054600181600116156101000203166002900480601f01602080910402602001604051908101604052809291908181526020018280546001816001161561010002031660029004801561171d5780601f106116f25761010080835404028352916020019161171d565b820191906000526020600020905b81548152906001019060200180831161170057829003601f168201915b50505050509350828054600181600116156101000203166002900480601f0160208091040260200160405190810160405280929190818152602001828054600181600116156101000203166002900480156117b95780601f1061178e576101008083540402835291602001916117b9565b820191906000526020600020905b81548152906001019060200180831161179c57829003601f168201915b505050505092509750975097509750505050509193509193565b6080604051908101604052806117e76119e8565b81526020016117f46119e8565b8152602001600073ffffffffffffffffffffffffffffffffffffffff168152602001600073ffffffffffffffffffffffffffffffffffffffff1681525090565b81548183558181151161185b5781836000526020600020918201910161185a91906119fc565b5b505050565b828054600181600116156101000203166002900490600052602060002090601f016020900481019282601f106118a157805160ff19168380011785556118cf565b828001600101855582156118cf579182015b828111156118ce5782518255916020019190600101906118b3565b5b5090506118dc9190611a28565b5090565b828054600181600116156101000203166002900490600052602060002090601f016020900481019282601f1061192157805160ff191683800117855561194f565b8280016001018555821561194f579182015b8281111561194e578251825591602001919060010190611933565b5b50905061195c9190611a28565b5090565b602060405190810160405280600081525090565b81548183558181151161199b5781836000526020600020918201910161199a9190611a28565b5b505050565b50805460018160011615610100020316600290046000825580601f106119c657506119e5565b601f0160209004906000526020600020908101906119e49190611a28565b5b50565b602060405190810160405280600081525090565b611a2591905b80821115611a215760008181611a1891906119a0565b50600101611a02565b5090565b90565b611a4a91905b80821115611a46576000816000905550600101611a2e565b5090565b905600a165627a7a723058208b3fbdf333dd1db81be9157bf95cf2539a1f3c7a046f8e5a5de3fa2c2f2be7150029",
  "source": "pragma solidity ^0.4.18;\n\nimport './token/StandardToken.sol';\nimport './token/BurnableToken.sol';\nimport './token/MintableToken.sol';\nimport './math/SafeMath.sol';\n\n/**\n  * An ERC20 compliant token generator Contract with all the basic functionality of\n  * Transfer, TransferFrom, GetBalance\n  * Basic ERC20 functionality extended to included token burnability and token mintability\n**/\n\ncontract TokenizedAsset is StandardToken, BurnableToken, MintableToken {\n\n    string  public name;\n    string  public symbol;\n    uint8   public constant DECIMALS = 18;\n\n    /**\n     * Asset/Token constructor\n     *\n     * @param _name    The name of the token to be created\n     * @param _name    The symbol of the token to be created\n     */\n    function TokenizedAsset (string _name, string _symbol) public payable {\n        name = _name;\n        symbol = _symbol;\n    }\n\n    // /**\n    //  * Overrides the burn function\n    //  *\n    //  * @param _value    The amount of tokens to burn\n    //  */\n    // function burn(uint256 _value) public {\n    //     super.burn(_value);\n    //     Transfer(msg.sender, address(0x0), _value);\n    // }\n\n    // /**\n    //  * Overrides the mint function\n    //  *\n    //  * @param _to       The beneficiary of the mint\n    //  * @param _value    The amount to be minted\n    //  */\n    // function mint(address _to, uint256 _value) public returns (bool) {\n    //     return super.mint(_to, _value);\n    // }\n\n    // /**\n    //  * Overrides the transferFrom function\n    //  *\n    //  * @param _from    The account to transfer from\n    //  * @param _to    The account to transfer to\n    //  * @param _amount    The amount to transfer\n    //  */\n    // function transferFrom(address _from, address _to, uint _amount) public returns (bool) {\n    //     return super.transferFrom(_from, _to, _amount);\n    // }\n}\n\n/**\n  * A Contract to create and manage Govt. Departments that are part of some arbitrary supply/value chain\n**/\ncontract Departments {\n\n    struct Department {\n      string name;\n      string email;\n      address incomingAsset;\n      address outgoingAsset;\n    }\n\n    address[] departmentAddrs;\n    string[] tempDepartmentEmails;\n\n    mapping (string => Department) TempDepartments;\n    mapping (address => Department) Departments;\n\n    mapping (string => address) emailAccDepartment;\n\n    /**\n     * Method to create a Temp Department till an Admin consolidates it with a wallet address.\n     * Department also associated with an incoming asset/token and an outgoing asset/token which can be the same asset/token\n     *\n     * @param _name    The name of the department\n     * @param _email    The email of the department's admin\n     * @param _incomingAsset    The address of the asset/token Contract address that the department can receive from a source/department in the value chain\n     * @param _outgoingAsset    The address of the asset/token Contract address that the department can transfer out to another department in the value chain\n     */\n    function createTempDepartment(string _name, string _email, address _incomingAsset, address _outgoingAsset) public {\n        tempDepartmentEmails.push(_email);\n        Department memory d = Department(_name, _email, _incomingAsset, _outgoingAsset);\n        TempDepartments[_email] = d;\n    }\n\n    /**\n     * Method to consolidate a Department with an associated admin's wallet address.\n     * Department also associated with an incoming asset/token and an outgoing asset/token which can be the same asset/token\n     *\n     * @param _email    The email of the department's admin\n     * @param _accAddr    The wallet address the department\n     */\n    function createDepartment(string _email, address _accAddr) public {\n        departmentAddrs.push(_accAddr);\n        Department memory d = TempDepartments[_email];\n        Departments[_accAddr] = d;\n\n        delete TempDepartments[_email];\n        emailAccDepartment[_email] = _accAddr;\n    }\n\n    /**\n     * Method to get a Temp Department using it's email\n     *\n     * @param _email    The email the department\n     */\n    function getTempDepartment(string _email) public constant returns(string, string, address, address) {\n        string name = TempDepartments[_email].name;\n        string email = TempDepartments[_email].email;\n        address incomingAsset = TempDepartments[_email].incomingAsset;\n        address outgoingAsset = TempDepartments[_email].outgoingAsset;\n        return(name, email, incomingAsset, outgoingAsset);\n    }\n\n    /**\n     * Method to get a Department using it's wallet address\n     *\n     * @param _accAddr    The wallet address the department\n     */\n    function getDepartment(address _accAddr) public constant returns(string, string, address, address) {\n        string name = Departments[_accAddr].name;\n        string email = Departments[_accAddr].email;\n        address incomingAsset = Departments[_accAddr].incomingAsset;\n        address outgoingAsset = Departments[_accAddr].outgoingAsset;\n        return(name, email, incomingAsset, outgoingAsset);\n    }\n\n    /**\n     * Method to get a Temp Department's Email from an arbitrary array\n     *\n     * @param index    The index to be fetched\n     */\n    function getTempDepartmentEmail(uint index) public constant returns (string) {\n        return tempDepartmentEmails[index];\n    }\n\n    /**\n     * Method to get a Department's Wallet address from an arbitrary array\n     *\n     * @param index    The index to be fetched\n     */\n    function getDepartmentAccAddr(uint index) public constant returns (address) {\n        return departmentAddrs[index];\n    }\n\n    /**\n     * Method to get the size of the arbitrary temp department address array\n     *\n     */\n    function getTempDepartmentsSize() public constant returns (uint) {\n        return tempDepartmentEmails.length;\n    }\n\n    /**\n     * Method to get the size of the arbitrary department address array\n     *\n     */\n    function getDepartmentsSize() public constant returns (uint) {\n        return departmentAddrs.length;\n    }\n\n    /**\n     * Method to get a Department's address using the admin email\n     *\n     * @param email    The email of the admin of a specific department\n     */\n    function getAccWithEmail(string email) public constant returns (address) {\n        return emailAccDepartment[email];\n    }\n\n    /**\n     * Method to enable transfer of Asset from one source/department wallet to another department wallet\n     *\n     * @param from    The sender's wallet address\n     * @param to    The receiver's wallet address\n     * @param amount    The number of tokens to be transferred\n     * @param assetContractAddr    The asset/token contract address\n     */\n    function transferAsset(address from, address to, uint amount, address assetContractAddr) public returns (bool) {\n        TokenizedAsset asset = TokenizedAsset(assetContractAddr);\n        return asset.transferFrom(from, to, amount);\n    }\n}\n",
  "sourcePath": "/Users/mayurrelekar/dev/pista/contracts/Departments.sol",
  "compiler": {
    "name": "solc",
    "version": "0.4.18+commit.9cf6e910.Emscripten.clang"
  },
  "schemaVersion": "1.0.1",
  "updatedAt": "2018-02-13T06:30:05.537Z"
}