{
  "contractName": "Departments",
  "abi": [
    {
      "constant": true,
      "inputs": [],
      "name": "getDepartmentsSize",
      "outputs": [
        {
          "name": "",
          "type": "uint256"
        }
      ],
      "payable": false,
      "stateMutability": "view",
      "type": "function"
    },
    {
      "constant": true,
      "inputs": [
        {
          "name": "index",
          "type": "uint8"
        }
      ],
      "name": "getDepartmentAccAddr",
      "outputs": [
        {
          "name": "",
          "type": "address"
        }
      ],
      "payable": false,
      "stateMutability": "view",
      "type": "function"
    },
    {
      "constant": false,
      "inputs": [
        {
          "name": "_name",
          "type": "string"
        },
        {
          "name": "_email",
          "type": "string"
        },
        {
          "name": "_incomingAsset",
          "type": "address"
        },
        {
          "name": "_outgoingAsset",
          "type": "address"
        },
        {
          "name": "_accAddr",
          "type": "address"
        }
      ],
      "name": "createDepartment",
      "outputs": [],
      "payable": false,
      "stateMutability": "nonpayable",
      "type": "function"
    },
    {
      "constant": true,
      "inputs": [
        {
          "name": "email",
          "type": "string"
        }
      ],
      "name": "getAccWithEmail",
      "outputs": [
        {
          "name": "",
          "type": "address"
        }
      ],
      "payable": false,
      "stateMutability": "view",
      "type": "function"
    },
    {
      "constant": true,
      "inputs": [
        {
          "name": "_accAddr",
          "type": "address"
        }
      ],
      "name": "getDepartment",
      "outputs": [
        {
          "name": "",
          "type": "string"
        },
        {
          "name": "",
          "type": "string"
        },
        {
          "name": "",
          "type": "address"
        },
        {
          "name": "",
          "type": "address"
        }
      ],
      "payable": false,
      "stateMutability": "view",
      "type": "function"
    }
  ],
  "bytecode": "0x6060604052341561000f57600080fd5b610b148061001e6000396000f30060606040526004361061006d576000357c0100000000000000000000000000000000000000000000000000000000900463ffffffff168063265e5bab146100725780637e49a2ae1461009b578063a3d5a34914610101578063f1cb1415146101fe578063f922e6ad1461029b575b600080fd5b341561007d57600080fd5b61008561041f565b6040518082815260200191505060405180910390f35b34156100a657600080fd5b6100bf600480803560ff1690602001909190505061042b565b604051808273ffffffffffffffffffffffffffffffffffffffff1673ffffffffffffffffffffffffffffffffffffffff16815260200191505060405180910390f35b341561010c57600080fd5b6101fc600480803590602001908201803590602001908080601f0160208091040260200160405190810160405280939291908181526020018383808284378201915050505050509190803590602001908201803590602001908080601f0160208091040260200160405190810160405280939291908181526020018383808284378201915050505050509190803573ffffffffffffffffffffffffffffffffffffffff1690602001909190803573ffffffffffffffffffffffffffffffffffffffff1690602001909190803573ffffffffffffffffffffffffffffffffffffffff16906020019091905050610471565b005b341561020957600080fd5b610259600480803590602001908201803590602001908080601f0160208091040260200160405190810160405280939291908181526020018383808284378201915050505050509190505061063f565b604051808273ffffffffffffffffffffffffffffffffffffffff1673ffffffffffffffffffffffffffffffffffffffff16815260200191505060405180910390f35b34156102a657600080fd5b6102d2600480803573ffffffffffffffffffffffffffffffffffffffff169060200190919050506106d4565b6040518080602001806020018573ffffffffffffffffffffffffffffffffffffffff1673ffffffffffffffffffffffffffffffffffffffff1681526020018473ffffffffffffffffffffffffffffffffffffffff1673ffffffffffffffffffffffffffffffffffffffff168152602001838103835287818151815260200191508051906020019080838360005b8381101561037a57808201518184015260208101905061035f565b50505050905090810190601f1680156103a75780820380516001836020036101000a031916815260200191505b50838103825286818151815260200191508051906020019080838360005b838110156103e05780820151818401526020810190506103c5565b50505050905090810190601f16801561040d5780820380516001836020036101000a031916815260200191505b50965050505050505060405180910390f35b60008080549050905090565b6000808260ff1681548110151561043e57fe5b906000526020600020900160009054906101000a900473ffffffffffffffffffffffffffffffffffffffff169050919050565b61047961098e565b6000805480600101828161048d91906109ef565b9160005260206000209001600084909190916101000a81548173ffffffffffffffffffffffffffffffffffffffff021916908373ffffffffffffffffffffffffffffffffffffffff160217905550506080604051908101604052808781526020018681526020018573ffffffffffffffffffffffffffffffffffffffff1681526020018473ffffffffffffffffffffffffffffffffffffffff16815250905080600160008473ffffffffffffffffffffffffffffffffffffffff1673ffffffffffffffffffffffffffffffffffffffff1681526020019081526020016000206000820151816000019080519060200190610588929190610a1b565b5060208201518160010190805190602001906105a5929190610a1b565b5060408201518160020160006101000a81548173ffffffffffffffffffffffffffffffffffffffff021916908373ffffffffffffffffffffffffffffffffffffffff16021790555060608201518160030160006101000a81548173ffffffffffffffffffffffffffffffffffffffff021916908373ffffffffffffffffffffffffffffffffffffffff160217905550905050505050505050565b60006002826040518082805190602001908083835b6020831015156106795780518252602082019150602081019050602083039250610654565b6001836020036101000a038019825116818451168082178552505050505050905001915050908152602001604051809103902060009054906101000a900473ffffffffffffffffffffffffffffffffffffffff169050919050565b6106dc610a9b565b6106e4610a9b565b600080600080600080600160008a73ffffffffffffffffffffffffffffffffffffffff1673ffffffffffffffffffffffffffffffffffffffff1681526020019081526020016000206000019350600160008a73ffffffffffffffffffffffffffffffffffffffff1673ffffffffffffffffffffffffffffffffffffffff1681526020019081526020016000206001019250600160008a73ffffffffffffffffffffffffffffffffffffffff1673ffffffffffffffffffffffffffffffffffffffff16815260200190815260200160002060020160009054906101000a900473ffffffffffffffffffffffffffffffffffffffff169150600160008a73ffffffffffffffffffffffffffffffffffffffff1673ffffffffffffffffffffffffffffffffffffffff16815260200190815260200160002060030160009054906101000a900473ffffffffffffffffffffffffffffffffffffffff16905083838383838054600181600116156101000203166002900480601f0160208091040260200160405190810160405280929190818152602001828054600181600116156101000203166002900480156108d85780601f106108ad576101008083540402835291602001916108d8565b820191906000526020600020905b8154815290600101906020018083116108bb57829003601f168201915b50505050509350828054600181600116156101000203166002900480601f0160208091040260200160405190810160405280929190818152602001828054600181600116156101000203166002900480156109745780601f1061094957610100808354040283529160200191610974565b820191906000526020600020905b81548152906001019060200180831161095757829003601f168201915b505050505092509750975097509750505050509193509193565b6080604051908101604052806109a2610aaf565b81526020016109af610aaf565b8152602001600073ffffffffffffffffffffffffffffffffffffffff168152602001600073ffffffffffffffffffffffffffffffffffffffff1681525090565b815481835581811511610a1657818360005260206000209182019101610a159190610ac3565b5b505050565b828054600181600116156101000203166002900490600052602060002090601f016020900481019282601f10610a5c57805160ff1916838001178555610a8a565b82800160010185558215610a8a579182015b82811115610a89578251825591602001919060010190610a6e565b5b509050610a979190610ac3565b5090565b602060405190810160405280600081525090565b602060405190810160405280600081525090565b610ae591905b80821115610ae1576000816000905550600101610ac9565b5090565b905600a165627a7a723058209b6a3af60a5f92fd29e8c18232d45948fdea8b6ac1ce851b601cd2eab02f97710029",
  "source": "pragma solidity ^0.4.18;\n\nimport './math/SafeMath.sol';\n\ncontract Departments {\n\n    struct Department {\n      string name;\n      string email;\n      address incomingAsset;\n      address outgoingAsset;\n    }\n\n    address[] departmentAddrs;\n\n    mapping (address => Department) Departments;\n\n    mapping (string => address) emailAccDepartment;\n\n    function createDepartment(string _name, string _email, address _incomingAsset, address _outgoingAsset, address _accAddr) {\n        departmentAddrs.push(_accAddr);\n\n        Department memory d = Department(_name, _email, _incomingAsset, _outgoingAsset);\n        Departments[_accAddr] = d;\n    }\n\n    function getDepartment(address _accAddr) constant returns(string, string, address, address) {\n        string name = Departments[_accAddr].name;\n        string email = Departments[_accAddr].email;\n        address incomingAsset = Departments[_accAddr].incomingAsset;\n        address outgoingAsset = Departments[_accAddr].outgoingAsset;\n        return(name, email, incomingAsset, outgoingAsset);\n    }\n\n    function getDepartmentAccAddr(uint8 index) constant returns (address) {\n        return departmentAddrs[index];\n    }\n\n    function getDepartmentsSize() constant returns (uint) {\n        return departmentAddrs.length;\n    }\n\n    function getAccWithEmail(string email) constant returns (address) {\n        return emailAccDepartment[email];\n    }\n}\n",
  "sourcePath": "/Users/mayurrelekar/dev/pista/contracts/Departments.sol",
  "compiler": {
    "name": "solc",
    "version": "0.4.18+commit.9cf6e910.Emscripten.clang"
  },
  "schemaVersion": "1.0.1",
  "updatedAt": "2018-01-21T07:33:11.817Z"
}