{
  "contractName": "Departments",
  "abi": [
    {
      "constant": false,
      "inputs": [
        {
          "name": "_name",
          "type": "string"
        },
        {
          "name": "_email",
          "type": "string"
        },
        {
          "name": "_incomingAsset",
          "type": "address"
        },
        {
          "name": "_outgoingAsset",
          "type": "address"
        }
      ],
      "name": "createTempDepartment",
      "outputs": [],
      "payable": false,
      "stateMutability": "nonpayable",
      "type": "function"
    },
    {
      "constant": true,
      "inputs": [],
      "name": "getDepartmentsSize",
      "outputs": [
        {
          "name": "",
          "type": "uint256"
        }
      ],
      "payable": false,
      "stateMutability": "view",
      "type": "function"
    },
    {
      "constant": false,
      "inputs": [
        {
          "name": "from",
          "type": "address"
        },
        {
          "name": "to",
          "type": "address"
        },
        {
          "name": "amount",
          "type": "uint256"
        },
        {
          "name": "assetContractAddr",
          "type": "address"
        }
      ],
      "name": "transferAsset",
      "outputs": [
        {
          "name": "",
          "type": "bool"
        }
      ],
      "payable": false,
      "stateMutability": "nonpayable",
      "type": "function"
    },
    {
      "constant": true,
      "inputs": [
        {
          "name": "index",
          "type": "uint256"
        }
      ],
      "name": "getDepartmentAccAddr",
      "outputs": [
        {
          "name": "",
          "type": "address"
        }
      ],
      "payable": false,
      "stateMutability": "view",
      "type": "function"
    },
    {
      "constant": false,
      "inputs": [
        {
          "name": "_email",
          "type": "string"
        },
        {
          "name": "_accAddr",
          "type": "address"
        }
      ],
      "name": "createDepartment",
      "outputs": [],
      "payable": false,
      "stateMutability": "nonpayable",
      "type": "function"
    },
    {
      "constant": true,
      "inputs": [
        {
          "name": "email",
          "type": "string"
        }
      ],
      "name": "getAccWithEmail",
      "outputs": [
        {
          "name": "",
          "type": "address"
        }
      ],
      "payable": false,
      "stateMutability": "view",
      "type": "function"
    },
    {
      "constant": true,
      "inputs": [
        {
          "name": "_accAddr",
          "type": "address"
        }
      ],
      "name": "getDepartment",
      "outputs": [
        {
          "name": "",
          "type": "string"
        },
        {
          "name": "",
          "type": "string"
        },
        {
          "name": "",
          "type": "address"
        },
        {
          "name": "",
          "type": "address"
        }
      ],
      "payable": false,
      "stateMutability": "view",
      "type": "function"
    }
  ],
  "bytecode": "0x6060604052341561000f57600080fd5b61129e8061001e6000396000f300606060405260043610610083576000357c0100000000000000000000000000000000000000000000000000000000900463ffffffff1680631838370914610088578063265e5bab14610166578063920138d61461018f578063b3b8bcee14610227578063ecb10ba71461028a578063f1cb141514610306578063f922e6ad146103a3575b600080fd5b341561009357600080fd5b610164600480803590602001908201803590602001908080601f0160208091040260200160405190810160405280939291908181526020018383808284378201915050505050509190803590602001908201803590602001908080601f0160208091040260200160405190810160405280939291908181526020018383808284378201915050505050509190803573ffffffffffffffffffffffffffffffffffffffff1690602001909190803573ffffffffffffffffffffffffffffffffffffffff16906020019091905050610527565b005b341561017157600080fd5b6101796106bd565b6040518082815260200191505060405180910390f35b341561019a57600080fd5b61020d600480803573ffffffffffffffffffffffffffffffffffffffff1690602001909190803573ffffffffffffffffffffffffffffffffffffffff1690602001909190803590602001909190803573ffffffffffffffffffffffffffffffffffffffff169060200190919050506106c9565b604051808215151515815260200191505060405180910390f35b341561023257600080fd5b61024860048080359060200190919050506107d4565b604051808273ffffffffffffffffffffffffffffffffffffffff1673ffffffffffffffffffffffffffffffffffffffff16815260200191505060405180910390f35b341561029557600080fd5b610304600480803590602001908201803590602001908080601f0160208091040260200160405190810160405280939291908181526020018383808284378201915050505050509190803573ffffffffffffffffffffffffffffffffffffffff16906020019091905050610817565b005b341561031157600080fd5b610361600480803590602001908201803590602001908080601f01602080910402602001604051908101604052809392919081815260200183838082843782019150505050505091905050610d81565b604051808273ffffffffffffffffffffffffffffffffffffffff1673ffffffffffffffffffffffffffffffffffffffff16815260200191505060405180910390f35b34156103ae57600080fd5b6103da600480803573ffffffffffffffffffffffffffffffffffffffff16906020019091905050610e16565b6040518080602001806020018573ffffffffffffffffffffffffffffffffffffffff1673ffffffffffffffffffffffffffffffffffffffff1681526020018473ffffffffffffffffffffffffffffffffffffffff1673ffffffffffffffffffffffffffffffffffffffff168152602001838103835287818151815260200191508051906020019080838360005b83811015610482578082015181840152602081019050610467565b50505050905090810190601f1680156104af5780820380516001836020036101000a031916815260200191505b50838103825286818151815260200191508051906020019080838360005b838110156104e85780820151818401526020810190506104cd565b50505050905090810190601f1680156105155780820380516001836020036101000a031916815260200191505b50965050505050505060405180910390f35b61052f6110d0565b6080604051908101604052808681526020018581526020018473ffffffffffffffffffffffffffffffffffffffff1681526020018373ffffffffffffffffffffffffffffffffffffffff168152509050806001856040518082805190602001908083835b6020831015156105b85780518252602082019150602081019050602083039250610593565b6001836020036101000a03801982511681845116808217855250505050505090500191505090815260200160405180910390206000820151816000019080519060200190610607929190611131565b506020820151816001019080519060200190610624929190611131565b5060408201518160020160006101000a81548173ffffffffffffffffffffffffffffffffffffffff021916908373ffffffffffffffffffffffffffffffffffffffff16021790555060608201518160030160006101000a81548173ffffffffffffffffffffffffffffffffffffffff021916908373ffffffffffffffffffffffffffffffffffffffff1602179055509050505050505050565b60008080549050905090565b6000808290508073ffffffffffffffffffffffffffffffffffffffff166323b872dd8787876000604051602001526040518463ffffffff167c0100000000000000000000000000000000000000000000000000000000028152600401808473ffffffffffffffffffffffffffffffffffffffff1673ffffffffffffffffffffffffffffffffffffffff1681526020018373ffffffffffffffffffffffffffffffffffffffff1673ffffffffffffffffffffffffffffffffffffffff1681526020018281526020019350505050602060405180830381600087803b15156107ae57600080fd5b6102c65a03f115156107bf57600080fd5b50505060405180519050915050949350505050565b600080828154811015156107e457fe5b906000526020600020900160009054906101000a900473ffffffffffffffffffffffffffffffffffffffff169050919050565b61081f6110d0565b6000805480600101828161083391906111b1565b9160005260206000209001600084909190916101000a81548173ffffffffffffffffffffffffffffffffffffffff021916908373ffffffffffffffffffffffffffffffffffffffff160217905550506001836040518082805190602001908083835b6020831015156108ba5780518252602082019150602081019050602083039250610895565b6001836020036101000a038019825116818451168082178552505050505050905001915050908152602001604051809103902060806040519081016040529081600082018054600181600116156101000203166002900480601f0160208091040260200160405190810160405280929190818152602001828054600181600116156101000203166002900480156109925780601f1061096757610100808354040283529160200191610992565b820191906000526020600020905b81548152906001019060200180831161097557829003601f168201915b50505050508152602001600182018054600181600116156101000203166002900480601f016020809104026020016040519081016040528092919081815260200182805460018160011615610100020316600290048015610a345780601f10610a0957610100808354040283529160200191610a34565b820191906000526020600020905b815481529060010190602001808311610a1757829003601f168201915b505050505081526020016002820160009054906101000a900473ffffffffffffffffffffffffffffffffffffffff1673ffffffffffffffffffffffffffffffffffffffff1673ffffffffffffffffffffffffffffffffffffffff1681526020016003820160009054906101000a900473ffffffffffffffffffffffffffffffffffffffff1673ffffffffffffffffffffffffffffffffffffffff1673ffffffffffffffffffffffffffffffffffffffff1681525050905080600260008473ffffffffffffffffffffffffffffffffffffffff1673ffffffffffffffffffffffffffffffffffffffff1681526020019081526020016000206000820151816000019080519060200190610b47929190611131565b506020820151816001019080519060200190610b64929190611131565b5060408201518160020160006101000a81548173ffffffffffffffffffffffffffffffffffffffff021916908373ffffffffffffffffffffffffffffffffffffffff16021790555060608201518160030160006101000a81548173ffffffffffffffffffffffffffffffffffffffff021916908373ffffffffffffffffffffffffffffffffffffffff1602179055509050506001836040518082805190602001908083835b602083101515610c2e5780518252602082019150602081019050602083039250610c09565b6001836020036101000a038019825116818451168082178552505050505050905001915050908152602001604051809103902060008082016000610c7291906111dd565b600182016000610c8291906111dd565b6002820160006101000a81549073ffffffffffffffffffffffffffffffffffffffff02191690556003820160006101000a81549073ffffffffffffffffffffffffffffffffffffffff02191690555050816003846040518082805190602001908083835b602083101515610d0b5780518252602082019150602081019050602083039250610ce6565b6001836020036101000a038019825116818451168082178552505050505050905001915050908152602001604051809103902060006101000a81548173ffffffffffffffffffffffffffffffffffffffff021916908373ffffffffffffffffffffffffffffffffffffffff160217905550505050565b60006003826040518082805190602001908083835b602083101515610dbb5780518252602082019150602081019050602083039250610d96565b6001836020036101000a038019825116818451168082178552505050505050905001915050908152602001604051809103902060009054906101000a900473ffffffffffffffffffffffffffffffffffffffff169050919050565b610e1e611225565b610e26611225565b600080600080600080600260008a73ffffffffffffffffffffffffffffffffffffffff1673ffffffffffffffffffffffffffffffffffffffff1681526020019081526020016000206000019350600260008a73ffffffffffffffffffffffffffffffffffffffff1673ffffffffffffffffffffffffffffffffffffffff1681526020019081526020016000206001019250600260008a73ffffffffffffffffffffffffffffffffffffffff1673ffffffffffffffffffffffffffffffffffffffff16815260200190815260200160002060020160009054906101000a900473ffffffffffffffffffffffffffffffffffffffff169150600260008a73ffffffffffffffffffffffffffffffffffffffff1673ffffffffffffffffffffffffffffffffffffffff16815260200190815260200160002060030160009054906101000a900473ffffffffffffffffffffffffffffffffffffffff16905083838383838054600181600116156101000203166002900480601f01602080910402602001604051908101604052809291908181526020018280546001816001161561010002031660029004801561101a5780601f10610fef5761010080835404028352916020019161101a565b820191906000526020600020905b815481529060010190602001808311610ffd57829003601f168201915b50505050509350828054600181600116156101000203166002900480601f0160208091040260200160405190810160405280929190818152602001828054600181600116156101000203166002900480156110b65780601f1061108b576101008083540402835291602001916110b6565b820191906000526020600020905b81548152906001019060200180831161109957829003601f168201915b505050505092509750975097509750505050509193509193565b6080604051908101604052806110e4611239565b81526020016110f1611239565b8152602001600073ffffffffffffffffffffffffffffffffffffffff168152602001600073ffffffffffffffffffffffffffffffffffffffff1681525090565b828054600181600116156101000203166002900490600052602060002090601f016020900481019282601f1061117257805160ff19168380011785556111a0565b828001600101855582156111a0579182015b8281111561119f578251825591602001919060010190611184565b5b5090506111ad919061124d565b5090565b8154818355818115116111d8578183600052602060002091820191016111d7919061124d565b5b505050565b50805460018160011615610100020316600290046000825580601f106112035750611222565b601f016020900490600052602060002090810190611221919061124d565b5b50565b602060405190810160405280600081525090565b602060405190810160405280600081525090565b61126f91905b8082111561126b576000816000905550600101611253565b5090565b905600a165627a7a72305820d4fdaa410925db2249be5f156fe2da7e24789fa7b80cf1d05fde2cc10c6c49b90029",
  "source": "pragma solidity ^0.4.18;\n\nimport './token/StandardToken.sol';\nimport './token/BurnableToken.sol';\nimport './token/MintableToken.sol';\nimport './math/SafeMath.sol';\n\n/**\n  * An ERC20 compliant token generator Contract with all the basic functionality of\n  * Transfer, TransferFrom, GetBalance\n  * Basic ERC20 functionality extended to included token burnability and token mintability\n**/\n\ncontract TokenizedAsset is StandardToken, BurnableToken, MintableToken {\n\n    string  public name;\n    string  public symbol;\n    uint8   public constant decimals = 18;\n\n    /**\n     * Asset/Token constructor\n     *\n     * @param _name    The name of the token to be created\n     * @param _name    The symbol of the token to be created\n     */\n    function TokenizedAsset (string _name, string _symbol) payable {\n        name = _name;\n        symbol = _symbol;\n    }\n\n    /**\n     * Overrides the burn function\n     *\n     * @param _value    The amount of tokens to burn in mini-RBC\n     */\n    function burn(uint256 _value) public {\n        super.burn(_value);\n        Transfer(msg.sender, address(0x0), _value);\n    }\n\n    /**\n     * Overrides the mint function\n     *\n     * @param _to       The beneficiary of the mint\n     * @param _value    The amount to be minted\n     */\n    function mint(address _to, uint256 _value) public returns (bool) {\n        return super.mint(_to, _value);\n    }\n\n    /**\n     * Overrides the transferFrom function\n     *\n     * @param _from    The amount of tokens to burn in mini-RBC\n     * @param _to    The amount of tokens to burn in mini-RBC\n     * @param _amount    The amount of tokens to burn in mini-RBC\n     */\n    function transferFrom(address _from, address _to, uint _amount) public returns (bool) {\n        return super.transferFrom(_from, _to, _amount);\n    }\n}\n\n/**\n  * A Contract to create and manage Govt. Departments that are part of some arbitrary supply/value chain\n**/\ncontract Departments {\n\n    struct Department {\n      string name;\n      string email;\n      address incomingAsset;\n      address outgoingAsset;\n    }\n\n    address[] departmentAddrs;\n\n    mapping (string => Department) TempDepartments;\n    mapping (address => Department) Departments;\n\n    mapping (string => address) emailAccDepartment;\n\n    /**\n     * Method to create a Temp Department till an Admin consolidates it with a wallet address.\n     * Department also associated with an incoming asset/token and an outgoing asset/token which can be the same asset/token\n     *\n     * @param _name    The name of the department\n     * @param _email    The email of the department's admin\n     * @param _incomingAsset    The address of the asset/token Contract address that the department can receive from a source/department in the value chain\n     * @param _outgoingAsset    The address of the asset/token Contract address that the department can transfer out to another department in the value chain\n     */\n    function createTempDepartment(string _name, string _email, address _incomingAsset, address _outgoingAsset) {\n        Department memory d = Department(_name, _email, _incomingAsset, _outgoingAsset);\n        TempDepartments[_email] = d;\n    }\n\n    /**\n     * Method to consolidate a Department with an associated admin's wallet address.\n     * Department also associated with an incoming asset/token and an outgoing asset/token which can be the same asset/token\n     *\n     * @param _email    The email of the department's admin\n     * @param _accAddr    The wallet address the department\n     */\n    function createDepartment(string _email, address _accAddr) {\n        departmentAddrs.push(_accAddr);\n        Department memory d = TempDepartments[_email];\n        Departments[_accAddr] = d;\n\n        delete TempDepartments[_email];\n        emailAccDepartment[_email] = _accAddr;\n    }\n\n    /**\n     * Method to get a Department using it's wallet address\n     *\n     * @param _accAddr    The wallet address the department\n     */\n    function getDepartment(address _accAddr) constant returns(string, string, address, address) {\n        string name = Departments[_accAddr].name;\n        string email = Departments[_accAddr].email;\n        address incomingAsset = Departments[_accAddr].incomingAsset;\n        address outgoingAsset = Departments[_accAddr].outgoingAsset;\n        return(name, email, incomingAsset, outgoingAsset);\n    }\n\n    /**\n     * Method to get a Department's Wallet address from an arbitrary array\n     *\n     * @param index    The index to be fetched\n     */\n    function getDepartmentAccAddr(uint index) constant returns (address) {\n        return departmentAddrs[index];\n    }\n\n    /**\n     * Method to get the size of the arbitrary department address array\n     *\n     */\n    function getDepartmentsSize() constant returns (uint) {\n        return departmentAddrs.length;\n    }\n\n    /**\n     * Method to get a Department's address using the admin email\n     *\n     * @param email    The email of the admin of a specific department\n     */\n    function getAccWithEmail(string email) constant returns (address) {\n        return emailAccDepartment[email];\n    }\n\n    /**\n     * Method to enable transfer of Asset from one source/department wallet to another department wallet\n     *\n     * @param from    The sender's wallet address\n     * @param to    The receiver's wallet address\n     * @param amount    The number of tokens to be transferred\n     * @param assetContractAddr    The asset/token contract address\n     */\n    function transferAsset(address from, address to, uint amount, address assetContractAddr) returns (bool) {\n        TokenizedAsset asset = TokenizedAsset(assetContractAddr);\n        return asset.transferFrom(from, to, amount);\n    }\n}\n",
  "sourcePath": "/Users/mayurrelekar/dev/pista/contracts/Departments.sol",
  "compiler": {
    "name": "solc",
    "version": "0.4.18+commit.9cf6e910.Emscripten.clang"
  },
  "schemaVersion": "1.0.1",
  "updatedAt": "2018-01-24T10:32:58.398Z"
}