{
  "contractName": "Departments",
  "abi": [
    {
      "constant": false,
      "inputs": [],
      "name": "updateAssetSet",
      "outputs": [],
      "payable": false,
      "stateMutability": "nonpayable",
      "type": "function"
    },
    {
      "constant": true,
      "inputs": [
        {
          "name": "_walletAddress",
          "type": "address"
        }
      ],
      "name": "getDepartmentByAddress",
      "outputs": [
        {
          "name": "",
          "type": "string"
        },
        {
          "name": "",
          "type": "string"
        }
      ],
      "payable": false,
      "stateMutability": "view",
      "type": "function"
    },
    {
      "constant": false,
      "inputs": [
        {
          "name": "name",
          "type": "string"
        },
        {
          "name": "email",
          "type": "string"
        }
      ],
      "name": "createDepartment",
      "outputs": [],
      "payable": false,
      "stateMutability": "nonpayable",
      "type": "function"
    },
    {
      "constant": false,
      "inputs": [
        {
          "name": "_walletAddr",
          "type": "address"
        }
      ],
      "name": "updateDepartmentWallet",
      "outputs": [],
      "payable": false,
      "stateMutability": "nonpayable",
      "type": "function"
    }
  ],
  "bytecode": "0x6060604052341561000f57600080fd5b6102d18061001e6000396000f300606060405260043610610062576000357c0100000000000000000000000000000000000000000000000000000000900463ffffffff16806328283b0c14610067578063758310101461007c578063c5f169cf1461019a578063ebdaac521461023a575b600080fd5b341561007257600080fd5b61007a610273565b005b341561008757600080fd5b6100b3600480803573ffffffffffffffffffffffffffffffffffffffff16906020019091905050610275565b604051808060200180602001838103835285818151815260200191508051906020019080838360005b838110156100f75780820151818401526020810190506100dc565b50505050905090810190601f1680156101245780820380516001836020036101000a031916815260200191505b50838103825284818151815260200191508051906020019080838360005b8381101561015d578082015181840152602081019050610142565b50505050905090810190601f16801561018a5780820380516001836020036101000a031916815260200191505b5094505050505060405180910390f35b34156101a557600080fd5b610238600480803590602001908201803590602001908080601f0160208091040260200160405190810160405280939291908181526020018383808284378201915050505050509190803590602001908201803590602001908080601f0160208091040260200160405190810160405280939291908181526020018383808284378201915050505050509190505061028a565b005b341561024557600080fd5b610271600480803573ffffffffffffffffffffffffffffffffffffffff1690602001909190505061028e565b005b565b61027d610291565b610285610291565b915091565b5050565b50565b6020604051908101604052806000815250905600a165627a7a723058209f99ac594d44043e68a14ed6c0d916fcd51e12611674c544bd8a0462622ac82c0029",
  "source": "pragma solidity ^0.4.18;\n\ncontract Departments {\n\n    struct Department {\n      string name;\n      string email;\n    }\n\n    mapping (address => Department) Departments;\n\n    function createDepartment(string name, string email) {\n\n    }\n\n    function updateDepartmentWallet(address _walletAddr) {\n\n    }\n\n    function updateAssetSet() {\n\n    }\n\n    function getDepartmentByAddress(address _walletAddress) constant returns(string, string) {\n\n    }\n}\n",
  "sourcePath": "/Users/mayurrelekar/dev/pista/contracts/Departments.sol",
  "compiler": {
    "name": "solc",
    "version": "0.4.18+commit.9cf6e910.Emscripten.clang"
  },
  "schemaVersion": "1.0.1",
  "updatedAt": "2018-01-20T15:25:08.975Z"
}