{
  "contractName": "Sources",
  "abi": [
    {
      "constant": false,
      "inputs": [],
      "name": "updateParamSet",
      "outputs": [],
      "payable": false,
      "stateMutability": "nonpayable",
      "type": "function"
    },
    {
      "constant": false,
      "inputs": [
        {
          "name": "_walletAddr",
          "type": "address"
        }
      ],
      "name": "updateSourceWallet",
      "outputs": [],
      "payable": false,
      "stateMutability": "nonpayable",
      "type": "function"
    },
    {
      "constant": false,
      "inputs": [],
      "name": "updateAssetSet",
      "outputs": [],
      "payable": false,
      "stateMutability": "nonpayable",
      "type": "function"
    },
    {
      "constant": false,
      "inputs": [
        {
          "name": "name",
          "type": "string"
        },
        {
          "name": "email",
          "type": "string"
        }
      ],
      "name": "createSource",
      "outputs": [],
      "payable": false,
      "stateMutability": "nonpayable",
      "type": "function"
    },
    {
      "constant": true,
      "inputs": [
        {
          "name": "_sourceWallet",
          "type": "address"
        }
      ],
      "name": "getSourceByAddress",
      "outputs": [
        {
          "name": "",
          "type": "string"
        },
        {
          "name": "",
          "type": "string"
        }
      ],
      "payable": false,
      "stateMutability": "view",
      "type": "function"
    }
  ],
  "bytecode": "0x6060604052341561000f57600080fd5b6102f38061001e6000396000f30060606040526004361061006d576000357c0100000000000000000000000000000000000000000000000000000000900463ffffffff16806317ce509c146100725780632767279d1461008757806328283b0c146100c0578063526364ee146100d5578063729b7a4814610175575b600080fd5b341561007d57600080fd5b610085610293565b005b341561009257600080fd5b6100be600480803573ffffffffffffffffffffffffffffffffffffffff16906020019091905050610295565b005b34156100cb57600080fd5b6100d3610298565b005b34156100e057600080fd5b610173600480803590602001908201803590602001908080601f0160208091040260200160405190810160405280939291908181526020018383808284378201915050505050509190803590602001908201803590602001908080601f0160208091040260200160405190810160405280939291908181526020018383808284378201915050505050509190505061029a565b005b341561018057600080fd5b6101ac600480803573ffffffffffffffffffffffffffffffffffffffff1690602001909190505061029e565b604051808060200180602001838103835285818151815260200191508051906020019080838360005b838110156101f05780820151818401526020810190506101d5565b50505050905090810190601f16801561021d5780820380516001836020036101000a031916815260200191505b50838103825284818151815260200191508051906020019080838360005b8381101561025657808201518184015260208101905061023b565b50505050905090810190601f1680156102835780820380516001836020036101000a031916815260200191505b5094505050505060405180910390f35b565b50565b565b5050565b6102a66102b3565b6102ae6102b3565b915091565b6020604051908101604052806000815250905600a165627a7a723058206953e15c0b5ecd0cd7f0fa6eb49a185f569e689443331b4a7665a6351f7b92d40029",
  "source": "pragma solidity ^0.4.18;\n\ncontract Sources {\n\n    struct Source {\n      string name;\n      string email;\n    }\n\n    mapping (address => Source) Sources;\n\n    function createSource(string name, string email) {\n\n    }\n\n    function updateSourceWallet(address _walletAddr) {\n\n    }\n\n    function updateAssetSet() {\n\n    }\n\n    function updateParamSet() {\n\n    }\n\n    function getSourceByAddress(address _sourceWallet) constant returns(string, string) {\n\n    }\n}\n",
  "sourcePath": "/Users/mayurrelekar/dev/pista/contracts/Sources.sol",
  "compiler": {
    "name": "solc",
    "version": "0.4.18+commit.9cf6e910.Emscripten.clang"
  },
  "schemaVersion": "1.0.1",
  "updatedAt": "2018-01-20T15:25:08.975Z"
}