{
  "contractName": "Sources",
  "abi": [
    {
      "constant": true,
      "inputs": [
        {
          "name": "_accAddr",
          "type": "address"
        }
      ],
      "name": "getSource",
      "outputs": [
        {
          "name": "",
          "type": "string"
        },
        {
          "name": "",
          "type": "string"
        },
        {
          "name": "",
          "type": "address"
        }
      ],
      "payable": false,
      "stateMutability": "view",
      "type": "function"
    },
    {
      "constant": true,
      "inputs": [
        {
          "name": "index",
          "type": "uint8"
        }
      ],
      "name": "getSourceAccAddr",
      "outputs": [
        {
          "name": "",
          "type": "address"
        }
      ],
      "payable": false,
      "stateMutability": "view",
      "type": "function"
    },
    {
      "constant": false,
      "inputs": [
        {
          "name": "_name",
          "type": "string"
        },
        {
          "name": "_email",
          "type": "string"
        },
        {
          "name": "_outgoingAsset",
          "type": "address"
        },
        {
          "name": "_accAddr",
          "type": "address"
        }
      ],
      "name": "createSource",
      "outputs": [],
      "payable": false,
      "stateMutability": "nonpayable",
      "type": "function"
    },
    {
      "constant": true,
      "inputs": [
        {
          "name": "email",
          "type": "string"
        }
      ],
      "name": "getAccWithEmail",
      "outputs": [
        {
          "name": "",
          "type": "address"
        }
      ],
      "payable": false,
      "stateMutability": "view",
      "type": "function"
    },
    {
      "constant": true,
      "inputs": [],
      "name": "getSourcesSize",
      "outputs": [
        {
          "name": "",
          "type": "uint256"
        }
      ],
      "payable": false,
      "stateMutability": "view",
      "type": "function"
    }
  ],
  "bytecode": "0x6060604052341561000f57600080fd5b6109d58061001e6000396000f30060606040526004361061006d576000357c0100000000000000000000000000000000000000000000000000000000900463ffffffff1680633ee8f2481461007257806393c1f4fb146101c357806395fc920014610229578063f1cb141514610307578063fc1affec146103a4575b600080fd5b341561007d57600080fd5b6100a9600480803573ffffffffffffffffffffffffffffffffffffffff169060200190919050506103cd565b6040518080602001806020018473ffffffffffffffffffffffffffffffffffffffff1673ffffffffffffffffffffffffffffffffffffffff168152602001838103835286818151815260200191508051906020019080838360005b8381101561011f578082015181840152602081019050610104565b50505050905090810190601f16801561014c5780820380516001836020036101000a031916815260200191505b50838103825285818151815260200191508051906020019080838360005b8381101561018557808201518184015260208101905061016a565b50505050905090810190601f1680156101b25780820380516001836020036101000a031916815260200191505b509550505050505060405180910390f35b34156101ce57600080fd5b6101e7600480803560ff1690602001909190505061061b565b604051808273ffffffffffffffffffffffffffffffffffffffff1673ffffffffffffffffffffffffffffffffffffffff16815260200191505060405180910390f35b341561023457600080fd5b610305600480803590602001908201803590602001908080601f0160208091040260200160405190810160405280939291908181526020018383808284378201915050505050509190803590602001908201803590602001908080601f0160208091040260200160405190810160405280939291908181526020018383808284378201915050505050509190803573ffffffffffffffffffffffffffffffffffffffff1690602001909190803573ffffffffffffffffffffffffffffffffffffffff16906020019091905050610661565b005b341561031257600080fd5b610362600480803590602001908201803590602001908080601f016020809104026020016040519081016040528093929190818152602001838380828437820191505050505050919050506107cb565b604051808273ffffffffffffffffffffffffffffffffffffffff1673ffffffffffffffffffffffffffffffffffffffff16815260200191505060405180910390f35b34156103af57600080fd5b6103b7610860565b6040518082815260200191505060405180910390f35b6103d561086c565b6103dd61086c565b600080600080600160008873ffffffffffffffffffffffffffffffffffffffff1673ffffffffffffffffffffffffffffffffffffffff1681526020019081526020016000206000019250600160008873ffffffffffffffffffffffffffffffffffffffff1673ffffffffffffffffffffffffffffffffffffffff1681526020019081526020016000206001019150600160008873ffffffffffffffffffffffffffffffffffffffff1673ffffffffffffffffffffffffffffffffffffffff16815260200190815260200160002060020160009054906101000a900473ffffffffffffffffffffffffffffffffffffffff169050828282828054600181600116156101000203166002900480601f0160208091040260200160405190810160405280929190818152602001828054600181600116156101000203166002900480156105685780601f1061053d57610100808354040283529160200191610568565b820191906000526020600020905b81548152906001019060200180831161054b57829003601f168201915b50505050509250818054600181600116156101000203166002900480601f0160208091040260200160405190810160405280929190818152602001828054600181600116156101000203166002900480156106045780601f106105d957610100808354040283529160200191610604565b820191906000526020600020905b8154815290600101906020018083116105e757829003601f168201915b505050505091509550955095505050509193909250565b6000808260ff1681548110151561062e57fe5b906000526020600020900160009054906101000a900473ffffffffffffffffffffffffffffffffffffffff169050919050565b610669610880565b6000805480600101828161067d91906108c4565b9160005260206000209001600084909190916101000a81548173ffffffffffffffffffffffffffffffffffffffff021916908373ffffffffffffffffffffffffffffffffffffffff160217905550506060604051908101604052808681526020018581526020018473ffffffffffffffffffffffffffffffffffffffff16815250905080600160008473ffffffffffffffffffffffffffffffffffffffff1673ffffffffffffffffffffffffffffffffffffffff168152602001908152602001600020600082015181600001908051906020019061075c9291906108f0565b5060208201518160010190805190602001906107799291906108f0565b5060408201518160020160006101000a81548173ffffffffffffffffffffffffffffffffffffffff021916908373ffffffffffffffffffffffffffffffffffffffff1602179055509050505050505050565b60006002826040518082805190602001908083835b60208310151561080557805182526020820191506020810190506020830392506107e0565b6001836020036101000a038019825116818451168082178552505050505050905001915050908152602001604051809103902060009054906101000a900473ffffffffffffffffffffffffffffffffffffffff169050919050565b60008080549050905090565b602060405190810160405280600081525090565b606060405190810160405280610894610970565b81526020016108a1610970565b8152602001600073ffffffffffffffffffffffffffffffffffffffff1681525090565b8154818355818115116108eb578183600052602060002091820191016108ea9190610984565b5b505050565b828054600181600116156101000203166002900490600052602060002090601f016020900481019282601f1061093157805160ff191683800117855561095f565b8280016001018555821561095f579182015b8281111561095e578251825591602001919060010190610943565b5b50905061096c9190610984565b5090565b602060405190810160405280600081525090565b6109a691905b808211156109a257600081600090555060010161098a565b5090565b905600a165627a7a723058206eaf68ac2ef9a33a556bb4532061bfbfc63891fb4996a2036d26b36637d0614e0029",
  "source": "pragma solidity ^0.4.18;\n\ncontract Sources {\n\n    struct Source {\n      string name;\n      string email;\n      address outgoingAsset;\n    }\n\n    address[] sourceAddrs;\n\n    mapping (address => Source) Sources;\n\n    mapping (string => address) emailAccSource;\n\n    function createSource(string _name, string _email, address _outgoingAsset, address _accAddr) {\n        sourceAddrs.push(_accAddr);\n\n        Source memory s = Source(_name, _email, _outgoingAsset);\n        Sources[_accAddr] = s;\n    }\n\n    function getSource(address _accAddr) constant returns(string, string, address) {\n        string name = Sources[_accAddr].name;\n        string email = Sources[_accAddr].email;\n        address outgoingAsset = Sources[_accAddr].outgoingAsset;\n        return(name, email, outgoingAsset);\n    }\n\n    function getSourceAccAddr(uint8 index) constant returns (address) {\n        return sourceAddrs[index];\n    }\n\n    function getSourcesSize() constant returns (uint) {\n        return sourceAddrs.length;\n    }\n\n    function getAccWithEmail(string email) constant returns (address) {\n        return emailAccSource[email];\n    }\n}\n",
  "sourcePath": "/opt/lampp/htdocs/pista_latest/contracts/Sources.sol",
  "compiler": {
    "name": "solc",
    "version": "0.4.18+commit.9cf6e910.Emscripten.clang"
  },
  "schemaVersion": "1.0.1",
  "updatedAt": "2018-01-21T08:23:23.712Z"
}