{
  "contractName": "Sources",
  "abi": [
    {
      "constant": false,
      "inputs": [],
      "name": "updateParamSet",
      "outputs": [],
      "payable": false,
      "stateMutability": "nonpayable",
      "type": "function"
    },
    {
      "constant": false,
      "inputs": [],
      "name": "updateAssetSet",
      "outputs": [],
      "payable": false,
      "stateMutability": "nonpayable",
      "type": "function"
    },
    {
      "constant": false,
      "inputs": [],
      "name": "createSource",
      "outputs": [],
      "payable": false,
      "stateMutability": "nonpayable",
      "type": "function"
    }
  ],
  "bytecode": "0x6060604052341561000f57600080fd5b60c08061001d6000396000f3006060604052600436106053576000357c0100000000000000000000000000000000000000000000000000000000900463ffffffff16806317ce509c14605857806328283b0c14606a578063c133bf1914607c575b600080fd5b3415606257600080fd5b6068608e565b005b3415607457600080fd5b607a6090565b005b3415608657600080fd5b608c6092565b005b565b565b5600a165627a7a72305820071716a26b91a9df7f849fb451146b1373e02c81a8d2d3815b8b79209713265e0029",
  "source": "pragma solidity ^0.4.18;\n\ncontract Sources {\n\n    function createSource() {\n\n    }\n\n    function updateAssetSet() {\n\n    }\n\n    function updateParamSet() {\n      \n    }\n}\n",
  "sourcePath": "/Users/mayurrelekar/dev/pista/contracts/Sources.sol",
  "compiler": {
    "name": "solc",
    "version": "0.4.18+commit.9cf6e910.Emscripten.clang"
  },
  "schemaVersion": "1.0.1",
  "updatedAt": "2018-01-20T14:55:31.900Z"
}