{
  "contractName": "Sources",
  "abi": [
    {
      "constant": true,
      "inputs": [],
      "name": "getTempSourcesSize",
      "outputs": [
        {
          "name": "",
          "type": "uint256"
        }
      ],
      "payable": false,
      "stateMutability": "view",
      "type": "function"
    },
    {
      "constant": false,
      "inputs": [
        {
          "name": "_email",
          "type": "string"
        },
        {
          "name": "_accAddr",
          "type": "address"
        }
      ],
      "name": "createSource",
      "outputs": [],
      "payable": false,
      "stateMutability": "nonpayable",
      "type": "function"
    },
    {
      "constant": true,
      "inputs": [
        {
          "name": "_accAddr",
          "type": "address"
        }
      ],
      "name": "getSource",
      "outputs": [
        {
          "name": "",
          "type": "string"
        },
        {
          "name": "",
          "type": "string"
        },
        {
          "name": "",
          "type": "address"
        }
      ],
      "payable": false,
      "stateMutability": "view",
      "type": "function"
    },
    {
      "constant": false,
      "inputs": [
        {
          "name": "_name",
          "type": "string"
        },
        {
          "name": "_email",
          "type": "string"
        },
        {
          "name": "_outgoingAsset",
          "type": "address"
        }
      ],
      "name": "createTempSource",
      "outputs": [],
      "payable": false,
      "stateMutability": "nonpayable",
      "type": "function"
    },
    {
      "constant": false,
      "inputs": [
        {
          "name": "amount",
          "type": "uint256"
        },
        {
          "name": "assetContractAddr",
          "type": "address"
        }
      ],
      "name": "addAssetAmount",
      "outputs": [
        {
          "name": "",
          "type": "bool"
        }
      ],
      "payable": false,
      "stateMutability": "nonpayable",
      "type": "function"
    },
    {
      "constant": false,
      "inputs": [
        {
          "name": "from",
          "type": "address"
        },
        {
          "name": "to",
          "type": "address"
        },
        {
          "name": "amount",
          "type": "uint256"
        },
        {
          "name": "assetContractAddr",
          "type": "address"
        }
      ],
      "name": "transferAsset",
      "outputs": [
        {
          "name": "",
          "type": "bool"
        }
      ],
      "payable": false,
      "stateMutability": "nonpayable",
      "type": "function"
    },
    {
      "constant": true,
      "inputs": [
        {
          "name": "index",
          "type": "uint256"
        }
      ],
      "name": "getSourceAccAddr",
      "outputs": [
        {
          "name": "",
          "type": "address"
        }
      ],
      "payable": false,
      "stateMutability": "view",
      "type": "function"
    },
    {
      "constant": true,
      "inputs": [
        {
          "name": "_email",
          "type": "string"
        }
      ],
      "name": "getTempSource",
      "outputs": [
        {
          "name": "",
          "type": "string"
        },
        {
          "name": "",
          "type": "string"
        },
        {
          "name": "",
          "type": "address"
        }
      ],
      "payable": false,
      "stateMutability": "view",
      "type": "function"
    },
    {
      "constant": true,
      "inputs": [
        {
          "name": "email",
          "type": "string"
        }
      ],
      "name": "getAccWithEmail",
      "outputs": [
        {
          "name": "",
          "type": "address"
        }
      ],
      "payable": false,
      "stateMutability": "view",
      "type": "function"
    },
    {
      "constant": true,
      "inputs": [],
      "name": "getSourcesSize",
      "outputs": [
        {
          "name": "",
          "type": "uint256"
        }
      ],
      "payable": false,
      "stateMutability": "view",
      "type": "function"
    },
    {
      "constant": true,
      "inputs": [
        {
          "name": "index",
          "type": "uint256"
        }
      ],
      "name": "getTempSourceEmail",
      "outputs": [
        {
          "name": "",
          "type": "string"
        }
      ],
      "payable": false,
      "stateMutability": "view",
      "type": "function"
    }
  ],
  "bytecode": "0x6060604052341561000f57600080fd5b6118e58061001e6000396000f3006060604052600436106100af576000357c0100000000000000000000000000000000000000000000000000000000900463ffffffff1680631916cc00146100b45780633d262014146100dd5780633ee8f2481461015957806344156aa6146102aa57806355e1e93014610369578063920138d6146103c3578063bb6c15f61461045b578063ea1864e2146104be578063f1cb141514610633578063fc1affec146106d0578063fd9aedee146106f9575b600080fd5b34156100bf57600080fd5b6100c7610795565b6040518082815260200191505060405180910390f35b34156100e857600080fd5b610157600480803590602001908201803590602001908080601f0160208091040260200160405190810160405280939291908181526020018383808284378201915050505050509190803573ffffffffffffffffffffffffffffffffffffffff169060200190919050506107a2565b005b341561016457600080fd5b610190600480803573ffffffffffffffffffffffffffffffffffffffff16906020019091905050610c48565b6040518080602001806020018473ffffffffffffffffffffffffffffffffffffffff1673ffffffffffffffffffffffffffffffffffffffff168152602001838103835286818151815260200191508051906020019080838360005b838110156102065780820151818401526020810190506101eb565b50505050905090810190601f1680156102335780820380516001836020036101000a031916815260200191505b50838103825285818151815260200191508051906020019080838360005b8381101561026c578082015181840152602081019050610251565b50505050905090810190601f1680156102995780820380516001836020036101000a031916815260200191505b509550505050505060405180910390f35b34156102b557600080fd5b610367600480803590602001908201803590602001908080601f0160208091040260200160405190810160405280939291908181526020018383808284378201915050505050509190803590602001908201803590602001908080601f0160208091040260200160405190810160405280939291908181526020018383808284378201915050505050509190803573ffffffffffffffffffffffffffffffffffffffff16906020019091905050610e96565b005b341561037457600080fd5b6103a9600480803590602001909190803573ffffffffffffffffffffffffffffffffffffffff16906020019091905050611004565b604051808215151515815260200191505060405180910390f35b34156103ce57600080fd5b610441600480803573ffffffffffffffffffffffffffffffffffffffff1690602001909190803573ffffffffffffffffffffffffffffffffffffffff1690602001909190803590602001909190803573ffffffffffffffffffffffffffffffffffffffff169060200190919050506110d9565b604051808215151515815260200191505060405180910390f35b341561046657600080fd5b61047c60048080359060200190919050506111e4565b604051808273ffffffffffffffffffffffffffffffffffffffff1673ffffffffffffffffffffffffffffffffffffffff16815260200191505060405180910390f35b34156104c957600080fd5b610519600480803590602001908201803590602001908080601f01602080910402602001604051908101604052809392919081815260200183838082843782019150505050505091905050611227565b6040518080602001806020018473ffffffffffffffffffffffffffffffffffffffff1673ffffffffffffffffffffffffffffffffffffffff168152602001838103835286818151815260200191508051906020019080838360005b8381101561058f578082015181840152602081019050610574565b50505050905090810190601f1680156105bc5780820380516001836020036101000a031916815260200191505b50838103825285818151815260200191508051906020019080838360005b838110156105f55780820151818401526020810190506105da565b50505050905090810190601f1680156106225780820380516001836020036101000a031916815260200191505b509550505050505060405180910390f35b341561063e57600080fd5b61068e600480803590602001908201803590602001908080601f016020809104026020016040519081016040528093929190818152602001838380828437820191505050505050919050506114f9565b604051808273ffffffffffffffffffffffffffffffffffffffff1673ffffffffffffffffffffffffffffffffffffffff16815260200191505060405180910390f35b34156106db57600080fd5b6106e361158e565b6040518082815260200191505060405180910390f35b341561070457600080fd5b61071a600480803590602001909190505061159a565b6040518080602001828103825283818151815260200191508051906020019080838360005b8381101561075a57808201518184015260208101905061073f565b50505050905090810190601f1680156107875780820380516001836020036101000a031916815260200191505b509250505060405180910390f35b6000600180549050905090565b6107aa61165c565b600080548060010182816107be91906116a0565b9160005260206000209001600084909190916101000a81548173ffffffffffffffffffffffffffffffffffffffff021916908373ffffffffffffffffffffffffffffffffffffffff160217905550506002836040518082805190602001908083835b6020831015156108455780518252602082019150602081019050602083039250610820565b6001836020036101000a038019825116818451168082178552505050505050905001915050908152602001604051809103902060606040519081016040529081600082018054600181600116156101000203166002900480601f01602080910402602001604051908101604052809291908181526020018280546001816001161561010002031660029004801561091d5780601f106108f25761010080835404028352916020019161091d565b820191906000526020600020905b81548152906001019060200180831161090057829003601f168201915b50505050508152602001600182018054600181600116156101000203166002900480601f0160208091040260200160405190810160405280929190818152602001828054600181600116156101000203166002900480156109bf5780601f10610994576101008083540402835291602001916109bf565b820191906000526020600020905b8154815290600101906020018083116109a257829003601f168201915b505050505081526020016002820160009054906101000a900473ffffffffffffffffffffffffffffffffffffffff1673ffffffffffffffffffffffffffffffffffffffff1673ffffffffffffffffffffffffffffffffffffffff1681525050905080600360008473ffffffffffffffffffffffffffffffffffffffff1673ffffffffffffffffffffffffffffffffffffffff1681526020019081526020016000206000820151816000019080519060200190610a7c9291906116cc565b506020820151816001019080519060200190610a999291906116cc565b5060408201518160020160006101000a81548173ffffffffffffffffffffffffffffffffffffffff021916908373ffffffffffffffffffffffffffffffffffffffff1602179055509050506002836040518082805190602001908083835b602083101515610b1c5780518252602082019150602081019050602083039250610af7565b6001836020036101000a038019825116818451168082178552505050505050905001915050908152602001604051809103902060008082016000610b60919061174c565b600182016000610b70919061174c565b6002820160006101000a81549073ffffffffffffffffffffffffffffffffffffffff02191690555050816004846040518082805190602001908083835b602083101515610bd25780518252602082019150602081019050602083039250610bad565b6001836020036101000a038019825116818451168082178552505050505050905001915050908152602001604051809103902060006101000a81548173ffffffffffffffffffffffffffffffffffffffff021916908373ffffffffffffffffffffffffffffffffffffffff160217905550505050565b610c50611794565b610c58611794565b600080600080600360008873ffffffffffffffffffffffffffffffffffffffff1673ffffffffffffffffffffffffffffffffffffffff1681526020019081526020016000206000019250600360008873ffffffffffffffffffffffffffffffffffffffff1673ffffffffffffffffffffffffffffffffffffffff1681526020019081526020016000206001019150600360008873ffffffffffffffffffffffffffffffffffffffff1673ffffffffffffffffffffffffffffffffffffffff16815260200190815260200160002060020160009054906101000a900473ffffffffffffffffffffffffffffffffffffffff169050828282828054600181600116156101000203166002900480601f016020809104026020016040519081016040528092919081815260200182805460018160011615610100020316600290048015610de35780601f10610db857610100808354040283529160200191610de3565b820191906000526020600020905b815481529060010190602001808311610dc657829003601f168201915b50505050509250818054600181600116156101000203166002900480601f016020809104026020016040519081016040528092919081815260200182805460018160011615610100020316600290048015610e7f5780601f10610e5457610100808354040283529160200191610e7f565b820191906000526020600020905b815481529060010190602001808311610e6257829003601f168201915b505050505091509550955095505050509193909250565b610e9e61165c565b60018054806001018281610eb291906117a8565b916000526020600020900160008590919091509080519060200190610ed89291906117d4565b50506060604051908101604052808581526020018481526020018373ffffffffffffffffffffffffffffffffffffffff168152509050806002846040518082805190602001908083835b602083101515610f475780518252602082019150602081019050602083039250610f22565b6001836020036101000a03801982511681845116808217855250505050505090500191505090815260200160405180910390206000820151816000019080519060200190610f969291906116cc565b506020820151816001019080519060200190610fb39291906116cc565b5060408201518160020160006101000a81548173ffffffffffffffffffffffffffffffffffffffff021916908373ffffffffffffffffffffffffffffffffffffffff16021790555090505050505050565b6000808290508073ffffffffffffffffffffffffffffffffffffffff166340c10f1933866000604051602001526040518363ffffffff167c0100000000000000000000000000000000000000000000000000000000028152600401808373ffffffffffffffffffffffffffffffffffffffff1673ffffffffffffffffffffffffffffffffffffffff16815260200182815260200192505050602060405180830381600087803b15156110b557600080fd5b6102c65a03f115156110c657600080fd5b5050506040518051905091505092915050565b6000808290508073ffffffffffffffffffffffffffffffffffffffff166323b872dd8787876000604051602001526040518463ffffffff167c0100000000000000000000000000000000000000000000000000000000028152600401808473ffffffffffffffffffffffffffffffffffffffff1673ffffffffffffffffffffffffffffffffffffffff1681526020018373ffffffffffffffffffffffffffffffffffffffff1673ffffffffffffffffffffffffffffffffffffffff1681526020018281526020019350505050602060405180830381600087803b15156111be57600080fd5b6102c65a03f115156111cf57600080fd5b50505060405180519050915050949350505050565b600080828154811015156111f457fe5b906000526020600020900160009054906101000a900473ffffffffffffffffffffffffffffffffffffffff169050919050565b61122f611794565b611237611794565b6000806000806002876040518082805190602001908083835b6020831015156112755780518252602082019150602081019050602083039250611250565b6001836020036101000a038019825116818451168082178552505050505050905001915050908152602001604051809103902060000192506002876040518082805190602001908083835b6020831015156112e557805182526020820191506020810190506020830392506112c0565b6001836020036101000a038019825116818451168082178552505050505050905001915050908152602001604051809103902060010191506002876040518082805190602001908083835b6020831015156113555780518252602082019150602081019050602083039250611330565b6001836020036101000a038019825116818451168082178552505050505050905001915050908152602001604051809103902060020160009054906101000a900473ffffffffffffffffffffffffffffffffffffffff169050828282828054600181600116156101000203166002900480601f0160208091040260200160405190810160405280929190818152602001828054600181600116156101000203166002900480156114465780601f1061141b57610100808354040283529160200191611446565b820191906000526020600020905b81548152906001019060200180831161142957829003601f168201915b50505050509250818054600181600116156101000203166002900480601f0160208091040260200160405190810160405280929190818152602001828054600181600116156101000203166002900480156114e25780601f106114b7576101008083540402835291602001916114e2565b820191906000526020600020905b8154815290600101906020018083116114c557829003601f168201915b505050505091509550955095505050509193909250565b60006004826040518082805190602001908083835b602083101515611533578051825260208201915060208101905060208303925061150e565b6001836020036101000a038019825116818451168082178552505050505050905001915050908152602001604051809103902060009054906101000a900473ffffffffffffffffffffffffffffffffffffffff169050919050565b60008080549050905090565b6115a2611794565b6001828154811015156115b157fe5b90600052602060002090018054600181600116156101000203166002900480601f0160208091040260200160405190810160405280929190818152602001828054600181600116156101000203166002900480156116505780601f1061162557610100808354040283529160200191611650565b820191906000526020600020905b81548152906001019060200180831161163357829003601f168201915b50505050509050919050565b606060405190810160405280611670611854565b815260200161167d611854565b8152602001600073ffffffffffffffffffffffffffffffffffffffff1681525090565b8154818355818115116116c7578183600052602060002091820191016116c69190611868565b5b505050565b828054600181600116156101000203166002900490600052602060002090601f016020900481019282601f1061170d57805160ff191683800117855561173b565b8280016001018555821561173b579182015b8281111561173a57825182559160200191906001019061171f565b5b5090506117489190611868565b5090565b50805460018160011615610100020316600290046000825580601f106117725750611791565b601f0160209004906000526020600020908101906117909190611868565b5b50565b602060405190810160405280600081525090565b8154818355818115116117cf578183600052602060002091820191016117ce919061188d565b5b505050565b828054600181600116156101000203166002900490600052602060002090601f016020900481019282601f1061181557805160ff1916838001178555611843565b82800160010185558215611843579182015b82811115611842578251825591602001919060010190611827565b5b5090506118509190611868565b5090565b602060405190810160405280600081525090565b61188a91905b8082111561188657600081600090555060010161186e565b5090565b90565b6118b691905b808211156118b257600081816118a9919061174c565b50600101611893565b5090565b905600a165627a7a723058206d0170814efdaa1ed26814c16e6331b863289dee13b9b7cbb3549cf2b714b2d80029",
  "source": "pragma solidity ^0.4.18;\n\nimport './token/StandardToken.sol';\nimport './token/BurnableToken.sol';\nimport './token/MintableToken.sol';\nimport './math/SafeMath.sol';\n\n/**\n  * An ERC20 compliant token generator Contract with all the basic functionality of\n  * Transfer, TransferFrom, GetBalance\n  * Basic ERC20 functionality extended to included token burnability and token mintability\n**/\n\ncontract TokenizedAsset is StandardToken, BurnableToken, MintableToken {\n\n    string  public name;\n    string  public symbol;\n    uint8   public constant DECIMALS = 18;\n\n    /**\n     * Asset/Token constructor\n     *\n     * @param _name    The name of the token to be created\n     * @param _name    The symbol of the token to be created\n     */\n    function TokenizedAsset (string _name, string _symbol) public payable {\n        name = _name;\n        symbol = _symbol;\n    }\n\n    // /**\n    //  * Overrides the burn function\n    //  *\n    //  * @param _value    The amount of tokens to burn\n    //  */\n    // function burn(uint256 _value) public {\n    //     super.burn(_value);\n    //     Transfer(msg.sender, address(0x0), _value);\n    // }\n\n    // /**\n    //  * Overrides the mint function\n    //  *\n    //  * @param _to       The beneficiary of the mint\n    //  * @param _value    The amount to be minted\n    //  */\n    // function mint(address _to, uint256 _value) public returns (bool) {\n    //     return super.mint(_to, _value);\n    // }\n\n    // /**\n    //  * Overrides the transferFrom function\n    //  *\n    //  * @param _from    The account to transfer from\n    //  * @param _to    The account to transfer to\n    //  * @param _amount    The amount to transfer\n    //  */\n    // function transferFrom(address _from, address _to, uint _amount) public returns (bool) {\n    //     return super.transferFrom(_from, _to, _amount);\n    // }\n}\n\n/**\n  * A Contract to create and manage Sources for various agricultural/horticultural/forest produce\n  * that are part of some arbitrary supply/value chain\n**/\ncontract Sources {\n\n    struct Source {\n      string name;\n      string email;\n      address outgoingAsset;\n    }\n\n    address[] sourceAddrs;\n    string[] tempSourceEmails;\n\n    mapping (string => Source) TempSources;\n    mapping (address => Source) _Sources;\n\n    mapping (string => address) emailAccSource;\n\n    /**\n     * Method to create a Temp Source till an Admin consolidates it with a wallet address.\n     * Source also associated with an outgoing asset/token\n     *\n     * @param _name    The name of the Source\n     * @param _email    The email of the Source's admin\n     * @param _outgoingAsset    The address of the asset/token Contract address that the Source can transfer out to another Source in the value chain\n     */\n    function createTempSource(string _name, string _email, address _outgoingAsset) public {\n        tempSourceEmails.push(_email);\n        Source memory d = Source(_name, _email, _outgoingAsset);\n        TempSources[_email] = d;\n    }\n\n    /**\n     * Method to consolidate a Source with an associated admin's wallet address.\n     * Source also associated with an outgoing asset/token\n     *\n     * @param _email    The email of the Source's admin\n     * @param _accAddr    The wallet address the Source\n     */\n    function createSource(string _email, address _accAddr) public {\n        sourceAddrs.push(_accAddr);\n        Source memory d = TempSources[_email];\n        _Sources[_accAddr] = d;\n\n        delete TempSources[_email];\n        emailAccSource[_email] = _accAddr;\n    }\n\n    /**\n     * Method to get a Source using it's email\n     *\n     * @param _email    The email the source\n     */\n    function getTempSource(string _email) public constant returns(string, string, address) {\n        string name = TempSources[_email].name;\n        string email = TempSources[_email].email;\n        address outgoingAsset = TempSources[_email].outgoingAsset;\n        return(name, email, outgoingAsset);\n    }\n    \n    /**\n     * Method to get a Source using it's wallet address\n     *\n     * @param _accAddr    The wallet address the source\n     */\n    function getSource(address _accAddr) public constant returns(string, string, address) {\n        string name = _Sources[_accAddr].name;\n        string email = _Sources[_accAddr].email;\n        address outgoingAsset = _Sources[_accAddr].outgoingAsset;\n        return(name, email, outgoingAsset);\n    }\n\n    /**\n     * Method to get a Temp Source's email from an arbitrary array\n     *\n     * @param index    The index to be fetched\n     */\n    function getTempSourceEmail(uint index) public constant returns (string) {\n        return tempSourceEmails[index];\n    }\n\n    /**\n     * Method to get a Source's Wallet address from an arbitrary array\n     *\n     * @param index    The index to be fetched\n     */\n    function getSourceAccAddr(uint index) public constant returns (address) {\n        return sourceAddrs[index];\n    }\n\n    /**\n     * Method to get the size of the arbitrary temp source email array\n     *\n     */\n    function getTempSourcesSize() public constant returns (uint) {\n        return tempSourceEmails.length;\n    }\n\n    /**\n     * Method to get the size of the arbitrary source address array\n     *\n     */\n    function getSourcesSize() public constant returns (uint) {\n        return sourceAddrs.length;\n    }\n\n    /**\n     * Method to get a Source's address using the admin email\n     *\n     * @param email    The email of the admin of a specific source\n     */\n    function getAccWithEmail(string email) public constant returns (address) {\n        return emailAccSource[email];\n    }\n\n    /**\n     * Method to create(mint) a specific asset/token\n     *\n     * @param amount    The number of tokens to be minted\n     * @param assetContractAddr    The asset/token contract address\n     */\n    function addAssetAmount(uint amount, address assetContractAddr) public returns (bool) {\n        TokenizedAsset asset = TokenizedAsset(assetContractAddr);\n        return asset.mint(msg.sender, amount);\n    }\n\n    /**\n     * Method to enable transfer of a specific Asset/Token from source wallet to a department wallet\n     *\n     * @param from    The sender's wallet address\n     * @param to    The receiver's wallet address\n     * @param amount    The number of tokens to be transferred\n     * @param assetContractAddr    The asset/token contract address\n     */\n    function transferAsset(address from, address to, uint amount, address assetContractAddr) public returns (bool) {\n        TokenizedAsset asset = TokenizedAsset(assetContractAddr);\n        return asset.transferFrom(from, to, amount);\n    }\n}\n",
  "sourcePath": "/Users/mayurrelekar/dev/pista/contracts/Sources.sol",
  "compiler": {
    "name": "solc",
    "version": "0.4.18+commit.9cf6e910.Emscripten.clang"
  },
  "schemaVersion": "1.0.1",
  "updatedAt": "2018-02-16T04:44:00.958Z"
}