{
  "contractName": "Sources",
  "abi": [
    {
      "constant": false,
      "inputs": [
        {
          "name": "_email",
          "type": "string"
        },
        {
          "name": "_accAddr",
          "type": "address"
        }
      ],
      "name": "createSource",
      "outputs": [],
      "payable": false,
      "stateMutability": "nonpayable",
      "type": "function"
    },
    {
      "constant": true,
      "inputs": [
        {
          "name": "_accAddr",
          "type": "address"
        }
      ],
      "name": "getSource",
      "outputs": [
        {
          "name": "",
          "type": "string"
        },
        {
          "name": "",
          "type": "string"
        },
        {
          "name": "",
          "type": "address"
        }
      ],
      "payable": false,
      "stateMutability": "view",
      "type": "function"
    },
    {
      "constant": false,
      "inputs": [
        {
          "name": "_name",
          "type": "string"
        },
        {
          "name": "_email",
          "type": "string"
        },
        {
          "name": "_outgoingAsset",
          "type": "address"
        }
      ],
      "name": "createTempSource",
      "outputs": [],
      "payable": false,
      "stateMutability": "nonpayable",
      "type": "function"
    },
    {
      "constant": false,
      "inputs": [
        {
          "name": "amount",
          "type": "uint256"
        },
        {
          "name": "assetContractAddr",
          "type": "address"
        }
      ],
      "name": "addAssetAmount",
      "outputs": [
        {
          "name": "",
          "type": "bool"
        }
      ],
      "payable": false,
      "stateMutability": "nonpayable",
      "type": "function"
    },
    {
      "constant": false,
      "inputs": [
        {
          "name": "from",
          "type": "address"
        },
        {
          "name": "to",
          "type": "address"
        },
        {
          "name": "amount",
          "type": "uint256"
        },
        {
          "name": "assetContractAddr",
          "type": "address"
        }
      ],
      "name": "transferAsset",
      "outputs": [
        {
          "name": "",
          "type": "bool"
        }
      ],
      "payable": false,
      "stateMutability": "nonpayable",
      "type": "function"
    },
    {
      "constant": true,
      "inputs": [
        {
          "name": "index",
          "type": "uint8"
        }
      ],
      "name": "getSourceAccAddr",
      "outputs": [
        {
          "name": "",
          "type": "address"
        }
      ],
      "payable": false,
      "stateMutability": "view",
      "type": "function"
    },
    {
      "constant": true,
      "inputs": [
        {
          "name": "email",
          "type": "string"
        }
      ],
      "name": "getAccWithEmail",
      "outputs": [
        {
          "name": "",
          "type": "address"
        }
      ],
      "payable": false,
      "stateMutability": "view",
      "type": "function"
    },
    {
      "constant": true,
      "inputs": [],
      "name": "getSourcesSize",
      "outputs": [
        {
          "name": "",
          "type": "uint256"
        }
      ],
      "payable": false,
      "stateMutability": "view",
      "type": "function"
    }
  ],
  "bytecode": "0x6060604052341561000f57600080fd5b6111db8061001e6000396000f30060606040526004361061008e576000357c0100000000000000000000000000000000000000000000000000000000900463ffffffff1680633d262014146100935780633ee8f2481461010f57806344156aa61461026057806355e1e9301461031f578063920138d61461037957806393c1f4fb14610411578063f1cb141514610477578063fc1affec14610514575b600080fd5b341561009e57600080fd5b61010d600480803590602001908201803590602001908080601f0160208091040260200160405190810160405280939291908181526020018383808284378201915050505050509190803573ffffffffffffffffffffffffffffffffffffffff1690602001909190505061053d565b005b341561011a57600080fd5b610146600480803573ffffffffffffffffffffffffffffffffffffffff169060200190919050506109e3565b6040518080602001806020018473ffffffffffffffffffffffffffffffffffffffff1673ffffffffffffffffffffffffffffffffffffffff168152602001838103835286818151815260200191508051906020019080838360005b838110156101bc5780820151818401526020810190506101a1565b50505050905090810190601f1680156101e95780820380516001836020036101000a031916815260200191505b50838103825285818151815260200191508051906020019080838360005b83811015610222578082015181840152602081019050610207565b50505050905090810190601f16801561024f5780820380516001836020036101000a031916815260200191505b509550505050505060405180910390f35b341561026b57600080fd5b61031d600480803590602001908201803590602001908080601f0160208091040260200160405190810160405280939291908181526020018383808284378201915050505050509190803590602001908201803590602001908080601f0160208091040260200160405190810160405280939291908181526020018383808284378201915050505050509190803573ffffffffffffffffffffffffffffffffffffffff16906020019091905050610c31565b005b341561032a57600080fd5b61035f600480803590602001909190803573ffffffffffffffffffffffffffffffffffffffff16906020019091905050610d63565b604051808215151515815260200191505060405180910390f35b341561038457600080fd5b6103f7600480803573ffffffffffffffffffffffffffffffffffffffff1690602001909190803573ffffffffffffffffffffffffffffffffffffffff1690602001909190803590602001909190803573ffffffffffffffffffffffffffffffffffffffff16906020019091905050610e38565b604051808215151515815260200191505060405180910390f35b341561041c57600080fd5b610435600480803560ff16906020019091905050610f43565b604051808273ffffffffffffffffffffffffffffffffffffffff1673ffffffffffffffffffffffffffffffffffffffff16815260200191505060405180910390f35b341561048257600080fd5b6104d2600480803590602001908201803590602001908080601f01602080910402602001604051908101604052809392919081815260200183838082843782019150505050505091905050610f89565b604051808273ffffffffffffffffffffffffffffffffffffffff1673ffffffffffffffffffffffffffffffffffffffff16815260200191505060405180910390f35b341561051f57600080fd5b61052761101e565b6040518082815260200191505060405180910390f35b61054561102a565b60008054806001018281610559919061106e565b9160005260206000209001600084909190916101000a81548173ffffffffffffffffffffffffffffffffffffffff021916908373ffffffffffffffffffffffffffffffffffffffff160217905550506001836040518082805190602001908083835b6020831015156105e057805182526020820191506020810190506020830392506105bb565b6001836020036101000a038019825116818451168082178552505050505050905001915050908152602001604051809103902060606040519081016040529081600082018054600181600116156101000203166002900480601f0160208091040260200160405190810160405280929190818152602001828054600181600116156101000203166002900480156106b85780601f1061068d576101008083540402835291602001916106b8565b820191906000526020600020905b81548152906001019060200180831161069b57829003601f168201915b50505050508152602001600182018054600181600116156101000203166002900480601f01602080910402602001604051908101604052809291908181526020018280546001816001161561010002031660029004801561075a5780601f1061072f5761010080835404028352916020019161075a565b820191906000526020600020905b81548152906001019060200180831161073d57829003601f168201915b505050505081526020016002820160009054906101000a900473ffffffffffffffffffffffffffffffffffffffff1673ffffffffffffffffffffffffffffffffffffffff1673ffffffffffffffffffffffffffffffffffffffff1681525050905080600260008473ffffffffffffffffffffffffffffffffffffffff1673ffffffffffffffffffffffffffffffffffffffff168152602001908152602001600020600082015181600001908051906020019061081792919061109a565b50602082015181600101908051906020019061083492919061109a565b5060408201518160020160006101000a81548173ffffffffffffffffffffffffffffffffffffffff021916908373ffffffffffffffffffffffffffffffffffffffff1602179055509050506001836040518082805190602001908083835b6020831015156108b75780518252602082019150602081019050602083039250610892565b6001836020036101000a0380198251168184511680821785525050505050509050019150509081526020016040518091039020600080820160006108fb919061111a565b60018201600061090b919061111a565b6002820160006101000a81549073ffffffffffffffffffffffffffffffffffffffff02191690555050816003846040518082805190602001908083835b60208310151561096d5780518252602082019150602081019050602083039250610948565b6001836020036101000a038019825116818451168082178552505050505050905001915050908152602001604051809103902060006101000a81548173ffffffffffffffffffffffffffffffffffffffff021916908373ffffffffffffffffffffffffffffffffffffffff160217905550505050565b6109eb611162565b6109f3611162565b600080600080600260008873ffffffffffffffffffffffffffffffffffffffff1673ffffffffffffffffffffffffffffffffffffffff1681526020019081526020016000206000019250600260008873ffffffffffffffffffffffffffffffffffffffff1673ffffffffffffffffffffffffffffffffffffffff1681526020019081526020016000206001019150600260008873ffffffffffffffffffffffffffffffffffffffff1673ffffffffffffffffffffffffffffffffffffffff16815260200190815260200160002060020160009054906101000a900473ffffffffffffffffffffffffffffffffffffffff169050828282828054600181600116156101000203166002900480601f016020809104026020016040519081016040528092919081815260200182805460018160011615610100020316600290048015610b7e5780601f10610b5357610100808354040283529160200191610b7e565b820191906000526020600020905b815481529060010190602001808311610b6157829003601f168201915b50505050509250818054600181600116156101000203166002900480601f016020809104026020016040519081016040528092919081815260200182805460018160011615610100020316600290048015610c1a5780601f10610bef57610100808354040283529160200191610c1a565b820191906000526020600020905b815481529060010190602001808311610bfd57829003601f168201915b505050505091509550955095505050509193909250565b610c3961102a565b6060604051908101604052808581526020018481526020018373ffffffffffffffffffffffffffffffffffffffff168152509050806001846040518082805190602001908083835b602083101515610ca65780518252602082019150602081019050602083039250610c81565b6001836020036101000a03801982511681845116808217855250505050505090500191505090815260200160405180910390206000820151816000019080519060200190610cf592919061109a565b506020820151816001019080519060200190610d1292919061109a565b5060408201518160020160006101000a81548173ffffffffffffffffffffffffffffffffffffffff021916908373ffffffffffffffffffffffffffffffffffffffff16021790555090505050505050565b6000808290508073ffffffffffffffffffffffffffffffffffffffff166340c10f1933866000604051602001526040518363ffffffff167c0100000000000000000000000000000000000000000000000000000000028152600401808373ffffffffffffffffffffffffffffffffffffffff1673ffffffffffffffffffffffffffffffffffffffff16815260200182815260200192505050602060405180830381600087803b1515610e1457600080fd5b6102c65a03f11515610e2557600080fd5b5050506040518051905091505092915050565b6000808290508073ffffffffffffffffffffffffffffffffffffffff166323b872dd8787876000604051602001526040518463ffffffff167c0100000000000000000000000000000000000000000000000000000000028152600401808473ffffffffffffffffffffffffffffffffffffffff1673ffffffffffffffffffffffffffffffffffffffff1681526020018373ffffffffffffffffffffffffffffffffffffffff1673ffffffffffffffffffffffffffffffffffffffff1681526020018281526020019350505050602060405180830381600087803b1515610f1d57600080fd5b6102c65a03f11515610f2e57600080fd5b50505060405180519050915050949350505050565b6000808260ff16815481101515610f5657fe5b906000526020600020900160009054906101000a900473ffffffffffffffffffffffffffffffffffffffff169050919050565b60006003826040518082805190602001908083835b602083101515610fc35780518252602082019150602081019050602083039250610f9e565b6001836020036101000a038019825116818451168082178552505050505050905001915050908152602001604051809103902060009054906101000a900473ffffffffffffffffffffffffffffffffffffffff169050919050565b60008080549050905090565b60606040519081016040528061103e611176565b815260200161104b611176565b8152602001600073ffffffffffffffffffffffffffffffffffffffff1681525090565b81548183558181151161109557818360005260206000209182019101611094919061118a565b5b505050565b828054600181600116156101000203166002900490600052602060002090601f016020900481019282601f106110db57805160ff1916838001178555611109565b82800160010185558215611109579182015b828111156111085782518255916020019190600101906110ed565b5b509050611116919061118a565b5090565b50805460018160011615610100020316600290046000825580601f10611140575061115f565b601f01602090049060005260206000209081019061115e919061118a565b5b50565b602060405190810160405280600081525090565b602060405190810160405280600081525090565b6111ac91905b808211156111a8576000816000905550600101611190565b5090565b905600a165627a7a723058204ab0778fd0ea327255ebe07cc288a5aea1960fa09c27d61109a434becee171c90029",
  "source": "pragma solidity ^0.4.18;\n\nimport './token/StandardToken.sol';\nimport './token/BurnableToken.sol';\nimport './token/MintableToken.sol';\nimport './math/SafeMath.sol';\n\n/**\n  * An ERC20 compliant token generator Contract with all the basic functionality of\n  * Transfer, TransferFrom, GetBalance\n  * Basic ERC20 functionality extended to included token burnability and token mintability\n**/\n\ncontract TokenizedAsset is StandardToken, BurnableToken, MintableToken {\n\n    string  public name;\n    string  public symbol;\n    uint8   public constant decimals = 18;\n\n    /**\n     * Asset/Token constructor\n     *\n     * @param _name    The name of the token to be created\n     * @param _name    The symbol of the token to be created\n     */\n    function TokenizedAsset (string _name, string _symbol) payable {\n        name = _name;\n        symbol = _symbol;\n    }\n\n    /**\n     * Overrides the burn function\n     *\n     * @param _value    The amount of tokens to burn in mini-RBC\n     */\n    function burn(uint256 _value) public {\n        super.burn(_value);\n        Transfer(msg.sender, address(0x0), _value);\n    }\n\n    /**\n     * Overrides the mint function\n     *\n     * @param _to       The beneficiary of the mint\n     * @param _value    The amount to be minted\n     */\n    function mint(address _to, uint256 _value) public returns (bool) {\n        return super.mint(_to, _value);\n    }\n\n    /**\n     * Overrides the transferFrom function\n     *\n     * @param _from    The amount of tokens to burn in mini-RBC\n     * @param _to    The amount of tokens to burn in mini-RBC\n     * @param _amount    The amount of tokens to burn in mini-RBC\n     */\n    function transferFrom(address _from, address _to, uint _amount) public returns (bool) {\n        return super.transferFrom(_from, _to, _amount);\n    }\n}\n\n/**\n  * A Contract to create and manage Sources for various agricultural/horticultural/forest produce\n  * that are part of some arbitrary supply/value chain\n**/\ncontract Sources {\n\n    struct Source {\n      string name;\n      string email;\n      address outgoingAsset;\n    }\n\n    address[] sourceAddrs;\n\n    mapping (string => Source) TempSources;\n    mapping (address => Source) Sources;\n\n    mapping (string => address) emailAccSource;\n\n    /**\n     * Method to create a Temp Source till an Admin consolidates it with a wallet address.\n     * Source also associated with an outgoing asset/token\n     *\n     * @param _name    The name of the Source\n     * @param _email    The email of the Source's admin\n     * @param _outgoingAsset    The address of the asset/token Contract address that the Source can transfer out to another Source in the value chain\n     */\n    function createTempSource(string _name, string _email, address _outgoingAsset) {\n        Source memory d = Source(_name, _email, _outgoingAsset);\n        TempSources[_email] = d;\n    }\n\n    /**\n     * Method to consolidate a Source with an associated admin's wallet address.\n     * Source also associated with an outgoing asset/token\n     *\n     * @param _email    The email of the Source's admin\n     * @param _accAddr    The wallet address the Source\n     */\n    function createSource(string _email, address _accAddr) {\n        sourceAddrs.push(_accAddr);\n        Source memory d = TempSources[_email];\n        Sources[_accAddr] = d;\n\n        delete TempSources[_email];\n        emailAccSource[_email] = _accAddr;\n    }\n\n    /**\n     * Method to get a Source using it's wallet address\n     *\n     * @param _accAddr    The wallet address the source\n     */\n    function getSource(address _accAddr) constant returns(string, string, address) {\n        string name = Sources[_accAddr].name;\n        string email = Sources[_accAddr].email;\n        address outgoingAsset = Sources[_accAddr].outgoingAsset;\n        return(name, email, outgoingAsset);\n    }\n\n    /**\n     * Method to get a Source's Wallet address from an arbitrary array\n     *\n     * @param index    The index to be fetched\n     */\n    function getSourceAccAddr(uint8 index) constant returns (address) {\n        return sourceAddrs[index];\n    }\n\n    /**\n     * Method to get the size of the arbitrary source address array\n     *\n     */\n    function getSourcesSize() constant returns (uint) {\n        return sourceAddrs.length;\n    }\n\n    /**\n     * Method to get a Source's address using the admin email\n     *\n     * @param email    The email of the admin of a specific source\n     */\n    function getAccWithEmail(string email) constant returns (address) {\n        return emailAccSource[email];\n    }\n\n    /**\n     * Method to create(mint) a specific asset/token\n     *\n     * @param amount    The number of tokens to be minted\n     * @param assetContractAddr    The asset/token contract address\n     */\n    function addAssetAmount(uint amount, address assetContractAddr) returns (bool) {\n        TokenizedAsset asset = TokenizedAsset(assetContractAddr);\n        return asset.mint(msg.sender, amount);\n    }\n\n    /**\n     * Method to enable transfer of a specific Asset/Token from source wallet to a department wallet\n     *\n     * @param from    The sender's wallet address\n     * @param to    The receiver's wallet address\n     * @param amount    The number of tokens to be transferred\n     * @param assetContractAddr    The asset/token contract address\n     */\n    function transferAsset(address from, address to, uint amount, address assetContractAddr) returns (bool) {\n        TokenizedAsset asset = TokenizedAsset(assetContractAddr);\n        return asset.transferFrom(from, to, amount);\n    }\n}\n",
  "sourcePath": "/Users/mayurrelekar/dev/pista/contracts/Sources.sol",
  "compiler": {
    "name": "solc",
    "version": "0.4.18+commit.9cf6e910.Emscripten.clang"
  },
  "schemaVersion": "1.0.1",
  "updatedAt": "2018-01-24T10:32:58.402Z"
}