{
  "contractName": "StandardToken",
  "abi": [
    {
      "constant": true,
      "inputs": [],
      "name": "totalSupply",
      "outputs": [
        {
          "name": "",
          "type": "uint256"
        }
      ],
      "payable": false,
      "stateMutability": "view",
      "type": "function"
    },
    {
      "constant": false,
      "inputs": [
        {
          "name": "_from",
          "type": "address"
        },
        {
          "name": "_to",
          "type": "address"
        },
        {
          "name": "_value",
          "type": "uint256"
        }
      ],
      "name": "transferFrom",
      "outputs": [
        {
          "name": "",
          "type": "bool"
        }
      ],
      "payable": false,
      "stateMutability": "nonpayable",
      "type": "function"
    },
    {
      "constant": true,
      "inputs": [
        {
          "name": "_owner",
          "type": "address"
        }
      ],
      "name": "balanceOf",
      "outputs": [
        {
          "name": "balance",
          "type": "uint256"
        }
      ],
      "payable": false,
      "stateMutability": "view",
      "type": "function"
    },
    {
      "constant": false,
      "inputs": [
        {
          "name": "_to",
          "type": "address"
        },
        {
          "name": "_value",
          "type": "uint256"
        }
      ],
      "name": "transfer",
      "outputs": [
        {
          "name": "",
          "type": "bool"
        }
      ],
      "payable": false,
      "stateMutability": "nonpayable",
      "type": "function"
    },
    {
      "anonymous": false,
      "inputs": [
        {
          "indexed": true,
          "name": "from",
          "type": "address"
        },
        {
          "indexed": true,
          "name": "to",
          "type": "address"
        },
        {
          "indexed": false,
          "name": "value",
          "type": "uint256"
        }
      ],
      "name": "Transfer",
      "type": "event"
    }
  ],
  "bytecode": "0x6060604052341561000f57600080fd5b6108458061001e6000396000f300606060405260043610610062576000357c0100000000000000000000000000000000000000000000000000000000900463ffffffff16806318160ddd1461006757806323b872dd1461009057806370a0823114610109578063a9059cbb14610156575b600080fd5b341561007257600080fd5b61007a6101b0565b6040518082815260200191505060405180910390f35b341561009b57600080fd5b6100ef600480803573ffffffffffffffffffffffffffffffffffffffff1690602001909190803573ffffffffffffffffffffffffffffffffffffffff169060200190919080359060200190919050506101b6565b604051808215151515815260200191505060405180910390f35b341561011457600080fd5b610140600480803573ffffffffffffffffffffffffffffffffffffffff16906020019091905050610575565b6040518082815260200191505060405180910390f35b341561016157600080fd5b610196600480803573ffffffffffffffffffffffffffffffffffffffff169060200190919080359060200190919050506105be565b604051808215151515815260200191505060405180910390f35b60005481565b60008073ffffffffffffffffffffffffffffffffffffffff168373ffffffffffffffffffffffffffffffffffffffff16141515156101f357600080fd5b600160008573ffffffffffffffffffffffffffffffffffffffff1673ffffffffffffffffffffffffffffffffffffffff16815260200190815260200160002054821115151561024157600080fd5b600260008573ffffffffffffffffffffffffffffffffffffffff1673ffffffffffffffffffffffffffffffffffffffff16815260200190815260200160002060003373ffffffffffffffffffffffffffffffffffffffff1673ffffffffffffffffffffffffffffffffffffffff1681526020019081526020016000205482111515156102cc57600080fd5b61031e82600160008773ffffffffffffffffffffffffffffffffffffffff1673ffffffffffffffffffffffffffffffffffffffff168152602001908152602001600020546107e290919063ffffffff16565b600160008673ffffffffffffffffffffffffffffffffffffffff1673ffffffffffffffffffffffffffffffffffffffff168152602001908152602001600020819055506103b382600160008673ffffffffffffffffffffffffffffffffffffffff1673ffffffffffffffffffffffffffffffffffffffff168152602001908152602001600020546107fb90919063ffffffff16565b600160008573ffffffffffffffffffffffffffffffffffffffff1673ffffffffffffffffffffffffffffffffffffffff1681526020019081526020016000208190555061048582600260008773ffffffffffffffffffffffffffffffffffffffff1673ffffffffffffffffffffffffffffffffffffffff16815260200190815260200160002060003373ffffffffffffffffffffffffffffffffffffffff1673ffffffffffffffffffffffffffffffffffffffff168152602001908152602001600020546107e290919063ffffffff16565b600260008673ffffffffffffffffffffffffffffffffffffffff1673ffffffffffffffffffffffffffffffffffffffff16815260200190815260200160002060003373ffffffffffffffffffffffffffffffffffffffff1673ffffffffffffffffffffffffffffffffffffffff168152602001908152602001600020819055508273ffffffffffffffffffffffffffffffffffffffff168473ffffffffffffffffffffffffffffffffffffffff167fddf252ad1be2c89b69c2b068fc378daa952ba7f163c4a11628f55a4df523b3ef846040518082815260200191505060405180910390a3600190509392505050565b6000600160008373ffffffffffffffffffffffffffffffffffffffff1673ffffffffffffffffffffffffffffffffffffffff168152602001908152602001600020549050919050565b60008073ffffffffffffffffffffffffffffffffffffffff168373ffffffffffffffffffffffffffffffffffffffff16141515156105fb57600080fd5b600160003373ffffffffffffffffffffffffffffffffffffffff1673ffffffffffffffffffffffffffffffffffffffff16815260200190815260200160002054821115151561064957600080fd5b61069b82600160003373ffffffffffffffffffffffffffffffffffffffff1673ffffffffffffffffffffffffffffffffffffffff168152602001908152602001600020546107e290919063ffffffff16565b600160003373ffffffffffffffffffffffffffffffffffffffff1673ffffffffffffffffffffffffffffffffffffffff1681526020019081526020016000208190555061073082600160008673ffffffffffffffffffffffffffffffffffffffff1673ffffffffffffffffffffffffffffffffffffffff168152602001908152602001600020546107fb90919063ffffffff16565b600160008573ffffffffffffffffffffffffffffffffffffffff1673ffffffffffffffffffffffffffffffffffffffff168152602001908152602001600020819055508273ffffffffffffffffffffffffffffffffffffffff163373ffffffffffffffffffffffffffffffffffffffff167fddf252ad1be2c89b69c2b068fc378daa952ba7f163c4a11628f55a4df523b3ef846040518082815260200191505060405180910390a36001905092915050565b60008282111515156107f057fe5b818303905092915050565b600080828401905083811015151561080f57fe5b80915050929150505600a165627a7a72305820bbdbe9a4e361953a972c04f8d87cdeafd0a66ea724c466fdfac807517eb4010d0029",
  "source": "pragma solidity ^0.4.18;\n\n\nimport './BasicToken.sol';\nimport './ERC20.sol';\n\n\n/**\n * @title Standard ERC20 token\n *\n * @dev Implementation of the basic standard token.\n * @dev https://github.com/ethereum/EIPs/issues/20\n * @dev Based on code by FirstBlood: https://github.com/Firstbloodio/token/blob/master/smart_contract/FirstBloodToken.sol\n */\ncontract StandardToken is ERC20, BasicToken {\n\n  mapping (address => mapping (address => uint256)) internal allowed;\n\n\n  /**\n   * @dev Transfer tokens from one address to another\n   * @param _from address The address which you want to send tokens from\n   * @param _to address The address which you want to transfer to\n   * @param _value uint256 the amount of tokens to be transferred\n   */\n  function transferFrom(address _from, address _to, uint256 _value) public returns (bool) {\n    require(_to != address(0));\n    require(_value <= balances[_from]);\n    require(_value <= allowed[_from][msg.sender]);\n\n    balances[_from] = balances[_from].sub(_value);\n    balances[_to] = balances[_to].add(_value);\n    allowed[_from][msg.sender] = allowed[_from][msg.sender].sub(_value);\n    Transfer(_from, _to, _value);\n    return true;\n  }\n\n  // /**\n  //  * @dev Approve the passed address to spend the specified amount of tokens on behalf of msg.sender.\n  //  *\n  //  * Beware that changing an allowance with this method brings the risk that someone may use both the old\n  //  * and the new allowance by unfortunate transaction ordering. One possible solution to mitigate this\n  //  * race condition is to first reduce the spender's allowance to 0 and set the desired value afterwards:\n  //  * https://github.com/ethereum/EIPs/issues/20#issuecomment-263524729\n  //  * @param _spender The address which will spend the funds.\n  //  * @param _value The amount of tokens to be spent.\n  //  */\n  // function approve(address _spender, uint256 _value) public returns (bool) {\n  //   allowed[msg.sender][_spender] = _value;\n  //   Approval(msg.sender, _spender, _value);\n  //   return true;\n  // }\n\n  // /**\n  //  * @dev Function to check the amount of tokens that an owner allowed to a spender.\n  //  * @param _owner address The address which owns the funds.\n  //  * @param _spender address The address which will spend the funds.\n  //  * @return A uint256 specifying the amount of tokens still available for the spender.\n  //  */\n  // function allowance(address _owner, address _spender) public view returns (uint256) {\n  //   return allowed[_owner][_spender];\n  // }\n\n  // /**\n  //  * @dev Increase the amount of tokens that an owner allowed to a spender.\n  //  *\n  //  * approve should be called when allowed[_spender] == 0. To increment\n  //  * allowed value is better to use this function to avoid 2 calls (and wait until\n  //  * the first transaction is mined)\n  //  * From MonolithDAO Token.sol\n  //  * @param _spender The address which will spend the funds.\n  //  * @param _addedValue The amount of tokens to increase the allowance by.\n  //  */\n  // function increaseApproval(address _spender, uint _addedValue) public returns (bool) {\n  //   allowed[msg.sender][_spender] = allowed[msg.sender][_spender].add(_addedValue);\n  //   Approval(msg.sender, _spender, allowed[msg.sender][_spender]);\n  //   return true;\n  // }\n\n  // /**\n  //  * @dev Decrease the amount of tokens that an owner allowed to a spender.\n  //  *\n  //  * approve should be called when allowed[_spender] == 0. To decrement\n  //  * allowed value is better to use this function to avoid 2 calls (and wait until\n  //  * the first transaction is mined)\n  //  * From MonolithDAO Token.sol\n  //  * @param _spender The address which will spend the funds.\n  //  * @param _subtractedValue The amount of tokens to decrease the allowance by.\n  //  */\n  // function decreaseApproval(address _spender, uint _subtractedValue) public returns (bool) {\n  //   uint oldValue = allowed[msg.sender][_spender];\n  //   if (_subtractedValue > oldValue) {\n  //     allowed[msg.sender][_spender] = 0;\n  //   } else {\n  //     allowed[msg.sender][_spender] = oldValue.sub(_subtractedValue);\n  //   }\n  //   Approval(msg.sender, _spender, allowed[msg.sender][_spender]);\n  //   return true;\n  // }\n\n}\n",
  "sourcePath": "/Users/mayurrelekar/dev/pista/contracts/token/StandardToken.sol",
  "compiler": {
    "name": "solc",
    "version": "0.4.18+commit.9cf6e910.Emscripten.clang"
  },
  "schemaVersion": "1.0.1",
  "updatedAt": "2018-01-24T09:05:38.815Z"
}