{
  "contractName": "TokenizedAsset",
  "abi": [
    {
      "constant": true,
      "inputs": [],
      "name": "name",
      "outputs": [
        {
          "name": "",
          "type": "string"
        }
      ],
      "payable": false,
      "stateMutability": "view",
      "type": "function"
    },
    {
      "constant": true,
      "inputs": [],
      "name": "totalSupply",
      "outputs": [
        {
          "name": "",
          "type": "uint256"
        }
      ],
      "payable": false,
      "stateMutability": "view",
      "type": "function"
    },
    {
      "constant": false,
      "inputs": [
        {
          "name": "_from",
          "type": "address"
        },
        {
          "name": "_to",
          "type": "address"
        },
        {
          "name": "_value",
          "type": "uint256"
        }
      ],
      "name": "transferFrom",
      "outputs": [
        {
          "name": "",
          "type": "bool"
        }
      ],
      "payable": false,
      "stateMutability": "nonpayable",
      "type": "function"
    },
    {
      "constant": true,
      "inputs": [],
      "name": "DECIMALS",
      "outputs": [
        {
          "name": "",
          "type": "uint8"
        }
      ],
      "payable": false,
      "stateMutability": "view",
      "type": "function"
    },
    {
      "constant": false,
      "inputs": [
        {
          "name": "_to",
          "type": "address"
        },
        {
          "name": "_amount",
          "type": "uint256"
        }
      ],
      "name": "mint",
      "outputs": [
        {
          "name": "",
          "type": "bool"
        }
      ],
      "payable": false,
      "stateMutability": "nonpayable",
      "type": "function"
    },
    {
      "constant": false,
      "inputs": [
        {
          "name": "_value",
          "type": "uint256"
        }
      ],
      "name": "burn",
      "outputs": [],
      "payable": false,
      "stateMutability": "nonpayable",
      "type": "function"
    },
    {
      "constant": true,
      "inputs": [
        {
          "name": "_owner",
          "type": "address"
        }
      ],
      "name": "balanceOf",
      "outputs": [
        {
          "name": "balance",
          "type": "uint256"
        }
      ],
      "payable": false,
      "stateMutability": "view",
      "type": "function"
    },
    {
      "constant": true,
      "inputs": [],
      "name": "symbol",
      "outputs": [
        {
          "name": "",
          "type": "string"
        }
      ],
      "payable": false,
      "stateMutability": "view",
      "type": "function"
    },
    {
      "constant": false,
      "inputs": [
        {
          "name": "_to",
          "type": "address"
        },
        {
          "name": "_value",
          "type": "uint256"
        }
      ],
      "name": "transfer",
      "outputs": [
        {
          "name": "",
          "type": "bool"
        }
      ],
      "payable": false,
      "stateMutability": "nonpayable",
      "type": "function"
    },
    {
      "inputs": [
        {
          "name": "_name",
          "type": "string"
        },
        {
          "name": "_symbol",
          "type": "string"
        }
      ],
      "payable": true,
      "stateMutability": "payable",
      "type": "constructor"
    },
    {
      "anonymous": false,
      "inputs": [
        {
          "indexed": true,
          "name": "burner",
          "type": "address"
        },
        {
          "indexed": false,
          "name": "value",
          "type": "uint256"
        }
      ],
      "name": "Burn",
      "type": "event"
    },
    {
      "anonymous": false,
      "inputs": [
        {
          "indexed": true,
          "name": "from",
          "type": "address"
        },
        {
          "indexed": true,
          "name": "to",
          "type": "address"
        },
        {
          "indexed": false,
          "name": "value",
          "type": "uint256"
        }
      ],
      "name": "Transfer",
      "type": "event"
    }
  ],
  "bytecode": "0x6060604052604051610ea8380380610ea883398101604052808051820191906020018051820191905050816003908051906020019061003f92919061005e565b50806004908051906020019061005692919061005e565b505050610103565b828054600181600116156101000203166002900490600052602060002090601f016020900481019282601f1061009f57805160ff19168380011785556100cd565b828001600101855582156100cd579182015b828111156100cc5782518255916020019190600101906100b1565b5b5090506100da91906100de565b5090565b61010091905b808211156100fc5760008160009055506001016100e4565b5090565b90565b610d96806101126000396000f300606060405260043610610099576000357c0100000000000000000000000000000000000000000000000000000000900463ffffffff16806306fdde031461009e57806318160ddd1461012c57806323b872dd146101555780632e0f2625146101ce57806340c10f19146101fd57806342966c681461025757806370a082311461027a57806395d89b41146102c7578063a9059cbb14610355575b600080fd5b34156100a957600080fd5b6100b16103af565b6040518080602001828103825283818151815260200191508051906020019080838360005b838110156100f15780820151818401526020810190506100d6565b50505050905090810190601f16801561011e5780820380516001836020036101000a031916815260200191505b509250505060405180910390f35b341561013757600080fd5b61013f61044d565b6040518082815260200191505060405180910390f35b341561016057600080fd5b6101b4600480803573ffffffffffffffffffffffffffffffffffffffff1690602001909190803573ffffffffffffffffffffffffffffffffffffffff16906020019091908035906020019091905050610453565b604051808215151515815260200191505060405180910390f35b34156101d957600080fd5b6101e1610812565b604051808260ff1660ff16815260200191505060405180910390f35b341561020857600080fd5b61023d600480803573ffffffffffffffffffffffffffffffffffffffff16906020019091908035906020019091905050610817565b604051808215151515815260200191505060405180910390f35b341561026257600080fd5b61027860048080359060200190919050506108d3565b005b341561028557600080fd5b6102b1600480803573ffffffffffffffffffffffffffffffffffffffff16906020019091905050610a28565b6040518082815260200191505060405180910390f35b34156102d257600080fd5b6102da610a71565b6040518080602001828103825283818151815260200191508051906020019080838360005b8381101561031a5780820151818401526020810190506102ff565b50505050905090810190601f1680156103475780820380516001836020036101000a031916815260200191505b509250505060405180910390f35b341561036057600080fd5b610395600480803573ffffffffffffffffffffffffffffffffffffffff16906020019091908035906020019091905050610b0f565b604051808215151515815260200191505060405180910390f35b60038054600181600116156101000203166002900480601f0160208091040260200160405190810160405280929190818152602001828054600181600116156101000203166002900480156104455780601f1061041a57610100808354040283529160200191610445565b820191906000526020600020905b81548152906001019060200180831161042857829003601f168201915b505050505081565b60005481565b60008073ffffffffffffffffffffffffffffffffffffffff168373ffffffffffffffffffffffffffffffffffffffff161415151561049057600080fd5b600160008573ffffffffffffffffffffffffffffffffffffffff1673ffffffffffffffffffffffffffffffffffffffff1681526020019081526020016000205482111515156104de57600080fd5b600260008573ffffffffffffffffffffffffffffffffffffffff1673ffffffffffffffffffffffffffffffffffffffff16815260200190815260200160002060003373ffffffffffffffffffffffffffffffffffffffff1673ffffffffffffffffffffffffffffffffffffffff16815260200190815260200160002054821115151561056957600080fd5b6105bb82600160008773ffffffffffffffffffffffffffffffffffffffff1673ffffffffffffffffffffffffffffffffffffffff16815260200190815260200160002054610d3390919063ffffffff16565b600160008673ffffffffffffffffffffffffffffffffffffffff1673ffffffffffffffffffffffffffffffffffffffff1681526020019081526020016000208190555061065082600160008673ffffffffffffffffffffffffffffffffffffffff1673ffffffffffffffffffffffffffffffffffffffff16815260200190815260200160002054610d4c90919063ffffffff16565b600160008573ffffffffffffffffffffffffffffffffffffffff1673ffffffffffffffffffffffffffffffffffffffff1681526020019081526020016000208190555061072282600260008773ffffffffffffffffffffffffffffffffffffffff1673ffffffffffffffffffffffffffffffffffffffff16815260200190815260200160002060003373ffffffffffffffffffffffffffffffffffffffff1673ffffffffffffffffffffffffffffffffffffffff16815260200190815260200160002054610d3390919063ffffffff16565b600260008673ffffffffffffffffffffffffffffffffffffffff1673ffffffffffffffffffffffffffffffffffffffff16815260200190815260200160002060003373ffffffffffffffffffffffffffffffffffffffff1673ffffffffffffffffffffffffffffffffffffffff168152602001908152602001600020819055508273ffffffffffffffffffffffffffffffffffffffff168473ffffffffffffffffffffffffffffffffffffffff167fddf252ad1be2c89b69c2b068fc378daa952ba7f163c4a11628f55a4df523b3ef846040518082815260200191505060405180910390a3600190509392505050565b601281565b600061082e82600054610d4c90919063ffffffff16565b60008190555061088682600160008673ffffffffffffffffffffffffffffffffffffffff1673ffffffffffffffffffffffffffffffffffffffff16815260200190815260200160002054610d4c90919063ffffffff16565b600160008573ffffffffffffffffffffffffffffffffffffffff1673ffffffffffffffffffffffffffffffffffffffff168152602001908152602001600020819055506001905092915050565b6000600160003373ffffffffffffffffffffffffffffffffffffffff1673ffffffffffffffffffffffffffffffffffffffff16815260200190815260200160002054821115151561092357600080fd5b33905061097882600160008473ffffffffffffffffffffffffffffffffffffffff1673ffffffffffffffffffffffffffffffffffffffff16815260200190815260200160002054610d3390919063ffffffff16565b600160008373ffffffffffffffffffffffffffffffffffffffff1673ffffffffffffffffffffffffffffffffffffffff168152602001908152602001600020819055506109d082600054610d3390919063ffffffff16565b6000819055508073ffffffffffffffffffffffffffffffffffffffff167fcc16f5dbb4873280815c1ee09dbd06736cffcc184412cf7a71a0fdb75d397ca5836040518082815260200191505060405180910390a25050565b6000600160008373ffffffffffffffffffffffffffffffffffffffff1673ffffffffffffffffffffffffffffffffffffffff168152602001908152602001600020549050919050565b60048054600181600116156101000203166002900480601f016020809104026020016040519081016040528092919081815260200182805460018160011615610100020316600290048015610b075780601f10610adc57610100808354040283529160200191610b07565b820191906000526020600020905b815481529060010190602001808311610aea57829003601f168201915b505050505081565b60008073ffffffffffffffffffffffffffffffffffffffff168373ffffffffffffffffffffffffffffffffffffffff1614151515610b4c57600080fd5b600160003373ffffffffffffffffffffffffffffffffffffffff1673ffffffffffffffffffffffffffffffffffffffff168152602001908152602001600020548211151515610b9a57600080fd5b610bec82600160003373ffffffffffffffffffffffffffffffffffffffff1673ffffffffffffffffffffffffffffffffffffffff16815260200190815260200160002054610d3390919063ffffffff16565b600160003373ffffffffffffffffffffffffffffffffffffffff1673ffffffffffffffffffffffffffffffffffffffff16815260200190815260200160002081905550610c8182600160008673ffffffffffffffffffffffffffffffffffffffff1673ffffffffffffffffffffffffffffffffffffffff16815260200190815260200160002054610d4c90919063ffffffff16565b600160008573ffffffffffffffffffffffffffffffffffffffff1673ffffffffffffffffffffffffffffffffffffffff168152602001908152602001600020819055508273ffffffffffffffffffffffffffffffffffffffff163373ffffffffffffffffffffffffffffffffffffffff167fddf252ad1be2c89b69c2b068fc378daa952ba7f163c4a11628f55a4df523b3ef846040518082815260200191505060405180910390a36001905092915050565b6000828211151515610d4157fe5b818303905092915050565b6000808284019050838110151515610d6057fe5b80915050929150505600a165627a7a72305820997de4173c86ecd8ab924111e545263e98c06298f6fa1c043b5a9f2c77c678960029",
  "source": "pragma solidity ^0.4.18;\n\nimport './token/StandardToken.sol';\nimport './token/BurnableToken.sol';\nimport './token/MintableToken.sol';\nimport './math/SafeMath.sol';\n\n/**\n  * An ERC20 compliant token generator Contract with all the basic functionality of\n  * Transfer, TransferFrom, GetBalance\n  * Basic ERC20 functionality extended to included token burnability and token mintability\n**/\n\ncontract TokenizedAsset is StandardToken, BurnableToken {\n\n    string  public name;\n    string  public symbol;\n    uint8   public constant DECIMALS = 18;\n\n    /**\n     * Asset/Token constructor\n     *\n     * @param _name    The name of the token to be created\n     * @param _name    The symbol of the token to be created\n     */\n    function TokenizedAsset (string _name, string _symbol) public payable {\n        name = _name;\n        symbol = _symbol;\n    }\n\n    // /**\n    //  * Overrides the burn function\n    //  *\n    //  * @param _value    The amount of tokens to burn\n    //  */\n    // function burn(uint256 _value) public {\n    //     super.burn(_value);\n    //     Transfer(msg.sender, address(0x0), _value);\n    // }\n\n    // /**\n    //  * Overrides the mint function\n    //  *\n    //  * @param _to       The beneficiary of the mint\n    //  * @param _value    The amount to be minted\n    //  */\n    // function mint(address _to, uint256 _value) public returns (bool) {\n    //     return super.mint(_to, _value);\n    // }\n\n    // /**\n    //  * Overrides the transferFrom function\n    //  *\n    //  * @param _from    The account to transfer from\n    //  * @param _to    The account to transfer to\n    //  * @param _amount    The amount to transfer\n    //  */\n    // function transferFrom(address _from, address _to, uint _amount) public returns (bool) {\n    //     return super.transferFrom(_from, _to, _amount);\n    // }\n\n    /**\n    * @dev Function to mint tokens\n    * @param _to The address that will receive the minted tokens.\n    * @param _amount The amount of tokens to mint.\n    * @return A boolean that indicates if the operation was successful.\n    */\n    function mint(address _to, uint256 _amount) public returns (bool) {\n        totalSupply = totalSupply.add(_amount);\n        balances[_to] = balances[_to].add(_amount);\n        //Mint(_to, _amount);\n        //Transfer(address(0), _to, _amount);\n        return true;\n    }\n}\n\n/**\n  * An Asset(Token) Factory Contract to generate arbitrary assets/tokens\n**/\ncontract TokenizedAssetFactory {\n    string[] public names;\n    string[] public symbols;\n    address[] public contracts;\n\n    mapping (address => string) AddressName;\n    mapping (address => string) AddressSymbol;\n\n    /**\n     * Method to call the token constructor and save the name of the token and it's contract address\n     *\n     * @param name    The name of the token to be created\n     * @param symbol    The symbol of the token to be created\n     */\n    function createAssetContract(string name, string symbol) public returns(TokenizedAsset) {\n        TokenizedAsset ta = new TokenizedAsset(name, symbol);\n        names.push(name);\n        symbols.push(symbol);\n        contracts.push(ta);\n\n        AddressName[ta] = name;\n        AddressSymbol[ta] = symbol;\n\n        return ta;\n    }\n\n    /**\n     * Method to fetch a specific asset's name\n     *\n     * @param i    Index to be fetched\n     */\n    function getName(uint i) public constant returns(string) {\n        return names[i];\n    }\n\n    /**\n     * Method to fetch a specific asset's symbol\n     *\n     * @param i    Index to be fetched\n     */\n    function getSymbol(uint i) public constant returns(string) {\n        return symbols[i];\n    }\n\n    /**\n     * Method to fetch a specific asset's contract address\n     *\n     * @param i    Index to be fetched\n     */\n    function getAddress(uint i) public constant returns(address) {\n        return contracts[i];\n    }\n\n    /**\n     * Method to fetch array size\n     *\n     */\n    function getNameSize() public constant returns(uint) {\n        return names.length;\n    }\n\n    /**\n     * Method to fetch Contract Name using the Asset's Contract Address\n     *\n     * @param _assetAddr The Asset's Contract Address\n     */\n    function getContractName(address _assetAddr) public constant returns(string) {\n        return AddressName[_assetAddr];\n    }\n\n    /**\n     * Method to fetch Contract Symbol using the Asset's Contract Address\n     *\n     * @param _assetAddr The Asset's Contract Address\n     */\n    function getContractSymbol(address _assetAddr) public constant returns(string) {\n        return AddressSymbol[_assetAddr];\n    }\n}\n",
  "sourcePath": "/Users/mayurrelekar/dev/pista/contracts/TokenizedAssetFactory.sol",
  "compiler": {
    "name": "solc",
    "version": "0.4.18+commit.9cf6e910.Emscripten.clang"
  },
  "schemaVersion": "1.0.1",
  "updatedAt": "2018-02-07T11:05:21.191Z"
}