{
  "contractName": "TokenizedAssetFactory",
  "abi": [
    {
      "constant": true,
      "inputs": [
        {
          "name": "",
          "type": "uint256"
        }
      ],
      "name": "names",
      "outputs": [
        {
          "name": "",
          "type": "string"
        }
      ],
      "payable": false,
      "stateMutability": "view",
      "type": "function"
    },
    {
      "constant": true,
      "inputs": [
        {
          "name": "",
          "type": "uint256"
        }
      ],
      "name": "contracts",
      "outputs": [
        {
          "name": "",
          "type": "address"
        }
      ],
      "payable": false,
      "stateMutability": "view",
      "type": "function"
    },
    {
      "constant": true,
      "inputs": [
        {
          "name": "i",
          "type": "uint256"
        }
      ],
      "name": "getName",
      "outputs": [
        {
          "name": "",
          "type": "string"
        }
      ],
      "payable": false,
      "stateMutability": "view",
      "type": "function"
    },
    {
      "constant": true,
      "inputs": [
        {
          "name": "i",
          "type": "uint256"
        }
      ],
      "name": "getAddress",
      "outputs": [
        {
          "name": "",
          "type": "address"
        }
      ],
      "payable": false,
      "stateMutability": "view",
      "type": "function"
    },
    {
      "constant": false,
      "inputs": [
        {
          "name": "name",
          "type": "string"
        },
        {
          "name": "symbol",
          "type": "string"
        }
      ],
      "name": "createAssetContract",
      "outputs": [
        {
          "name": "",
          "type": "address"
        }
      ],
      "payable": false,
      "stateMutability": "nonpayable",
      "type": "function"
    }
  ],
  "bytecode": "0x6060604052341561000f57600080fd5b611b848061001e6000396000f30060606040526004361061006d576000357c0100000000000000000000000000000000000000000000000000000000900463ffffffff1680634622ab0314610072578063474da79a1461010e5780636b8ff57414610171578063b93f9b0a1461020d578063d989a25514610270575b600080fd5b341561007d57600080fd5b6100936004808035906020019091905050610350565b6040518080602001828103825283818151815260200191508051906020019080838360005b838110156100d35780820151818401526020810190506100b8565b50505050905090810190601f1680156101005780820380516001836020036101000a031916815260200191505b509250505060405180910390f35b341561011957600080fd5b61012f600480803590602001909190505061040c565b604051808273ffffffffffffffffffffffffffffffffffffffff1673ffffffffffffffffffffffffffffffffffffffff16815260200191505060405180910390f35b341561017c57600080fd5b610192600480803590602001909190505061044b565b6040518080602001828103825283818151815260200191508051906020019080838360005b838110156101d25780820151818401526020810190506101b7565b50505050905090810190601f1680156101ff5780820380516001836020036101000a031916815260200191505b509250505060405180910390f35b341561021857600080fd5b61022e600480803590602001909190505061050d565b604051808273ffffffffffffffffffffffffffffffffffffffff1673ffffffffffffffffffffffffffffffffffffffff16815260200191505060405180910390f35b341561027b57600080fd5b61030e600480803590602001908201803590602001908080601f0160208091040260200160405190810160405280939291908181526020018383808284378201915050505050509190803590602001908201803590602001908080601f01602080910402602001604051908101604052809392919081815260200183838082843782019150505050505091905050610551565b604051808273ffffffffffffffffffffffffffffffffffffffff1673ffffffffffffffffffffffffffffffffffffffff16815260200191505060405180910390f35b60008181548110151561035f57fe5b90600052602060002090016000915090508054600181600116156101000203166002900480601f0160208091040260200160405190810160405280929190818152602001828054600181600116156101000203166002900480156104045780601f106103d957610100808354040283529160200191610404565b820191906000526020600020905b8154815290600101906020018083116103e757829003601f168201915b505050505081565b60018181548110151561041b57fe5b90600052602060002090016000915054906101000a900473ffffffffffffffffffffffffffffffffffffffff1681565b6104536106fa565b60008281548110151561046257fe5b90600052602060002090018054600181600116156101000203166002900480601f0160208091040260200160405190810160405280929190818152602001828054600181600116156101000203166002900480156105015780601f106104d657610100808354040283529160200191610501565b820191906000526020600020905b8154815290600101906020018083116104e457829003601f168201915b50505050509050919050565b600060018281548110151561051e57fe5b906000526020600020900160009054906101000a900473ffffffffffffffffffffffffffffffffffffffff169050919050565b600080838361055e61070e565b808060200180602001838103835285818151815260200191508051906020019080838360005b8381101561059f578082015181840152602081019050610584565b50505050905090810190601f1680156105cc5780820380516001836020036101000a031916815260200191505b50838103825284818151815260200191508051906020019080838360005b838110156106055780820151818401526020810190506105ea565b50505050905090810190601f1680156106325780820380516001836020036101000a031916815260200191505b50945050505050604051809103906000f080151561064f57600080fd5b905060008054806001018281610665919061071e565b91600052602060002090016000869091909150908051906020019061068b92919061074a565b5050600180548060010182816106a191906107ca565b9160005260206000209001600083909190916101000a81548173ffffffffffffffffffffffffffffffffffffffff021916908373ffffffffffffffffffffffffffffffffffffffff160217905550508091505092915050565b602060405190810160405280600081525090565b6040516112c98061089083390190565b8154818355818115116107455781836000526020600020918201910161074491906107f6565b5b505050565b828054600181600116156101000203166002900490600052602060002090601f016020900481019282601f1061078b57805160ff19168380011785556107b9565b828001600101855582156107b9579182015b828111156107b857825182559160200191906001019061079d565b5b5090506107c69190610822565b5090565b8154818355818115116107f1578183600052602060002091820191016107f09190610822565b5b505050565b61081f91905b8082111561081b57600081816108129190610847565b506001016107fc565b5090565b90565b61084491905b80821115610840576000816000905550600101610828565b5090565b90565b50805460018160011615610100020316600290046000825580601f1061086d575061088c565b601f01602090049060005260206000209081019061088b9190610822565b5b5056006060604052604051620012c9380380620012c98339810160405280805182019190602001805182019190505033600360006101000a81548173ffffffffffffffffffffffffffffffffffffffff021916908373ffffffffffffffffffffffffffffffffffffffff160217905550816004908051906020019062000084929190620000a6565b5080600590805190602001906200009d929190620000a6565b50505062000155565b828054600181600116156101000203166002900490600052602060002090601f016020900481019282601f10620000e957805160ff19168380011785556200011a565b828001600101855582156200011a579182015b8281111562000119578251825591602001919060010190620000fc565b5b5090506200012991906200012d565b5090565b6200015291905b808211156200014e57600081600090555060010162000134565b5090565b90565b61116480620001656000396000f3006060604052600436106100af576000357c0100000000000000000000000000000000000000000000000000000000900463ffffffff16806306fdde03146100b457806318160ddd1461014257806323b872dd1461016b578063313ce567146101e457806340c10f191461021357806342966c681461026d57806370a08231146102905780638da5cb5b146102dd57806395d89b4114610332578063a9059cbb146103c0578063f2fde38b1461041a575b600080fd5b34156100bf57600080fd5b6100c7610453565b6040518080602001828103825283818151815260200191508051906020019080838360005b838110156101075780820151818401526020810190506100ec565b50505050905090810190601f1680156101345780820380516001836020036101000a031916815260200191505b509250505060405180910390f35b341561014d57600080fd5b6101556104f1565b6040518082815260200191505060405180910390f35b341561017657600080fd5b6101ca600480803573ffffffffffffffffffffffffffffffffffffffff1690602001909190803573ffffffffffffffffffffffffffffffffffffffff169060200190919080359060200190919050506104f7565b604051808215151515815260200191505060405180910390f35b34156101ef57600080fd5b6101f761050d565b604051808260ff1660ff16815260200191505060405180910390f35b341561021e57600080fd5b610253600480803573ffffffffffffffffffffffffffffffffffffffff16906020019091908035906020019091905050610512565b604051808215151515815260200191505060405180910390f35b341561027857600080fd5b61028e6004808035906020019091905050610526565b005b341561029b57600080fd5b6102c7600480803573ffffffffffffffffffffffffffffffffffffffff16906020019091905050610598565b6040518082815260200191505060405180910390f35b34156102e857600080fd5b6102f06105e1565b604051808273ffffffffffffffffffffffffffffffffffffffff1673ffffffffffffffffffffffffffffffffffffffff16815260200191505060405180910390f35b341561033d57600080fd5b610345610607565b6040518080602001828103825283818151815260200191508051906020019080838360005b8381101561038557808201518184015260208101905061036a565b50505050905090810190601f1680156103b25780820380516001836020036101000a031916815260200191505b509250505060405180910390f35b34156103cb57600080fd5b610400600480803573ffffffffffffffffffffffffffffffffffffffff169060200190919080359060200190919050506106a5565b604051808215151515815260200191505060405180910390f35b341561042557600080fd5b610451600480803573ffffffffffffffffffffffffffffffffffffffff169060200190919050506108c9565b005b60048054600181600116156101000203166002900480601f0160208091040260200160405190810160405280929190818152602001828054600181600116156101000203166002900480156104e95780601f106104be576101008083540402835291602001916104e9565b820191906000526020600020905b8154815290600101906020018083116104cc57829003601f168201915b505050505081565b60005481565b6000610504848484610a21565b90509392505050565b601281565b600061051e8383610de0565b905092915050565b61052f81610fac565b600073ffffffffffffffffffffffffffffffffffffffff163373ffffffffffffffffffffffffffffffffffffffff167fddf252ad1be2c89b69c2b068fc378daa952ba7f163c4a11628f55a4df523b3ef836040518082815260200191505060405180910390a350565b6000600160008373ffffffffffffffffffffffffffffffffffffffff1673ffffffffffffffffffffffffffffffffffffffff168152602001908152602001600020549050919050565b600360009054906101000a900473ffffffffffffffffffffffffffffffffffffffff1681565b60058054600181600116156101000203166002900480601f01602080910402602001604051908101604052809291908181526020018280546001816001161561010002031660029004801561069d5780601f106106725761010080835404028352916020019161069d565b820191906000526020600020905b81548152906001019060200180831161068057829003601f168201915b505050505081565b60008073ffffffffffffffffffffffffffffffffffffffff168373ffffffffffffffffffffffffffffffffffffffff16141515156106e257600080fd5b600160003373ffffffffffffffffffffffffffffffffffffffff1673ffffffffffffffffffffffffffffffffffffffff16815260200190815260200160002054821115151561073057600080fd5b61078282600160003373ffffffffffffffffffffffffffffffffffffffff1673ffffffffffffffffffffffffffffffffffffffff1681526020019081526020016000205461110190919063ffffffff16565b600160003373ffffffffffffffffffffffffffffffffffffffff1673ffffffffffffffffffffffffffffffffffffffff1681526020019081526020016000208190555061081782600160008673ffffffffffffffffffffffffffffffffffffffff1673ffffffffffffffffffffffffffffffffffffffff1681526020019081526020016000205461111a90919063ffffffff16565b600160008573ffffffffffffffffffffffffffffffffffffffff1673ffffffffffffffffffffffffffffffffffffffff168152602001908152602001600020819055508273ffffffffffffffffffffffffffffffffffffffff163373ffffffffffffffffffffffffffffffffffffffff167fddf252ad1be2c89b69c2b068fc378daa952ba7f163c4a11628f55a4df523b3ef846040518082815260200191505060405180910390a36001905092915050565b600360009054906101000a900473ffffffffffffffffffffffffffffffffffffffff1673ffffffffffffffffffffffffffffffffffffffff163373ffffffffffffffffffffffffffffffffffffffff1614151561092557600080fd5b600073ffffffffffffffffffffffffffffffffffffffff168173ffffffffffffffffffffffffffffffffffffffff161415151561096157600080fd5b8073ffffffffffffffffffffffffffffffffffffffff16600360009054906101000a900473ffffffffffffffffffffffffffffffffffffffff1673ffffffffffffffffffffffffffffffffffffffff167f8be0079c531659141344cd1fd0a4f28419497f9722a3daafe3b4186f6b6457e060405160405180910390a380600360006101000a81548173ffffffffffffffffffffffffffffffffffffffff021916908373ffffffffffffffffffffffffffffffffffffffff16021790555050565b60008073ffffffffffffffffffffffffffffffffffffffff168373ffffffffffffffffffffffffffffffffffffffff1614151515610a5e57600080fd5b600160008573ffffffffffffffffffffffffffffffffffffffff1673ffffffffffffffffffffffffffffffffffffffff168152602001908152602001600020548211151515610aac57600080fd5b600260008573ffffffffffffffffffffffffffffffffffffffff1673ffffffffffffffffffffffffffffffffffffffff16815260200190815260200160002060003373ffffffffffffffffffffffffffffffffffffffff1673ffffffffffffffffffffffffffffffffffffffff168152602001908152602001600020548211151515610b3757600080fd5b610b8982600160008773ffffffffffffffffffffffffffffffffffffffff1673ffffffffffffffffffffffffffffffffffffffff1681526020019081526020016000205461110190919063ffffffff16565b600160008673ffffffffffffffffffffffffffffffffffffffff1673ffffffffffffffffffffffffffffffffffffffff16815260200190815260200160002081905550610c1e82600160008673ffffffffffffffffffffffffffffffffffffffff1673ffffffffffffffffffffffffffffffffffffffff1681526020019081526020016000205461111a90919063ffffffff16565b600160008573ffffffffffffffffffffffffffffffffffffffff1673ffffffffffffffffffffffffffffffffffffffff16815260200190815260200160002081905550610cf082600260008773ffffffffffffffffffffffffffffffffffffffff1673ffffffffffffffffffffffffffffffffffffffff16815260200190815260200160002060003373ffffffffffffffffffffffffffffffffffffffff1673ffffffffffffffffffffffffffffffffffffffff1681526020019081526020016000205461110190919063ffffffff16565b600260008673ffffffffffffffffffffffffffffffffffffffff1673ffffffffffffffffffffffffffffffffffffffff16815260200190815260200160002060003373ffffffffffffffffffffffffffffffffffffffff1673ffffffffffffffffffffffffffffffffffffffff168152602001908152602001600020819055508273ffffffffffffffffffffffffffffffffffffffff168473ffffffffffffffffffffffffffffffffffffffff167fddf252ad1be2c89b69c2b068fc378daa952ba7f163c4a11628f55a4df523b3ef846040518082815260200191505060405180910390a3600190509392505050565b6000600360009054906101000a900473ffffffffffffffffffffffffffffffffffffffff1673ffffffffffffffffffffffffffffffffffffffff163373ffffffffffffffffffffffffffffffffffffffff16141515610e3e57600080fd5b610e538260005461111a90919063ffffffff16565b600081905550610eab82600160008673ffffffffffffffffffffffffffffffffffffffff1673ffffffffffffffffffffffffffffffffffffffff1681526020019081526020016000205461111a90919063ffffffff16565b600160008573ffffffffffffffffffffffffffffffffffffffff1673ffffffffffffffffffffffffffffffffffffffff168152602001908152602001600020819055508273ffffffffffffffffffffffffffffffffffffffff167f0f6798a560793a54c3bcfe86a93cde1e73087d944c0ea20544137d4121396885836040518082815260200191505060405180910390a28273ffffffffffffffffffffffffffffffffffffffff16600073ffffffffffffffffffffffffffffffffffffffff167fddf252ad1be2c89b69c2b068fc378daa952ba7f163c4a11628f55a4df523b3ef846040518082815260200191505060405180910390a36001905092915050565b6000600160003373ffffffffffffffffffffffffffffffffffffffff1673ffffffffffffffffffffffffffffffffffffffff168152602001908152602001600020548211151515610ffc57600080fd5b33905061105182600160008473ffffffffffffffffffffffffffffffffffffffff1673ffffffffffffffffffffffffffffffffffffffff1681526020019081526020016000205461110190919063ffffffff16565b600160008373ffffffffffffffffffffffffffffffffffffffff1673ffffffffffffffffffffffffffffffffffffffff168152602001908152602001600020819055506110a98260005461110190919063ffffffff16565b6000819055508073ffffffffffffffffffffffffffffffffffffffff167fcc16f5dbb4873280815c1ee09dbd06736cffcc184412cf7a71a0fdb75d397ca5836040518082815260200191505060405180910390a25050565b600082821115151561110f57fe5b818303905092915050565b600080828401905083811015151561112e57fe5b80915050929150505600a165627a7a72305820f0334de55d931edcccea4229e7d52d4fdfba1c739330546675daa80691b2be3d0029a165627a7a72305820e11e5a0d2b3a5511c71fd16722cd475aa37bc30e0c5df5cae887716b973cd0e90029",
  "source": "pragma solidity ^0.4.18;\n\nimport './token/StandardToken.sol';\nimport './token/BurnableToken.sol';\nimport './token/MintableToken.sol';\nimport './math/SafeMath.sol';\n\n/**\n  * An ERC20 compliant token generator Contract with all the basic functionality of\n  * Transfer, TransferFrom, GetBalance\n  * Basic ERC20 functionality extended to included token burnability and token mintability\n**/\n\ncontract TokenizedAsset is StandardToken, BurnableToken, MintableToken {\n\n    string  public name;\n    string  public symbol;\n    uint8   public constant decimals = 18;\n\n    /**\n     * Asset/Token constructor\n     *\n     * @param _name    The name of the token to be created\n     * @param _name    The symbol of the token to be created\n     */\n    function TokenizedAsset (string _name, string _symbol) payable {\n        name = _name;\n        symbol = _symbol;\n    }\n\n    /**\n     * Overrides the burn function\n     *\n     * @param _value    The amount of tokens to burn in mini-RBC\n     */\n    function burn(uint256 _value) public {\n        super.burn(_value);\n        Transfer(msg.sender, address(0x0), _value);\n    }\n\n    /**\n     * Overrides the mint function\n     *\n     * @param _to       The beneficiary of the mint\n     * @param _value    The amount to be minted\n     */\n    function mint(address _to, uint256 _value) public returns (bool) {\n        return super.mint(_to, _value);\n    }\n\n    /**\n     * Overrides the transferFrom function\n     *\n     * @param _from    The amount of tokens to burn in mini-RBC\n     * @param _to    The amount of tokens to burn in mini-RBC\n     * @param _amount    The amount of tokens to burn in mini-RBC\n     */\n    function transferFrom(address _from, address _to, uint _amount) public returns (bool) {\n        return super.transferFrom(_from, _to, _amount);\n    }\n}\n\n/**\n  * An Asset(Token) Factory Contract to generate arbitrary assets/tokens\n**/\ncontract TokenizedAssetFactory {\n    string[] public names;\n    address[] public contracts;\n\n    /**\n     * Method to call the token constructor and save the name of the token and it's contract address\n     *\n     * @param name    The name of the token to be created\n     * @param symbol    The symbol of the token to be created\n     */\n    function createAssetContract(string name, string symbol) returns(address) {\n        address assetContractAddr = new TokenizedAsset(name, symbol);\n        names.push(name);\n        contracts.push(assetContractAddr);\n\n        return assetContractAddr;\n    }\n\n    /**\n     * Method to fetch a specific asset's name\n     *\n     * @param i    Index to be fetched\n     */\n    function getName(uint i) constant returns(string) {\n        return names[i];\n    }\n\n    /**\n     * Method to fetch a specific asset's contract address\n     *\n     * @param i    Index to be fetched\n     */\n    function getAddress(uint i) constant returns(address) {\n        return contracts[i];\n    }\n}\n",
  "sourcePath": "/Users/mayurrelekar/dev/pista/contracts/TokenizedAssetFactory.sol",
  "compiler": {
    "name": "solc",
    "version": "0.4.18+commit.9cf6e910.Emscripten.clang"
  },
  "schemaVersion": "1.0.1",
  "updatedAt": "2018-01-24T09:05:38.809Z"
}