{
  "contractName": "TokenizedAsset",
  "abi": [
    {
      "constant": true,
      "inputs": [],
      "name": "name",
      "outputs": [
        {
          "name": "",
          "type": "string"
        }
      ],
      "payable": false,
      "stateMutability": "view",
      "type": "function"
    },
    {
      "constant": true,
      "inputs": [],
      "name": "totalSupply",
      "outputs": [
        {
          "name": "",
          "type": "uint256"
        }
      ],
      "payable": false,
      "stateMutability": "view",
      "type": "function"
    },
    {
      "constant": false,
      "inputs": [
        {
          "name": "_from",
          "type": "address"
        },
        {
          "name": "_to",
          "type": "address"
        },
        {
          "name": "_amount",
          "type": "uint256"
        }
      ],
      "name": "transferFrom",
      "outputs": [
        {
          "name": "",
          "type": "bool"
        }
      ],
      "payable": false,
      "stateMutability": "nonpayable",
      "type": "function"
    },
    {
      "constant": true,
      "inputs": [],
      "name": "DECIMALS",
      "outputs": [
        {
          "name": "",
          "type": "uint8"
        }
      ],
      "payable": false,
      "stateMutability": "view",
      "type": "function"
    },
    {
      "constant": false,
      "inputs": [
        {
          "name": "_to",
          "type": "address"
        },
        {
          "name": "_value",
          "type": "uint256"
        }
      ],
      "name": "mint",
      "outputs": [
        {
          "name": "",
          "type": "bool"
        }
      ],
      "payable": false,
      "stateMutability": "nonpayable",
      "type": "function"
    },
    {
      "constant": false,
      "inputs": [
        {
          "name": "_value",
          "type": "uint256"
        }
      ],
      "name": "burn",
      "outputs": [],
      "payable": false,
      "stateMutability": "nonpayable",
      "type": "function"
    },
    {
      "constant": true,
      "inputs": [
        {
          "name": "_owner",
          "type": "address"
        }
      ],
      "name": "balanceOf",
      "outputs": [
        {
          "name": "balance",
          "type": "uint256"
        }
      ],
      "payable": false,
      "stateMutability": "view",
      "type": "function"
    },
    {
      "constant": true,
      "inputs": [],
      "name": "owner",
      "outputs": [
        {
          "name": "",
          "type": "address"
        }
      ],
      "payable": false,
      "stateMutability": "view",
      "type": "function"
    },
    {
      "constant": true,
      "inputs": [],
      "name": "symbol",
      "outputs": [
        {
          "name": "",
          "type": "string"
        }
      ],
      "payable": false,
      "stateMutability": "view",
      "type": "function"
    },
    {
      "constant": false,
      "inputs": [
        {
          "name": "_to",
          "type": "address"
        },
        {
          "name": "_value",
          "type": "uint256"
        }
      ],
      "name": "transfer",
      "outputs": [
        {
          "name": "",
          "type": "bool"
        }
      ],
      "payable": false,
      "stateMutability": "nonpayable",
      "type": "function"
    },
    {
      "constant": false,
      "inputs": [
        {
          "name": "newOwner",
          "type": "address"
        }
      ],
      "name": "transferOwnership",
      "outputs": [],
      "payable": false,
      "stateMutability": "nonpayable",
      "type": "function"
    },
    {
      "inputs": [
        {
          "name": "_name",
          "type": "string"
        },
        {
          "name": "_symbol",
          "type": "string"
        }
      ],
      "payable": true,
      "stateMutability": "payable",
      "type": "constructor"
    },
    {
      "anonymous": false,
      "inputs": [
        {
          "indexed": true,
          "name": "to",
          "type": "address"
        },
        {
          "indexed": false,
          "name": "amount",
          "type": "uint256"
        }
      ],
      "name": "Mint",
      "type": "event"
    },
    {
      "anonymous": false,
      "inputs": [
        {
          "indexed": true,
          "name": "previousOwner",
          "type": "address"
        },
        {
          "indexed": true,
          "name": "newOwner",
          "type": "address"
        }
      ],
      "name": "OwnershipTransferred",
      "type": "event"
    },
    {
      "anonymous": false,
      "inputs": [
        {
          "indexed": true,
          "name": "burner",
          "type": "address"
        },
        {
          "indexed": false,
          "name": "value",
          "type": "uint256"
        }
      ],
      "name": "Burn",
      "type": "event"
    },
    {
      "anonymous": false,
      "inputs": [
        {
          "indexed": true,
          "name": "from",
          "type": "address"
        },
        {
          "indexed": true,
          "name": "to",
          "type": "address"
        },
        {
          "indexed": false,
          "name": "value",
          "type": "uint256"
        }
      ],
      "name": "Transfer",
      "type": "event"
    }
  ],
  "bytecode": "0x6060604052604051620012c9380380620012c98339810160405280805182019190602001805182019190505033600360006101000a81548173ffffffffffffffffffffffffffffffffffffffff021916908373ffffffffffffffffffffffffffffffffffffffff160217905550816004908051906020019062000084929190620000a6565b5080600590805190602001906200009d929190620000a6565b50505062000155565b828054600181600116156101000203166002900490600052602060002090601f016020900481019282601f10620000e957805160ff19168380011785556200011a565b828001600101855582156200011a579182015b8281111562000119578251825591602001919060010190620000fc565b5b5090506200012991906200012d565b5090565b6200015291905b808211156200014e57600081600090555060010162000134565b5090565b90565b61116480620001656000396000f3006060604052600436106100af576000357c0100000000000000000000000000000000000000000000000000000000900463ffffffff16806306fdde03146100b457806318160ddd1461014257806323b872dd1461016b5780632e0f2625146101e457806340c10f191461021357806342966c681461026d57806370a08231146102905780638da5cb5b146102dd57806395d89b4114610332578063a9059cbb146103c0578063f2fde38b1461041a575b600080fd5b34156100bf57600080fd5b6100c7610453565b6040518080602001828103825283818151815260200191508051906020019080838360005b838110156101075780820151818401526020810190506100ec565b50505050905090810190601f1680156101345780820380516001836020036101000a031916815260200191505b509250505060405180910390f35b341561014d57600080fd5b6101556104f1565b6040518082815260200191505060405180910390f35b341561017657600080fd5b6101ca600480803573ffffffffffffffffffffffffffffffffffffffff1690602001909190803573ffffffffffffffffffffffffffffffffffffffff169060200190919080359060200190919050506104f7565b604051808215151515815260200191505060405180910390f35b34156101ef57600080fd5b6101f761050d565b604051808260ff1660ff16815260200191505060405180910390f35b341561021e57600080fd5b610253600480803573ffffffffffffffffffffffffffffffffffffffff16906020019091908035906020019091905050610512565b604051808215151515815260200191505060405180910390f35b341561027857600080fd5b61028e6004808035906020019091905050610526565b005b341561029b57600080fd5b6102c7600480803573ffffffffffffffffffffffffffffffffffffffff16906020019091905050610598565b6040518082815260200191505060405180910390f35b34156102e857600080fd5b6102f06105e1565b604051808273ffffffffffffffffffffffffffffffffffffffff1673ffffffffffffffffffffffffffffffffffffffff16815260200191505060405180910390f35b341561033d57600080fd5b610345610607565b6040518080602001828103825283818151815260200191508051906020019080838360005b8381101561038557808201518184015260208101905061036a565b50505050905090810190601f1680156103b25780820380516001836020036101000a031916815260200191505b509250505060405180910390f35b34156103cb57600080fd5b610400600480803573ffffffffffffffffffffffffffffffffffffffff169060200190919080359060200190919050506106a5565b604051808215151515815260200191505060405180910390f35b341561042557600080fd5b610451600480803573ffffffffffffffffffffffffffffffffffffffff169060200190919050506108c9565b005b60048054600181600116156101000203166002900480601f0160208091040260200160405190810160405280929190818152602001828054600181600116156101000203166002900480156104e95780601f106104be576101008083540402835291602001916104e9565b820191906000526020600020905b8154815290600101906020018083116104cc57829003601f168201915b505050505081565b60005481565b6000610504848484610a21565b90509392505050565b601281565b600061051e8383610de0565b905092915050565b61052f81610fac565b600073ffffffffffffffffffffffffffffffffffffffff163373ffffffffffffffffffffffffffffffffffffffff167fddf252ad1be2c89b69c2b068fc378daa952ba7f163c4a11628f55a4df523b3ef836040518082815260200191505060405180910390a350565b6000600160008373ffffffffffffffffffffffffffffffffffffffff1673ffffffffffffffffffffffffffffffffffffffff168152602001908152602001600020549050919050565b600360009054906101000a900473ffffffffffffffffffffffffffffffffffffffff1681565b60058054600181600116156101000203166002900480601f01602080910402602001604051908101604052809291908181526020018280546001816001161561010002031660029004801561069d5780601f106106725761010080835404028352916020019161069d565b820191906000526020600020905b81548152906001019060200180831161068057829003601f168201915b505050505081565b60008073ffffffffffffffffffffffffffffffffffffffff168373ffffffffffffffffffffffffffffffffffffffff16141515156106e257600080fd5b600160003373ffffffffffffffffffffffffffffffffffffffff1673ffffffffffffffffffffffffffffffffffffffff16815260200190815260200160002054821115151561073057600080fd5b61078282600160003373ffffffffffffffffffffffffffffffffffffffff1673ffffffffffffffffffffffffffffffffffffffff1681526020019081526020016000205461110190919063ffffffff16565b600160003373ffffffffffffffffffffffffffffffffffffffff1673ffffffffffffffffffffffffffffffffffffffff1681526020019081526020016000208190555061081782600160008673ffffffffffffffffffffffffffffffffffffffff1673ffffffffffffffffffffffffffffffffffffffff1681526020019081526020016000205461111a90919063ffffffff16565b600160008573ffffffffffffffffffffffffffffffffffffffff1673ffffffffffffffffffffffffffffffffffffffff168152602001908152602001600020819055508273ffffffffffffffffffffffffffffffffffffffff163373ffffffffffffffffffffffffffffffffffffffff167fddf252ad1be2c89b69c2b068fc378daa952ba7f163c4a11628f55a4df523b3ef846040518082815260200191505060405180910390a36001905092915050565b600360009054906101000a900473ffffffffffffffffffffffffffffffffffffffff1673ffffffffffffffffffffffffffffffffffffffff163373ffffffffffffffffffffffffffffffffffffffff1614151561092557600080fd5b600073ffffffffffffffffffffffffffffffffffffffff168173ffffffffffffffffffffffffffffffffffffffff161415151561096157600080fd5b8073ffffffffffffffffffffffffffffffffffffffff16600360009054906101000a900473ffffffffffffffffffffffffffffffffffffffff1673ffffffffffffffffffffffffffffffffffffffff167f8be0079c531659141344cd1fd0a4f28419497f9722a3daafe3b4186f6b6457e060405160405180910390a380600360006101000a81548173ffffffffffffffffffffffffffffffffffffffff021916908373ffffffffffffffffffffffffffffffffffffffff16021790555050565b60008073ffffffffffffffffffffffffffffffffffffffff168373ffffffffffffffffffffffffffffffffffffffff1614151515610a5e57600080fd5b600160008573ffffffffffffffffffffffffffffffffffffffff1673ffffffffffffffffffffffffffffffffffffffff168152602001908152602001600020548211151515610aac57600080fd5b600260008573ffffffffffffffffffffffffffffffffffffffff1673ffffffffffffffffffffffffffffffffffffffff16815260200190815260200160002060003373ffffffffffffffffffffffffffffffffffffffff1673ffffffffffffffffffffffffffffffffffffffff168152602001908152602001600020548211151515610b3757600080fd5b610b8982600160008773ffffffffffffffffffffffffffffffffffffffff1673ffffffffffffffffffffffffffffffffffffffff1681526020019081526020016000205461110190919063ffffffff16565b600160008673ffffffffffffffffffffffffffffffffffffffff1673ffffffffffffffffffffffffffffffffffffffff16815260200190815260200160002081905550610c1e82600160008673ffffffffffffffffffffffffffffffffffffffff1673ffffffffffffffffffffffffffffffffffffffff1681526020019081526020016000205461111a90919063ffffffff16565b600160008573ffffffffffffffffffffffffffffffffffffffff1673ffffffffffffffffffffffffffffffffffffffff16815260200190815260200160002081905550610cf082600260008773ffffffffffffffffffffffffffffffffffffffff1673ffffffffffffffffffffffffffffffffffffffff16815260200190815260200160002060003373ffffffffffffffffffffffffffffffffffffffff1673ffffffffffffffffffffffffffffffffffffffff1681526020019081526020016000205461110190919063ffffffff16565b600260008673ffffffffffffffffffffffffffffffffffffffff1673ffffffffffffffffffffffffffffffffffffffff16815260200190815260200160002060003373ffffffffffffffffffffffffffffffffffffffff1673ffffffffffffffffffffffffffffffffffffffff168152602001908152602001600020819055508273ffffffffffffffffffffffffffffffffffffffff168473ffffffffffffffffffffffffffffffffffffffff167fddf252ad1be2c89b69c2b068fc378daa952ba7f163c4a11628f55a4df523b3ef846040518082815260200191505060405180910390a3600190509392505050565b6000600360009054906101000a900473ffffffffffffffffffffffffffffffffffffffff1673ffffffffffffffffffffffffffffffffffffffff163373ffffffffffffffffffffffffffffffffffffffff16141515610e3e57600080fd5b610e538260005461111a90919063ffffffff16565b600081905550610eab82600160008673ffffffffffffffffffffffffffffffffffffffff1673ffffffffffffffffffffffffffffffffffffffff1681526020019081526020016000205461111a90919063ffffffff16565b600160008573ffffffffffffffffffffffffffffffffffffffff1673ffffffffffffffffffffffffffffffffffffffff168152602001908152602001600020819055508273ffffffffffffffffffffffffffffffffffffffff167f0f6798a560793a54c3bcfe86a93cde1e73087d944c0ea20544137d4121396885836040518082815260200191505060405180910390a28273ffffffffffffffffffffffffffffffffffffffff16600073ffffffffffffffffffffffffffffffffffffffff167fddf252ad1be2c89b69c2b068fc378daa952ba7f163c4a11628f55a4df523b3ef846040518082815260200191505060405180910390a36001905092915050565b6000600160003373ffffffffffffffffffffffffffffffffffffffff1673ffffffffffffffffffffffffffffffffffffffff168152602001908152602001600020548211151515610ffc57600080fd5b33905061105182600160008473ffffffffffffffffffffffffffffffffffffffff1673ffffffffffffffffffffffffffffffffffffffff1681526020019081526020016000205461110190919063ffffffff16565b600160008373ffffffffffffffffffffffffffffffffffffffff1673ffffffffffffffffffffffffffffffffffffffff168152602001908152602001600020819055506110a98260005461110190919063ffffffff16565b6000819055508073ffffffffffffffffffffffffffffffffffffffff167fcc16f5dbb4873280815c1ee09dbd06736cffcc184412cf7a71a0fdb75d397ca5836040518082815260200191505060405180910390a25050565b600082821115151561110f57fe5b818303905092915050565b600080828401905083811015151561112e57fe5b80915050929150505600a165627a7a72305820c2e7d65c0c9363b9a7332ebd3a55130f376e7da757e06322fff9e979460fba690029",
  "source": "pragma solidity ^0.4.18;\n\nimport './token/StandardToken.sol';\nimport './token/BurnableToken.sol';\nimport './token/MintableToken.sol';\nimport './math/SafeMath.sol';\n\n/**\n  * An ERC20 compliant token generator Contract with all the basic functionality of\n  * Transfer, TransferFrom, GetBalance\n  * Basic ERC20 functionality extended to included token burnability and token mintability\n**/\n\ncontract TokenizedAsset is StandardToken, BurnableToken, MintableToken {\n\n    string  public name;\n    string  public symbol;\n    uint8   public constant DECIMALS = 18;\n\n    /**\n     * Asset/Token constructor\n     *\n     * @param _name    The name of the token to be created\n     * @param _name    The symbol of the token to be created\n     */\n    function TokenizedAsset (string _name, string _symbol) payable {\n        name = _name;\n        symbol = _symbol;\n    }\n\n    /**\n     * Overrides the burn function\n     *\n     * @param _value    The amount of tokens to burn\n     */\n    function burn(uint256 _value) public {\n        super.burn(_value);\n        Transfer(msg.sender, address(0x0), _value);\n    }\n\n    /**\n     * Overrides the mint function\n     *\n     * @param _to       The beneficiary of the mint\n     * @param _value    The amount to be minted\n     */\n    function mint(address _to, uint256 _value) public returns (bool) {\n        return super.mint(_to, _value);\n    }\n\n    /**\n     * Overrides the transferFrom function\n     *\n     * @param _from    The account to transfer from\n     * @param _to    The account to transfer to\n     * @param _amount    The amount to transfer\n     */\n    function transferFrom(address _from, address _to, uint _amount) public returns (bool) {\n        return super.transferFrom(_from, _to, _amount);\n    }\n}\n\n/**\n  * An Asset(Token) Factory Contract to generate arbitrary assets/tokens\n**/\ncontract TokenizedAssetFactory {\n    string[] public names;\n    string[] public symbols;\n    address[] public contracts;\n\n    mapping (address => string) AddressName;\n    mapping (address => string) AddressSymbol;\n\n    /**\n     * Method to call the token constructor and save the name of the token and it's contract address\n     *\n     * @param name    The name of the token to be created\n     * @param symbol    The symbol of the token to be created\n     */\n    function createAssetContract(string name, string symbol) returns(TokenizedAsset) {\n        TokenizedAsset ta = new TokenizedAsset(name, symbol);\n        names.push(name);\n        symbols.push(symbol);\n        contracts.push(ta);\n\n        AddressName[ta] = name;\n        AddressSymbol[ta] = symbol;\n\n        return ta;\n    }\n\n    /**\n     * Method to fetch a specific asset's name\n     *\n     * @param i    Index to be fetched\n     */\n    function getName(uint i) public constant returns(string) {\n        return names[i];\n    }\n\n    /**\n     * Method to fetch a specific asset's symbol\n     *\n     * @param i    Index to be fetched\n     */\n    function getSymbol(uint i) public constant returns(string) {\n        return symbols[i];\n    }\n\n    /**\n     * Method to fetch a specific asset's contract address\n     *\n     * @param i    Index to be fetched\n     */\n    function getAddress(uint i) public constant returns(address) {\n        return contracts[i];\n    }\n\n    /**\n     * Method to fetch array size\n     *\n     */\n    function getNameSize() public constant returns(uint) {\n        return names.length;\n    }\n\n    /**\n     * Method to fetch Contract Name using the Asset's Contract Address\n     *\n     * @param _assetAddr The Asset's Contract Address\n     */\n    function getContractName(address _assetAddr) public constant returns(string) {\n        return AddressName[_assetAddr];\n    }\n\n    /**\n     * Method to fetch Contract Symbol using the Asset's Contract Address\n     *\n     * @param _assetAddr The Asset's Contract Address\n     */\n    function getContractSymbol(address _assetAddr) public constant returns(string) {\n        return AddressSymbol[_assetAddr];\n    }\n}\n",
  "sourcePath": "/Users/mayurrelekar/dev/pista/contracts/TokenizedAssetFactory.sol",
  "compiler": {
    "name": "solc",
    "version": "0.4.18+commit.9cf6e910.Emscripten.clang"
  },
  "schemaVersion": "1.0.1",
  "updatedAt": "2018-02-02T10:18:03.303Z"
}